:020000040020DA
:10100000ACDC020F0105025200000000811C200030
:10101000CB105E04071419A547EBA63E17979AF864
:1010200000000000000000000000000000000000C0
:1010300000000000000000000000000000000000B0
:1010400000000000000000000000000000000000A0
:101050000000000000000000000000000000000090
:101060000000000000000000000000000000000080
:101070000000000000000000000000000000000070
:101080000000000000000000000000000000000060
:101090000000000000000000000000000000000050
:1010A0000000000000000000000000000000000040
:1010B0000000000000000000000000000000000030
:1010C0000000000000000000000000000000000020
:1010D0000000000000000000000000000000000010
:1010E0000000000000000000000000000000000000
:1010F00000000000000000000000000000000000F0
:1011000000000000000000000000000000000000DF
:1011100000000000000000000000000000000000CF
:1011200000000000000000000000000000000000BF
:1011300000000000000000000000000000000000AF
:10114000000000000000000000000000000000009F
:10115000000000000000000000000000000000008F
:10116000000000000000000000000000000000007F
:10117000000000000000000000000000000000006F
:10118000000000000000000000000000000000005F
:10119000000000000000000000000000000000004F
:1011A000000000000000000000000000000000003F
:1011B000000000000000000000000000000000002F
:1011C000000000000000000000000000000000001F
:1011D000000000000000000000000000000000000F
:1011E00000000000000000000000000000000000FF
:1011F00000000000000000000000000000000000EF
:1012000000900020811C2000D91C2000191F200004
:10121000291F2000591F2000691F2000391F2000AE
:10122000000000000000000000000000D91C2000A9
:10123000491F200000000000D91C2000D91C2000FC
:10124000D91C2000D91C2000D91C2000D91C20004A
:10125000D91C2000D91C2000D91C2000D91C20003A
:10126000D91C2000D91C2000D91C2000D91C20002A
:10127000D91C2000D91C2000D91C2000D91C20001A
:10128000D91C2000D91C2000D91C2000CD422000F0
:10129000AD432000E5432000D91C20000138200088
:1012A00085482000D91C2000952F2000013A2000FD
:1012B000D91C2000FD382000D91C2000D91C20009A
:1012C000D91C2000D91C2000D91C2000D91C2000CA
:1012D000D91C2000D91C2000E91C2000D91C2000AA
:1012E000D91C2000D91C20001D2C2000D91C200056
:1012F000D91C2000592C2000D91C2000952C20003E
:10130000C12C2000ED2C2000FF1C2000151D20000A
:10131000D91C2000D91C2000D91C2000D91C200079
:10132000D91C2000D91C2000192D2000D91C200018
:10133000D91C2000D91C2000D91C2000D91C200059
:10134000D91C2000D91C2000D91C2000D91C200049
:10135000D91C2000D91C2000D91C2000D91C200039
:10136000D91C2000D91C2000D91C2000D91C200029
:10137000D91C2000D91C2000D91C2000D91C200019
:10138000D91C2000D91C2000D91C2000D91C200009
:10139000D91C2000D91C2000D91C2000D91C2000F9
:1013A000D91C2000D91C2000D91C2000D91C2000E9
:1013B000D91C2000D91C2000D91C2000D91C2000D9
:1013C0004FF0FF0C1CEAD0521EBF1CEAD15392EA28
:1013D0000C0F93EA0C0F6FD01A4480EA010C400204
:1013E00018BF5FEA41211ED04FF0006343EA50105E
:1013F00043EA5111A0FB01310CF00040B1F5000FA0
:101400003EBF490041EAD3715B0040EA010062F14E
:101410007F02FD2A1DD8B3F1004F40EBC25008BF38
:1014200020F00100704790F0000F0CF0004C08BF56
:1014300049024CEA502040EA51207F3AC2BFD2F123
:10144000FF0340EAC250704740F400004FF0000331
:10145000013A5DDC12F1190FDCBF00F0004070476B
:10146000C2F10002410021FA02F1C2F1200200FAA9
:1014700002FC5FEA310040F1000053EA4C0308BF70
:1014800020EADC70704792F0000F00F0004C02BFC1
:10149000400010F4000F013AF9D040EA0C0093F03C
:1014A000000F01F0004C02BF490011F4000F013B96
:1014B000F9D041EA0C018FE70CEAD15392EA0C0F04
:1014C00018BF93EA0C0F0AD030F0004C18BF31F06F
:1014D000004CD8D180EA010000F00040704790F045
:1014E000000F17BF90F0004F084691F0000F91F0E9
:1014F000004F14D092EA0C0F01D142020FD193EAAF
:101500000C0F03D14B0218BF084608D180EA010036
:1015100000F0004040F0FE4040F40000704740F012
:10152000FE4040F44000704780F0004002E000BF01
:1015300081F0004142001FBF5FEA410392EA030FBE
:101540007FEA226C7FEA236C6AD04FEA1262D2EB08
:101550001363C1BFD218414048404140B8BF5B420D
:10156000192B88BF704710F0004F40F4000020F0A6
:101570007F4018BF404211F0004F41F4000121F0BC
:101580007F4118BF494292EA030F3FD0A2F1010206
:1015900041FA03FC10EB0C00C3F1200301FA03F144
:1015A00000F0004302D5494260EB4000B0F5000F67
:1015B00013D3B0F1807F06D340084FEA310102F126
:1015C0000102FE2A51D2B1F1004F40EBC25008BFD8
:1015D00020F0010040EA03007047490040EB0000A2
:1015E000013A28BFB0F5000FEDD2B0FA80FCACF1A3
:1015F000080CB2EB0C0200FA0CF0AABF00EBC250D0
:1016000052421843BCBFD0401843704792F0000FBD
:1016100081F4000106BF80F400000132013BB5E710
:101620004FEA41037FEA226C18BF7FEA236C21D086
:1016300092EA030F04D092F0000F08BF08467047EB
:1016400090EA010F1CBF0020704712F07F4F04D1B9
:10165000400028BF40F00040704712F100723CBFCC
:1016600000F50000704700F0004343F0FE4040F4F6
:10167000000070477FEA226216BF08467FEA2363B4
:101680000146420206BF5FEA412390EA010F40F49F
:10169000800070474FF0000304E000BF10F00043EB
:1016A00048BF40425FEA000C08BF704743F09643D2
:1016B00001464FF000001CE050EA010208BF7047ED
:1016C0004FF000030AE000BF50EA010208BF704774
:1016D00011F0004302D5404261EB41015FEA010C89
:1016E00002BF84460146002043F0B64308BFA3F181
:1016F0008053A3F50003BCFA8CF2083AA3EBC25363
:1017000010DB01FA02FC634400FA02FCC2F1200281
:10171000BCF1004F20FA02F243EB020008BF20F0B8
:101720000100704702F1200201FA02FCC2F120021E
:1017300050EA4C0021FA02F243EB020008BF20EA13
:10174000DC7070474FF0FF3C06E000BF4FF0010C2B
:1017500002E000BF4FF0010C4DF804CD4FEA40020B
:101760004FEA41037FEA226C18BF7FEA236C11D055
:1017700001B052EA530C18BF90EA010F58BFB2EB08
:10178000030088BFC81738BF6FEAE17018BF40F088
:10179000010070477FEA226C02D15FEA402C05D13C
:1017A0007FEA236CE4D15FEA412CE1D05DF8040BC1
:1017B000704700BF844608466146FFE70FB5FFF754
:1017C000C9FF002848BF10F1000F0FBD4DF808ED0C
:1017D000FFF7F4FF0CBF012000205DF808FB00BFFD
:1017E0004DF808EDFFF7EAFF34BF012000205DF857
:1017F00008FB00BF4DF808EDFFF7E0FF94BF0120A4
:1018000000205DF808FB00BF4DF808EDFFF7D2FFA0
:1018100094BF012000205DF808FB00BF4DF808EDE3
:10182000FFF7C8FF34BF012000205DF808FB00BFB0
:101830004FEA4002B2F1FE4F0FD34FF09E03B3EBDD
:1018400012620DD94FEA002343F0004310F0004F1D
:1018500023FA02F018BF404270474FF00000704773
:1018600012F1610F01D1420205D110F0004008BF12
:101870006FF0004070474FF0000070477BB972B9BD
:101880000029BEBF00204FF0004106E008BF00283D
:101890001CBF6FF000414FF0FF3000F057B8ADF1C2
:1018A000080C6DE904CE002909DB002B1ADB0AF0D5
:1018B000EDFCDDF804E0DDE9022304B070474042AE
:1018C00061EB4101002B1BDB0AF0E0FCDDF804E0DA
:1018D000DDE9022304B0404261EB4101524263EB77
:1018E00043037047524263EB43030AF0CFFCDDF839
:1018F00004E0DDE9022304B0404261EB410170479E
:10190000524263EB43030AF0C1FCDDF804E0DDE979
:10191000022304B0524263EB4303704753B94AB900
:10192000002908BF00281CBF4FF0FF314FF0FF30E7
:1019300000F00CB8ADF1080C6DE904CE0AF0A6FC7D
:10194000DDF804E0DDE9022304B07047704700BF12
:10195000EC46A0E8F05F4FF000007047B0E8F05FA1
:10196000E546080008BF0120704700BF4FF4007330
:1019700010B5ADF5047D04AC01A9012001930394D9
:1019800015F6E2FF4F4B227E68461A70627E5A704F
:10199000A27E9A70E27EDA70626AC2F307211A723E
:1019A0005972C2F30741120EDA72A26A9972C2F337
:1019B00007211A735973C2F30741120EDA73E26AF0
:1019C0009973C2F307211A745974C2F30741120EB6
:1019D000DA74226B9974C2F307211A755975C2F330
:1019E0000741120EDA75626B9975C2F307211A76F8
:1019F0005976C2F30741120E9976DA76A26BC2F3DA
:101A000007211A775977C2F30741120EDA77E26B92
:101A10009977C2F3072183F8202083F82110C2F3BD
:101A20000741120E83F8232094F8402083F82210F7
:101A300083F8242094F8412083F8252094F842204C
:101A400083F8262094F8432083F82720227F1A71F8
:101A5000627F5A71A27F9A71E27FDA7194F8202036
:101A600083F8282094F8212083F8292094F8222054
:101A700083F82A2094F8232083F82B2094F84C2014
:101A800083F82C2094F84D2083F82D2094F84E20D4
:101A900083F82E2094F84F2083F82F2015F650FF5E
:101AA00003986946143005F08FFF002813BF012208
:101AB00000224FF0FF300020034B1A700DF5047D1B
:101AC00010BD00BFB2800020B080002070B54FF480
:101AD00000760546ADF5067D06AC03A90120039608
:101AE000059415F631FF01A901201695019602947F
:101AF00015F63AFF0DF5067D70BD70B54FF4007612
:101B00000546ADF5067D06AC03A9012003960594B4
:101B100015F61AFF01A9012019950196029415F6F0
:101B200023FF0DF5067D70BD70B54FF400760546B8
:101B3000ADF5067D06AC03A901200396059415F6C4
:101B400003FF01A901200E950196029415F60CFFE2
:101B50000DF5067D70BD70B54FF400760546ADF508
:101B6000067D06AC03A901200396059415F6ECFE4C
:101B700001A901200D950196029415F6F5FE0DF5CB
:101B8000067D70BD70B54FF400760546ADF5067D57
:101B900006AC03A901200396059415F6D5FE01A90C
:101BA00001200B950196029415F6DEFE0DF5067DDB
:101BB00070BD0000044B187800F00700831E032B53
:101BC00028BF0020704700BFB2800020044B187867
:101BD00000F00700831E022B94BFC0B2FF207047A5
:101BE000B2800020114B124A1B7843B9114B13608D
:101BF0001068114B114AB0FBF3F313607047104BA0
:101C00001B7803F00703032B0CD0042B0CD0022B02
:101C10000C4B18BF00230C49136009780029E7D149
:101C20005B08E4E7094BF6E7094BF4E7E2800020A4
:101C300000800020E0F45002A08601000480002013
:101C4000B280002000F04902B18000200075190325
:101C500000494A0307480849084A4FF0000380F347
:101C60000A8881F3098882F30B8883F3148800F0D3
:101C700007B80000008800200088002000880020AD
:101C800008B50D4A0D4B0E499A600E4B0E4A8B4219
:101C900009D300210D4B0E4A934209D30D4B186016
:101CA00000F0EEFAFEE752F8044B43F8044BEEE77F
:101CB00043F8041BF0E700BF0012200000ED00E035
:101CC000B08000200080002008EF2000B0800020BD
:101CD000FC870020E480002008B502480AF0CCFE12
:101CE000FEE700BFECDB2000684620F007018D46D0
:101CF00001B506F047FBBDE80140854670476846E0
:101D000020F007018D4601B507F020FBBDE801403A
:101D100085467047684620F007018D4601B502F000
:101D2000D5FC07F023FBBDE8014085467047000065
:101D300080B483B000AF074B7B60074B7B60074BE1
:101D40007B60074B7B60074B7B6000BF0C37BD4659
:101D500080BC704759C22000CD1A2000FB1A200019
:101D6000291B2000571B200070B5264C264D2368E8
:101D70002B6002F0F5FB0022244BC0F307215974BD
:101D8000C0F3074199741A7519785A759A75DA75FE
:101D90005A78187441EA02219A78000E41EA024109
:101DA000D8741A795879197242EA00229879C1F3E5
:101DB0000726090C42EA00429972D879D97842EA9A
:101DC0000060D9721A73C2F30721C2F307429A73F3
:101DD000020EDA735E725973FFF704FF2A682368F4
:101DE0009A420DD00A4B1B7853B10A4B1B68986876
:101DF0000AF072FCBDE87040074B186802F0A0BE04
:101E000070BD00BF00800020F080002030830020E3
:101E10005C8400204C800020608400201FB51A4C98
:101E200023689A78A12A18D1002201921A7C597C41
:101E3000684642EA0122997C42EA0142D97C42EAA0
:101E4000016200924FF4041202921A7D5A7D9A7D2B
:101E5000DB7D8DF80C3003F0BDFB2268137A517ADC
:101E600043EA0123917AD27A43EA014343EA0263C7
:101E700098472268137B517B43EA0123917BD27BF5
:101E800043EA0143F2E700BF1480002010B54FF48D
:101E90007A708AB002F015FC002410236946CDE95F
:101EA00000340B4806AB029315F63EFE47F2305065
:101EB00001F0BCFF089B03A8B3F5041F08BF23462D
:101EC00003940594049303F0D3F90AB010BD00BF46
:101ED0000010200044F6206300BF00BF00BF00BF19
:101EE000013BF9D17047000040F2071307B5ADF888
:101EF00004300A238DF80730064B08211B688DF843
:101F0000060001A8029302F0FBFEFFF7E3FF15F6BF
:101F1000F7FD00BFEC800020684620F007018D46E9
:101F2000412008B5FFF7E0FF684620F007018D4625
:101F3000422008B5FFF7D8FF684620F007018D461C
:101F4000432008B5FFF7D0FF684620F007018D4613
:101F5000442008B5FFF7C8FF684620F007018D460A
:101F6000452008B5FFF7C0FF08B5054B5B8DD810BD
:101F700000F0600003F00F031843FFF7B5FF00BF48
:101F800000ED00E02DE9704392B005F07DFDFFF714
:101F9000EDFCFFF727FE07F0FBFE4FF00008019075
:101FA00002F046FA002015F6E7FDCDF80880FFF7AD
:101FB0000DFEA54C02AA6178E5782070A078B1EBFF
:101FC000080118BF01210DF10A0340EA052005F0C0
:101FD00091FEBDF808309D4E5B00A371C3F307234B
:101FE000E371BDF80A304FF001095B002371C3F3C0
:101FF0000723637107F00CF807F0EEFF404615F673
:1020000083FD042015F698FD05F05FFE904B86F8E1
:10201000008083F80080FFF7CDFD05F049FEFF2228
:102020008C4BC3F83090C3F850811A619A604FF01E
:102030000052894B1A604FF000621A604FF0E023A3
:10204000D3F8182D854D42F00F02C3F8182DD3F8A0
:10205000142D42F01002C3F8142DD3F8242D42F4AD
:10206000A022C3F8242D2B78002B00F0CA8018235F
:102070004FF40410089308A90CABCDF824800A9300
:1020800015F652FD0446002840F0BD804DF6AC43E5
:10209000BDF830209A4240F0B8800D9B704A1BBAC0
:1020A000934240F2B4804A44934240F0B2809DF89B
:1020B0003230A02B11D14AF6DC430F9A9A420CD150
:1020C000684B1A68137A517A43EA0123917AD27ADB
:1020D00043EA014343EA026398479DF83330032BF8
:1020E0000FD0072B40F0888003230393012303AC18
:1020F0005D4804A90493059415F632FD00286AD0C2
:102100000324DFF86881C8F8004003F0DFFBD8F84B
:102110000030002B5CD000233370FFF725FE4FF416
:10212000E13002F00DFDD8F8001051480AF0A4FC8F
:102130002B78002B40F0848000F0E2F8082108A8FA
:1021400000F000F90AA815F6FBFB0A9B089A49481B
:1021500053400A93099B83F00F030B930AF08CFC06
:10216000102208A8114602F049FC02F0E1FB1F28EA
:1021700051D9102200210CA80AF098FB012502F089
:10218000E3FBC0B2A0F13003DBB2092B47D81B013F
:10219000DCB202F0D9FBC0B2A0F13003DBB2092BF4
:1021A00046D81C4312AB03EB65030235212D03F81F
:1021B000184CE4D1DDE90E30C01A0D9B58400C9B41
:1021C000C01AFFF7DFFC02F087FE0020FFF75EFE7B
:1021D00012B0BDE870834FF4041303930423264820
:1021E00006A9CDE9063415F6BBFC0446002887D1C4
:1021F0001098FFF7B0FC84E7012B0CBF05240424E2
:102200007FE708247DE707247BE7062479E74C462F
:1022100077E7022475E7089B01330893A5E7A0F14F
:102220006103052BC6D8A0F157042401E4B2B0E73E
:10223000A0F16103052BBDD857380443E4B2B1E7E0
:102240000E480AF019FCC0E708800020E280002058
:10225000B18000200010014000E100E0B0800020CB
:10226000510205011480002003002100108000208D
:10227000ACDB2000C9DB200008102000CCDB2000F4
:1022800008B5FFF77FFE064B186808B9FFF7C6FDD3
:1022900005F01EFA05F004F9FFF74AFD002008BD1D
:1022A0001080002007B5054AAA216A44044801921B
:1022B0000AF0FCFA03B05DF804FB00BF0470FFDF16
:1022C000009000200648074B0278AA2A03D0C0F5E8
:1022D000204080B2704701309842F5D1704700BF6E
:1022E0000090002000A0002082B002ABC3F5204087
:1022F000043080B202B070474FF480507047000045
:1023000010B50C4C23788BB905F0E5FC70B10A4B85
:102310000A4C1C600A4B186820B1B0F5803F03D20C
:1023200000F04CFC204610BD8047FBE701232370E2
:102330000024F7E7F8800020E880002001010B006E
:102340008C810020104B10B51B7863B90F4B104CDB
:102350001C60104B186820B1B0F5803F11D200F01E
:102360002DFC204610BD15F657FB04460028F8D07A
:10237000152C084A054B0CBF074C084C10681C6014
:10238000E9E78047EDE700BFF8800020E880002003
:1023900003020B008C81002001020B0002020B00E3
:1023A00073B516461C4DCDE900106A46284646F026
:1023B00001011C4615F638FB152809D004D8C0B118
:1023C000092812D0154C04E06828FBD1144C00E019
:1023D000144C154B1C60154B186820B1B0F5803FAC
:1023E00005D200F0EBFB204614E0114CF1E78047EA
:1023F000F9E7104A089B146193619DF824305361FA
:102400009DF81830D3609DF81C3093600A4B136020
:102410002B68536002B070BD1C81002004050B00C6
:1024200003050B0001050B00E88000208C810020D3
:1024300002050B00208100204369503010B588B0A0
:10244000002404920422CDE90214CDE90010059283
:1024500007936A46124B05A902A8069415F6C4FA1A
:102460001528044609D004D890B1092813D00D4C82
:1024700004E06828FBD10C4C00E00C4C0C4B1C60B9
:102480000C4B186820B1B0F5803F06D200F096FBE7
:10249000204608B010BD084CF0E78047F8E700BFC1
:1024A0002081002004070B0003070B0001070B002D
:1024B000E88000208C81002002070B0073B51646CF
:1024C0001C4DCDE900106A46284646F003011C4623
:1024D00015F6AAFA152809D004D8C0B1092812D0D7
:1024E000154C04E06828FBD1144C00E0144C154B4B
:1024F0001C60154B186820B1B0F5803F05D200F084
:102500005DFB204614E0114CF1E78047F9E7104AE3
:10251000089B146193619DF8243053619DF8183035
:10252000D3609DF81C3093600A4B13602B68536096
:1025300002B070BDFC80002004060B0003060B00F7
:1025400001060B00E88000208C81002002060B00B1
:10255000008100204369503010B588B00292049386
:102560000422002301910392069305910790164BD4
:1025700003AA01A905A815F61BFA1528044617D0C9
:1025800004D890B1092818D0104C12E06828104ADD
:10259000104B14D07D28F7D10F4C1460186820B16F
:1025A000B0F5803F0DD200F009FB204608B010BD09
:1025B0000A4C074B1C60074BF0E7094CF9E7094C44
:1025C000EBE78047F1E700BF0081002004070B0024
:1025D000E88000208C81002001080B0002080B001D
:1025E00002070B0003070B0030B5074C2160B2FA5D
:1025F00082F1257A490961F30005044925720B60CF
:10260000034B60601A7030BD1880002028800020C5
:10261000248000201FB50024CDE90210174A01A92B
:1026200002A8019415F670F9034680B9144B1B7883
:102630001BB1019B93FAA3F30193124B1A6812B1D9
:10264000019B53400193019C204604B010BD0E4AEB
:10265000092B10680D4A04D10D4B136030B90024CA
:10266000F2E7172B0CBF0B4B0B4BF6E7B0F5803F97
:1026700002D200F0A3FAE7E78047E5E718800020E0
:1026800024800020288000208C810020E880002009
:1026900002040B0001040B0003040B0005F01EBB39
:1026A000B0F5806F10B50ED34C4B4D4C1C604D4BAC
:1026B000186820B1B0F5803F03D200F07FFA2046C1
:1026C0000FE08047FBE711F0100F474B0AD0DA68A4
:1026D00011290CBF02438243DA601A6802431A6070
:1026E000002010BD1A68A1F1020C22EA00024C1E63
:1026F0001A60DCF1000242EB0C0261426141C40548
:1027000007D55C6862F300045C605C6861F34104B7
:102710005C60440608D5344B5C6862F382045C60FC
:102720005C6861F3C3045C60030608D52E4B5C68EB
:1027300062F304145C605C6861F345145C608405BA
:1027400008D5294B5C6862F386145C605C6861F3B1
:10275000C7145C60C30708D5234B5C6862F3082488
:102760005C605C6861F349245C60840608D51E4B9C
:102770005C6862F38A245C605C6861F3CB245C6013
:10278000C30608D5184B5C6862F30C345C605C6867
:1027900061F34D345C60840708D5134B5C6862F3C9
:1027A0008E345C605C6861F3CF345C60030708D5ED
:1027B0000D4B5C6862F310445C605C6861F35144EB
:1027C0005C6010F004008CD0074B586862F39240B4
:1027D00058605A6861F3D3425A6081E7E88000206C
:1027E000010103008C81002000800040B0F5806F63
:1027F00010B50CD3104C114B1C60114B186820B154
:10280000B0F5803F0AD200F0D9F9204610BD0D4B3B
:102810001A6830EA020203D00B4CECE78047F4E779
:10282000DA6801290CBF104382434FF000040CBF4B
:10283000D860DA60E9E700BF01010300E88000200A
:102840008C8100200080004002020300B0F5806F00
:1028500008B50ED30A4B0B4A1A600B4B186828B107
:10286000B0F5803F03D200F0A9F9002008BD8047F1
:10287000FBE7064B9B68184214BF01200020F5E7D8
:10288000E8800020010103008C81002000800040CE
:102890002DE9F04F9D4B04461B78ADF5097DCBB972
:1028A0009B4E3578B5B905F016FA88B1994B9A4A1E
:1028B0001A609A4B186828B1B0F5803F06D200F034
:1028C0007DF928460DF5097DBDE8F08F8047F8E7D2
:1028D00001233370924D2B6823B9072C02D80820AE
:1028E000FFF7D6FF102200210DEB020009F0DEFFFA
:1028F00004F00F038DF81030012304A8059307F0AE
:102900002FFC082C14D1DDE906134FF4C370854A5F
:102910002B601160844A5A4300FB01228348026005
:10292000834A5343D22202FB0133824A1360C9E730
:10293000032C0DD87D4A069B10684FF4436202FBBE
:102940000300784B2A681B689B1A90FBF3F0B9E7E9
:10295000072C1FD011D8052C16D9062CB2D16FF038
:1029600008012A686F4B4A431B6807980699184468
:1029700010440B4480021344E7E7162C00F0BF809C
:10298000172C9FD106989DE76A4A069B10684FF462
:10299000D262D4E7684D2B68002B40F08E804FF454
:1029A000007308AC01A913200193039414F6CCFF23
:1029B0009DF83D319DF83C211B0203F44073134305
:1029C000642242F2F67A53432B609DF841519DF800
:1029D00040112D0205F440750D43554357499DF8AC
:1029E00045610D6036029DF8441106F440760E43B1
:1029F00056434C4A52481468494A761BD2F8009014
:102A0000EA1AA4EB09014A434E4302604FEAE47814
:102A1000BAEB030000FB08FC4A494FEAE97B0E6071
:102A20004FEAE37161EB410704FB07CCA0FB04070D
:102A3000BC44454FFB1A03FB0BFE61EB410109FB54
:102A400001E1A3FB09E3B0EB0E0019446CEB010CB0
:102A50003E49D317A0FB010E01FB0CE1FEF70EFF70
:102A60003B4BA0F51C404038BAEB050A18604FEA12
:102A7000E57363EB43027F1B07FB0BFB63EB430335
:102A80000AFB08F109FB03BBAAFB040AA7FB0979AF
:102A900004FB02112F4CC01BA0FB04055144CB4486
:102AA00061EB0B01F317324604FB0151FEF7E6FE22
:102AB000294B00F5EA4030301860204B06981B681F
:102AC000C11783420EDA254C1D4B04FB0101A0FB0C
:102AD00004041A682144D317FEF7D0FE1C4B1B6870
:102AE0001844EFE61E4C174B04FB0101A0FB040445
:102AF0001A682144D317FEF7C1FE174BEFE707987A
:102B0000069B8002B0FBF3F0DCE600BFB180002042
:102B1000F8800020E8800020010403008C81002060
:102B20003C810020408100204AF2FFFF58810020B4
:102B30009EF8FFFF54810020608100205C8100200E
:102B40004C81002050810020A66701007011010017
:102B500044810020F824010048810020008D765532
:102B60008072DA6D01234109034A00F01F0083409F
:102B700042F82130704700BF00E100E00122064921
:102B8000430900F01F008240203341F82320BFF3A7
:102B90004F8FBFF36F8F704700E100E080F3118823
:102BA00062B6BFF36F8F704772B6EFF311800123E7
:102BB00083F31288BFF36F8F7047000038B5044667
:102BC00009F050FB012821D194FAA4F0B0FA80F06A
:102BD0000246104951F82030013341F820300E4BA5
:102BE0001978914238BF1A7038BD94FAA4F3B3FA39
:102BF00083F350F823101A46013140F8231005FAE8
:102C000003F324EA0304002CEFD1E8E700220125B6
:102C10000048F8E79881002094810020684620F061
:102C200007018D46094B01B51A68094B1A60094B1B
:102C3000186820B1B0F5803F05D2FFF7BFFFBDE8AF
:102C40000140854670478047F9E700BFF4800020C7
:102C5000F8840020BC820020684620F007018D46E1
:102C6000094B01B51A68094B1A60094B186820B165
:102C7000B0F5803F05D2FFF7A1FFBDE801408546D2
:102C800070478047F9E700BFF4800020F4840020FB
:102C9000B4820020684620F007018D46074B01B53D
:102CA000186820B1B0F5803F05D2FFF787FFBDE877
:102CB0000140854670478047F9E700BFB082002099
:102CC000684620F007018D46074B01B5186820B112
:102CD000B0F5803F05D2FFF771FFBDE801408546A2
:102CE00070478047F9E700BFB8820020684620F0AF
:102CF00007018D46074B01B5186820B1B0F5803F3C
:102D000005D2FFF75BFFBDE801408546704780476D
:102D1000F9E700BFAC820020684620F007018D462D
:102D2000074B01B5186820B1B0F5803F05D2FFF719
:102D300045FFBDE80140854670478047F9E700BF81
:102D4000C0820020B0F5806F2DE9F0410F466CD2B3
:102D5000794B1C6804400DD0784C794B1C60794B42
:102D6000186800285ED0B0F5803F80F0E380FFF760
:102D700025FF57E0744E3378052B15D9734CECE7DB
:102D800008FB01EC9CF804509CF805C045EA0C25B2
:102D9000854201D16E4CE0E701318B42F0DCD1B2CB
:102DA000012907D96B4CD8E721464FF00608DFF818
:102DB000A8E1F2E706215D1C4B43DFF89CC1EDB2B0
:102DC0000CF8037035700CEB0306C7F30723737020
:102DD000C7F30743B370584B012ADA694FEA102151
:102DE00071710CBF02438243390E3071F170DA61A8
:102DF000002306261A4606FB02C0017940790132FB
:102E000041EA0021954243EA0103F4DC4A4A012DDC
:102E1000C2F8E43F4FF0FF33C2F8F03F02D11A206E
:102E2000FFF7A0FE2046BDE8F081B0F5104F52D06C
:102E30001FD8B0F5A04F63D010D8B0F5405F5DD07B
:102E400007D8B0F5805F55D0B0F5005F54D0434C43
:102E500083E7B0F5804FFAD1414B34E0B0F5E04F55
:102E60002DD0B0F5004F31D0B0F5C04FEFD13D4B74
:102E700029E0B0F5414F47D00DD8B0F5304F2FD0F5
:102E8000B0F5404F31D0B0F5204FE0D13020FFF702
:102E900069FE354B17E0B0F5434F40D0B0F5504FC9
:102EA00030D0B0F5424FD2D1304BC1F30722197266
:102EB0005A72C1F30742090E9A72D97204E02A20AD
:102EC000FFF750FE2A4B1F600024ABE72D20FFF7D1
:102ED00049FE284BF7E72F20FFF744FE264BF2E789
:102EE0003120FFF73FFE254BEDE73A20FFF73AFE92
:102EF000234BE8E7134BE6E7224BE4E7224BE2E7FC
:102F0000224BE0E7224BDEE7184BC1F30722197191
:102F10005A71C1F30742090E9A71D971D4E7134B64
:102F2000C1F3072219735A73C1F30742090E9A734A
:102F3000D973C9E7804775E70080004002010600A9
:102F4000E88000208C810020888100200301060099
:102F5000050106000401060064810020010106004D
:102F6000A4820020A8820020B8820020FC840020D7
:102F7000BC820020B4820020B0820020AC820020FD
:102F8000C08200209081002098820020A082002032
:102F90009C820020684620F007018D462DE9F9410A
:102FA0004FF0000806271C4B1C4DD3F8EC6F1C4C4F
:102FB0002B78434510DC4FF0FF32174BC3F8F02F4E
:102FC000184B186820B1B0F5803F23D2FFF7F6FD0B
:102FD000BDE8F9418546704707FB08F163181A7987
:102FE000587942EA002232420FD05A78605C40EAB7
:102FF00002209A78DB7840EA024050EA036004D06D
:10300000B0F5803F04D2FFF7D9FD08F10108CFE702
:103010008047FAE78047DBE7008000408881002096
:103020006481002090810020B0F5806FF8B534D223
:1030300000240622524D534E2B78A3420CDC524CF6
:10304000524B1C60524B186818B3B0F5803F80F0AB
:103050009480FFF7B3FD1CE002FB046C9CF8047045
:103060009CF805C0611C47EA0C27874213D15143E5
:103070001B1B013B881F5A433144304409F009FCB3
:1030800028780138C4B22C70002C4ED11A20FFF7DA
:1030900075FD204656E00C46CFE7B0F5104F48D0FE
:1030A00021D8B0F5A04F54D011D8B0F5405F4DD025
:1030B00007D8B0F5805F42D0B0F5005F43D0354C03
:1030C000BEE7B0F5804FFAD10020334B39E0B0F5C0
:1030D000E04F27D0B0F5004F29D0B0F5C04FEED16A
:1030E00000202E4B2DE0B0F5414F38D00AD8B0F576
:1030F000304F20D0B0F5404F1FD0B0F5204FDED17B
:10310000302010E0B0F5434F30D0B0F5504F23D011
:10311000B0F5424FD3D10020214B187258729872EB
:10312000D8720FE02A20FFF729FD00200AE02C20AA
:10313000F9E72F20F7E73120F5E73A20F3E7002001
:10314000134B1860F8BD0020164BFAE70020164B11
:10315000F7E70020154BF4E70020154BF1E70020BE
:103160000F4B187158719871D871EBE700200C4B18
:10317000187358739873D873E4E7804789E700BFE2
:10318000888100206481002001020600E880002080
:103190008C81002001010600A4820020A88200206A
:1031A000FC8400209081002098820020A0820020D2
:1031B0009C820020034A52F82030013342F820302C
:1031C000704700BF98810020014B53F820007047E2
:1031D00098810020F0B50C4B01261A780023184680
:1031E0000A4D0B49D2B255F8234051F82370A7423B
:1031F0001CBF06FA03F741F8234003F1010318BF8F
:1032000038439A42EFDAF0BD948100209881002083
:103210001882002030B50124084A094900B930BDA0
:1032200090FAA0F3B3FA83F352F8235041F82350F5
:1032300004FA03F320EA0300F0E700BF98810020BE
:1032400018820020F8B507460B4D0C4B6E681C68C1
:10325000FFF7C0FF6FB164237C4300275C4350B984
:10326000A74208D26F68BF1BFFF7B4FFF7E7FFF76D
:10327000B1FF0028FBD0F8BD001000E00480002062
:1032800038B50D1A044609F03DFC054A1368106074
:103290000344B3FBF5F105FB1133181938BD00BF2A
:1032A000C482002009F000BC02464FF080439342E4
:1032B00005D800202BB9824288BF013070479B0897
:1032C000F5E7C11891429CBF00EB4300521A400839
:1032D0009B08EFE707B501A814F632FB019800BA86
:1032E00003B05DF804FB00001FB500230293042324
:1032F00005480DEB03010193CDF80CD014F614FC36
:10330000009805B05DF804FBFCFB2000074A92F82A
:103310002D1092F82C3092F82F0043EA012392F8F6
:103320002E1043EA014343EA00607047B280002058
:10333000074A92F8291092F8283092F82B0043EAB5
:10334000012392F82A1043EA014343EA00607047E0
:10335000B2800020544B03215A6922F00E025A61B8
:103360005A6942F00E025A610122504B1A60504BCA
:103370001A6399601961D3F810116FF34401C3F80F
:103380001011D3F810116FF38911C3F81011D3F88D
:10339000101162F3CD21C3F81011D3F8101141F4CC
:1033A0000041C3F81011D3F80C1141F00041C3F8EB
:1033B0000C11D3F80C1141F08061C3F80C11D3F853
:1033C0000C116FF3DB61C3F80C11D3F80C116FF320
:1033D0001861C3F80C11D3F80C1141F00071C3F857
:1033E0000C11D3F80C116FF3D131C3F80C11D3F8D1
:1033F0000C116FF30E31C3F80C11D3F80C116FF3ED
:103400005751C3F80C11D3F80C116FF39441C3F862
:103410000C11D3F8301162F34401C3F830110221CA
:10342000D3F830216FF38912C3F83021D3F830215B
:1034300061F3CD22C3F83021D3F82C2142F00042B1
:10344000C3F82C21D3F82C216FF39A62C3F82C21F6
:10345000D3F82C2142F00062C3F82C21D3F82C21A0
:1034600042F08072C3F82C21D3F82C216FF35962FB
:10347000C3F82C21D3F82C216FF3D132C3F82C21BF
:10348000D3F82C216FF30E32C3F82C21D3F82C2162
:103490006FF35752C3F82C21D3F82C216FF39442C9
:1034A000C3F82C21704700BF00800040CC82002070
:1034B000001001401B4BB3F800246FF30002A3F887
:1034C0000024D3F8F82F22F00202C3F8F82F0222CA
:1034D000C3F8F82F144A11684A074BBF134AB3F8D0
:1034E0000C24126842F0100245BFC3F824240322C2
:1034F000A3F80C24C3F8082E4FF44C32C3F8001480
:10350000C3F8002E4FF0FF320721C3F8042ED3F882
:10351000202461F31B62C3F820240422C3F804248E
:10352000704700BF00000140CC820020D082002004
:103530002B4B01071A6810B422F44E7248BF42F0B8
:1035400020021A60420748BF1A684FEA102444BF9D
:1035500042F010021A60C1075EBF1A6842F008020A
:103560001A60C20642BF1A6842F440721A601A68B2
:1035700024B31C4942F0040209681A60B1FBF4F15B
:103580004FF47A74B1FBF4F1174C2160410641BF4E
:1035900016494A6942F001024A61020641BF1349D5
:1035A0004A6942F4C0224A611B685B0703D44FF4A6
:1035B00000020F4B1A6010BCFFF77CBF22F0040220
:1035C0001A600A4A116821F002011160516864F31F
:1035D0008E315160516864F3CF315160D6E700BF3E
:1035E000CC82002000800020D0820020008000409B
:1035F00000E100E00E4B0F4A1868D2F82C31C0F3FE
:103600000B0019010ED4D2F80C31D2F81021C3F3FB
:103610000B03920300D50133074A1288801AC01A9F
:1036200080B27047D2F82C31C3F30B03F4E700BF2C
:10363000D482002000100140D88200202DE9F04102
:103640005C4F0D463B781646DFF86C81B3B9D8F86D
:103650000030590702D4594B1B787BB1584B594C59
:103660001C60594B186820B1B0F5803F04D2FFF7B9
:10367000A5FA2046BDE8F0818047FAE700234F4ACB
:10368000524C1370D4F8102192031FD5D4F8102196
:1036900063F38E32C4F81021D4F8102163F3CF32D3
:1036A000C4F81021D4F8102142F48022C4F810216B
:1036B000D4F8102163F39242C4F81021D4F81021F9
:1036C00063F30002C4F81021FFF7F4FE0323404A1D
:1036D000C6F30B061660A3602361D4F80C310028F2
:1036E0005BD160F39A63C4F80C313A4B18701846FA
:1036F000D4F82C31002D55D165F3DB63354DC4F87A
:103700002C3100233B70344BC4F80001C4F8043161
:103710001168D4F80C3161F30B03C4F80C312F4B52
:10372000C4F82031C4F824511268D4F82C3162F363
:103730000B03C4F82C31D4F8103143F00103C4F862
:103740001031D4F8303143F00103C4F83031D8F8E7
:10375000003013F0040304BF214A1380214B1B687F
:103760002BBB3B78002BFCD0D4F8300110F00100CB
:10377000FAD11D4BD3F8202460F31452C3F820244F
:10378000B3F8002460F30002A3F80024B3F8002487
:1037900042F00102A3F800246CE743F08063C4F810
:1037A0000C31A5E743F00063C4F82C31A9E70020F1
:1037B00060E700BF2C800020CC8200202D800020FC
:1037C000E8800020010508008C81002000100140E5
:1037D000D4820020C88200201C040140140401404F
:1037E000D8820020A4820020000001400A46014641
:1037F0000020FFF723BF0A460021FFF71FBF00008C
:10380000684620F007018D4601B5354BD3F82824D2
:10381000D20620D50121334A11704FF0FF32C3F890
:103820000824B3F8102442F01002A3F81024B3F8CF
:103830000C246FF30412A3F80C24B3F80C2442F008
:103840002002A3F80C24284B186820B1B0F5803F63
:1038500040D2FFF7B3F9224BD3F828349B0635D575
:103860000021204B1970214BD3F8302161F3000265
:10387000C3F830211E4B186820B1B0F5803F2BD221
:10388000FFF79CF94FF0FF32154BC3F80824B3F84B
:10389000102442F02002A3F81024B3F80C246FF394
:1038A0004512A3F80C24B3F80C2442F01002A3F83C
:1038B0000C24104B1A784AB901221A700E4B186862
:1038C00020B1B0F5803F09D2FFF778F9BDE801409B
:1038D000854670478047BEE78047D3E78047F5E7D6
:1038E000000001402D800020A08200200010014037
:1038F000A88200202C800020A4820020684620F0AE
:1039000007018D46FF2331B5374C6568A360EA0691
:103910000BD5D4F890311B0407D5344B186820B16F
:10392000B0F5803F5AD2FFF749F9A80752D0304D81
:103930002B68590716D4D4F830311A0412D52D4B00
:10394000186878B12C4B1A7802F0FF0152B92B4A53
:10395000B0F5803FC2F81C144FF001021A703FD23C
:10396000FFF72CF9254BD3F8282412B1FF22C3F816
:1039700010242B685B072DD51F4D2B7853BB1F4B95
:10398000D3F8202442F48012C3F82024194A106886
:10399000F0B1D4F8302112F00102FAD1D3F820149A
:1039A000B0F5803F62F31451C3F82014B3F800144B
:1039B00062F30001A3F80014B3F8002442F00102FE
:1039C000A3F800244FF001032B700BD2FFF7F6F899
:1039D00001232B70BDE83140854670478047A4E73E
:1039E0008047BFE78047F3E7001001409C8200203A
:1039F000CC820020A48200202C8000200000014006
:103A0000684620F00701074B8D469A699A6901B50F
:103A1000D20758BF9A69FF22BDE801401A61854666
:103A2000704700BF00100140034A536923F4C023CC
:103A300023F001035361704700800040104BD3F81E
:103A4000F82F22F00202C3F8F82FB3F800246FF326
:103A50000002A3F8002400220A4B1A600A4A5369A4
:103A600023F4C02323F00F0353614FF40002074BEC
:103A7000C3F88020BFF34F8FBFF36F8F704700BF35
:103A800000000140CC8200200080004000E100E006
:103A900070B505460C4640EA010630460121FEF7A6
:103AA000FFFD044B044A1D805C80D36823EA0603B3
:103AB000D36070BDDC82002000800040034B0121F8
:103AC00018885B88184380B2FEF7EABDDC820020CC
:103AD0000C480D4A38B5116843880C4D21EA0301A2
:103AE0001160806894681C4001D0012008E069687A
:103AF000411AB1F1804FF5D9204600F009F820466F
:103B000038BD00BFDC82002000800040001000E0D3
:103B100038B500230F4D104C6B71104B6A885B68F1
:103B200003F5671303F56F53AB602B8821681343CC
:103B30000B43236020B1FFF7CBFF20B9FE2008E044
:103B400023EA0203236000202A88236823EA020371
:103B5000236038BDDC82002000800040001000E0BF
:103B60002DE9F04106460827DFF88C80234DD8F870
:103B70000430234C03F5671303F56F53AB602368E0
:103B80006A88310642EA03022B884CBF22EA03030B
:103B900013432360FFF79CFF10B9FE20BDE8F081BE
:103BA00076006B88A968F6B2A2681A421AD0013F63
:103BB00017F0FF07E3D1226813432A8823EA0203A0
:103BC0002360FFF785FF0028E7D02A88A3681A4200
:103BD00014BF4FF0FF3000206A882368C0B213433F
:103BE0002360DBE7D8F804208A1AB2F1804FDBD9D2
:103BF0000120FFF78DFFD0E7001000E0DC820020FD
:103C00000080004038B50A4C0A4D23682A880420F9
:103C10001343236000F041FD6A88236804201343A6
:103C2000236000F03AFD2879BDE83840FFF798BFDF
:103C300000800040DC82002038B50F4B0F4C5B68E1
:103C40000F4D03F5671303F56F53A3602A6863886C
:103C50001343228823EA02032B60FFF739FF40B1A8
:103C600022882B6813432B602079BDE83840FFF78A
:103C700077BFFE2038BD00BF001000E0DC820020CE
:103C8000008000402DE9F843154D1F466B79400038
:103C900089469046287153B1FFF7CEFF044648B1DC
:103CA000AFB10120FFF734FF60B2BDE8F883FFF742
:103CB000A9FFF3E70646F2B24245F1D219F8020035
:103CC000FFF74EFF01360028F5D00446E8E7054A25
:103CD000298813680B43136001236B71E4E700BF6D
:103CE000DC820020008000402DE9F84300230646D6
:103CF0000F460824DFF8B4800370D8F804302C4D48
:103D000003F5671303F56F53DFF8A890AB603378C2
:103D10005B003370D9F800206B8813432A8823EAAC
:103D20000203C9F80030FFF7D3FE68B9FE2420462D
:103D3000BDE8F883D8F804208A1AB2F1804F05D97B
:103D40000120FFF7E5FEF1E76B88A968D9F80820A4
:103D50001A42EFD0D9F808102A88013C11421EBF40
:103D6000317841F00101317014F0FF04CFD11149D5
:103D70000868034357B113430B60FFF7A9FE0028FF
:103D8000D4D06988A8680B4B084D07E023EA0203EA
:103D9000F2E76A68821AB2F1804FD1D89A680A4273
:103DA000F7D01A680A431A60C1E700BF001000E0AC
:103DB000DC820020008000402DE9F843194D1F46A9
:103DC00040006B7940F00100884616462871C3B167
:103DD000FFF732FF0446B8B906F1FF39E0B2B0424E
:103DE00013D2B9EB000118BF01214044FFF77CFF5B
:103DF00090B10D4A29881368044623EA0103136031
:103E000003E0FFF7FFFEE5E700243FB10120FFF7E5
:103E10007FFE20B2BDE8F8830134DFE701236B7138
:103E2000F7E700BFDC8200200080004013F6A4BE4C
:103E3000012383F31088054A92F84C3043F00103C4
:103E400082F84C30002383F31088704700C0004094
:103E50000122034BC3F8E82FC3F8D82F704700BFE7
:103E600000C00040014B1878704700BF2883002035
:103E700030B50124394B8440E4B2C3F8E84F0D4615
:103E8000596D022A21EA0401596502BF596D214387
:103E90005965C3F8D84F03285CD8DFE800F0021F4B
:103EA00033474FF400212E4BC3F88010BFF34F8FE0
:103EB000BFF36F8F19600120284B93F8741060F3E3
:103EC000070183F87410002A46D1264A5168691AFE
:103ED00078391960214BC3F8DC4F30BD4FF48011A5
:103EE0001F4BC3F88010BFF34F8FBFF36F8F196064
:103EF00001201A4991F8783060F3070381F878308F
:103F0000194BE0E74FF40011154BC3F88010BFF3D5
:103F10004F8FBFF36F8F19600120104991F87C30EB
:103F200060F3070381F87C30104BCCE74FF480013D
:103F30000B4BC3F88010BFF34F8FBFF36F8F196027
:103F40000120064991F8803060F3070381F8803042
:103F5000074BB8E70023B6E71D60BBE700C0004091
:103F600000E100E0001000E010C0004020C0004070
:103F700030C000402DE9F743DFF83081064698F85D
:103F800000300C46072B17460ED9494C494B1C6094
:103F9000494B186820B1B0F5803F11D2FEF70EFEF4
:103FA000204603B0BDE8F083684600F06FFA009A3F
:103FB000019BB6EB020C64EB03041CB13F4CE5E73C
:103FC0008047EDE73E4898F80030E5009C4215DA5E
:103FD000411991F805E00B7943EA0E2391F806E0C8
:103FE000C97943EA0E4343EA01639B1A9C4554D2C4
:103FF00098F800300133DBB29C421CDB0544C6F369
:1040000007236B71C6F30743AB71330EEB71C7F334
:10401000072300F834706B70C7F30743AB7098F850
:1040200000303F0E0133DBB22E71EF7088F80030A4
:10403000ACB30024B4E703F1FF3C00EBCC0E9EF8D8
:10404000011010F83C2042EA01229EF8021042EAD8
:1040500001429EF80310C2F3072900F8332000EB59
:10406000C303120C83F801909A70D9709EF8052052
:104070009EF8041041EA02219EF8062041EA02411E
:104080009EF807201971C1F3072E090C83F805E08B
:104090009971DA715FFA8CF3AEE7013493E7224647
:1040A00031462046FFF7E4FE7AE700BF2883002070
:1040B00001040500E88000208C8100200105050036
:1040C000E8820020F8B5234B05461B680F461646CC
:1040D0000BB100F001FA204C637C207C627D40EA49
:1040E0000320A37C40EA0340E37C40EA0360237D95
:1040F0002D1A43EA0223A27D43EA0243E27D43EA0A
:10410000026367EB0307154B0A2219680023A5FB1E
:10411000010501FB0751FDF701FC627A237A657BFB
:1041200043EA0223A27A43EA0243E27A43EA0263C1
:10413000227BC01842EA0522A57BE47B42EA0542C5
:1041400042EA046444EB01013246BDE8F840FFF75F
:1041500011BF00BFEC8400203083002004800020C9
:104160000A464FF47A71A0FB0101FFF7ABBF0000D4
:10417000F8B5284C154694F8683094F8692094F8FE
:104180006D6043EA022394F86A2043EA024394F8FC
:104190006B2043EA026394F86C20C01A42EA0622BC
:1041A00094F86E601C4B42EA064294F86F6042EA53
:1041B000066261EB020619684FF41C22A0FB01079E
:1041C000002301FB0671FDF7A9FB94F8712094F818
:1041D000703094F8756043EA022394F8722043EA41
:1041E000024394F8732043EA026394F87420C018E1
:1041F00042EA062294F8766094F8774042EA064252
:1042000042EA046444EB01012A46BDE8F840FFF7A6
:10421000B1BE00BF6484002004800020094B10B5AB
:104220000C4619680A220023A0FB0101FDF776FB6A
:10423000054B01461C600222BDE810400120FFF73B
:1042400017BE00BF048000202C8300204FF47A7337
:104250005843FFF7E3BF00000023064A1370064AE5
:10426000137053709370D3704FF40022034BC3F854
:104270008021704728830020E882002000E100E0D0
:104280000022074B1A604FF48012064BC3F88020BF
:10429000BFF34F8FBFF36F8FC3F88021704700BF0C
:1042A0002C83002000E100E008B5FFF7D5FFFFF701
:1042B000E7FF4FF40022044BC3F88020BFF34F8F79
:1042C000BFF36F8F08BD00BF00E100E0684620F03B
:1042D00007018D460122F1B5314B324CC3F8E82F6E
:1042E0002078637840EA0320A37840EA0340E3782B
:1042F00050EA036022D02C4DB0F5803F2B7803F1BB
:10430000FF33DBB22B701DD2FEF758FC00202A7859
:10431000C3B2934218D32A7802F0FF03002A3AD09E
:1043200062792379E17943EA0223A27943EA0243DD
:10433000002243EA01611046FFF79AFDBDE8F14013
:10434000854670478047E1E75A1C14F8321004EBA9
:10435000C2025678013041EA0621967841EA0641C8
:10436000D678C1F3072704F8331004EBC303090C14
:104370005F709970DE705679117941EA062196795D
:10438000D27941EA0641C1F307261971090C5E7121
:104390009971DA71BBE723706370A370E370CDE7A6
:1043A00000C00040E882002028830020684620F0FA
:1043B00007018D460222094B01B5C3F8E82F084BCF
:1043C000186820B1B0F5803F05D2FEF7F7FBBDE8D5
:1043D0000140854670478047F9E700BF00C00040B4
:1043E0002C830020684620F007018D46042201B589
:1043F0000D4BBDE80140C3F8E82F0C4A85465179C2
:10440000137943EA0123917943EA0143D17943EADD
:1044100001630133C3F3072113715171C3F30741E2
:104420001B0E9171D371704700C000403083002093
:10443000134A136863B14FF0E020D0F8FC1D43F03D
:10444000010341F08071C0F8FC1D00211360516030
:10445000042101200B4B596593F87C2060F307027F
:1044600083F87C200F22C3F8D82F4FF0FF321A6256
:104470004FF40010044A1060C3F8DC1F704700BFFF
:10448000001000E000C0004000E100E0104B1149C6
:104490005B6A30B5DB43DAB2C3F30725C3F30744E5
:1044A0000A7042EA05221B0E42EA04428C70CB706D
:1044B0004C7942EA03620B794D7043EA04238C790C
:1044C000C97943EA044343EA0163C0E9002330BDEC
:1044D00000C00040308300201E4B70B55A78187819
:1044E0001D4D40EA02209A78296840EA0240DA78B5
:1044F0001C7A40EA0260194A411A12685E7BB1FBDD
:10450000F2F15A7A44EA02249A7A44EA0244DA7AC4
:1045100044EA02641A7B091942EA06229E7BC1F32F
:10452000072442EA0642DE7B197242EA066242F141
:1045300000025C72C1F30744090ED972C2F307216D
:104540001A735973C2F30741120E9C729973DA738E
:10455000286070BD3083002048830020F084002054
:1045600073B51C4C6846FFF791FF627A237A617B32
:1045700043EA0223A27A009843EA0243E27A43EA3A
:104580000263227BC51A42EA0122A17B124B42EA56
:104590000142E17B1B6842EA0162019961EB02067C
:1045A0000BB1FFF799FF0A21A5FB01050B4B01FB9E
:1045B00006511A680023FDF7B1F9627C237C43EAB7
:1045C0000223A27C43EA0243E27C43EA02631844EA
:1045D00002B070BD30830020EC84002004800020F5
:1045E00073B5244C6846FFF751FF627A237A617BEA
:1045F00043EA0223A27A009843EA0243E27A43EABA
:104600000263227BC51A42EA0122A17B1A4B42EACD
:104610000142E17B1B6842EA0162019961EB0206FB
:104620000BB1FFF759FF0A21A5FB0105134B01FB55
:1046300006511A680023FDF771F9637C227C657DC1
:1046400042EA0322A37C42EA0342E37C42EA036299
:10465000237D821843EA0523A57DE47D43EA0543D3
:10466000074843EA046343EB0103C0E9002302B0B7
:1046700070BD00BF30830020EC8400200480002047
:104680004C83002008B5FFF7ABFF4FF47A72D0E9F6
:1046900000010023FDF742F908BD38B50446FFF7D5
:1046A0009FFF072C07D9D0E90023A41843F1000588
:1046B000A242AB4100DB38BDFFF792FFD0E90023F7
:1046C000F6E74FF47A735843FFF7E7BFF0B5284A8F
:1046D00085B013680A2601331360FFF781FFD0E924
:1046E000004502A804F048FC694602A800F08CFDD1
:1046F0000098019FA0FB060100234FF41C2206FB3B
:104700000711FDF7BBF8241A65EB01010F3C41F1DD
:10471000FF3154EA010329D0164B5A7C187C5D7D89
:1047200040EA02209A7C40EA0240DA7C40EA0260D9
:104730001A7D001B42EA05229D7D187442EA05425B
:10474000DD7D42EA056262EB0102C0F30721597484
:10475000C0F307419974C2F30721000E1A75597509
:10476000C2F30741120ED8749975DA7505B0F0BD21
:10477000F4800020308300202DE9F047074688B000
:1047800018B90620FEF784F807463C4D01AC0FCD62
:104790000FC495E8070084E80700394D00216A7AC4
:1047A0002B7AE87A43EA0223AA7A43EA024343EAED
:1047B0000060FDF70BF80646A0B307264FF07E58C1
:1047C00000240DF104092046FCF768FF59F804ABFA
:1047D000044641465046FCF7F3FD01462046FCF7EF
:1047E000A9FEFDF725F804463846FCF757FF0146B9
:1047F0004046FCF7E5FD013E16F0FF068046E2D19B
:1048000095F8253095F8240040EA032095F82630E5
:1048100040EA034095F8273040EA0360204408B09E
:10482000BDE8F0874FF07E580446B31C15F82320EE
:1048300005EB83035978404642EA01229978013614
:1048400042EA0142D97842EA0161FCF7B9FD8146AA
:104850002046FCF723FF01464846FCF76BFEFCF7B9
:10486000E7FF04463846FCF719FF01464046FCF7CF
:10487000A7FD072E8046D8D1C2E700BFD0DB2000BD
:10488000B2800020684620F007018D46154979B5B1
:10489000154B164C164D1A69D00704D55A69C2F348
:1048A000800052070FD423784BB1124B186820B107
:1048B000B0F5803F13D2FEF781F900232370BDE8E5
:1048C0007940854670470A6893F83C60AE545A694F
:1048D0005A610A6820700132D2B20A60DBE7804771
:1048E000EBE700BF5883002000F000405D8400200B
:1048F0005C830020988200204FF08072094BC3F83F
:104900008020BFF34F8FBFF36F8F074B5A696FF350
:10491000CC225A615A696FF34E325A610022034B1E
:104920001A70704700E100E0008000405C840020C5
:10493000034B1868034B1B68C01A80B2704700BF56
:104940005883002054830020084A094B19681368D3
:1049500099421FBF116813680133DBB21DBF13609A
:10496000044B585C4FF0FF30704700BF5483002069
:10497000588300205C830020014B1860704700BF03
:1049800030800020F8B50646FFF7D2FF88420D467A
:1049900012D32C460023DDB2A54203F1010721D337
:1049A0001349144B08681A68904208BF0022204639
:1049B00004BF0A601A60F8BDFFF7BAFF0E4F044645
:1049C0003B68002BE6D0FFF75DFE3F680744FFF72A
:1049D00059FE3B1A002BDDDDFFF7AAFF8542044696
:1049E000F5D8D6E7FFF7B0FF3B467055D3E700BFD9
:1049F0005483002058830020308000202DE9F843A4
:104A000007460E4615460024DFF82C80DFF82C9070
:104A1000A64201DCBDE8F8833CB1B4FBF5F305FB2D
:104A2000134313B9404608F027F8395D484608F0AB
:104A300023F80134ECE700BF9ADC2000FADB200009
:104A400010B5094C094B226819682AB9084808F0C2
:104A500013F80023236010BDFF298CBF05480648CA
:104A600008F00AF8F5E700BF10800020E880002079
:104A700000DC200013DC200030DC200010220221AA
:104A80002E4B9A601A61D3F890216FF34402C3F859
:104A90009021D3F8902161F389120121C3F890216C
:104AA000D3F8902161F3CD22C3F89021D3F890215F
:104AB00042F40042C3F89021D3F88C2142F0004226
:104AC000C3F88C21D3F88C2142F08062C3F88C218A
:104AD000D3F88C216FF3DB62C3F88C21D3F88C21DF
:104AE0006FF31862C3F88C21D3F88C2142F0007266
:104AF000C3F88C21D3F88C216FF3D132C3F88C2109
:104B0000D3F88C216FF30E32C3F88C21D3F88C21AB
:104B10006FF35752C3F88C21D3F88C216FF3944272
:104B2000C3F88C21A3F5005393F898200A4383F827
:104B300098201A696FF34F321A61704700100140D4
:104B400038B5394B05461B680021986808F028F8ED
:104B50000122364B596962F3CC215961596962F3DC
:104B60004E315961BFF34F8F314C2368134323609B
:104B700023686FF341032360BFF34F8F236913430F
:104B80002361BFF34F8F23696FF35243236123697E
:104B900043F002032361236943F480732361236993
:104BA0006FF34923236123696FF38C232361236906
:104BB00043F01003236123696FF345132361A38836
:104BC00043F00403A380BFF34F8F1A4B1D601A4BB1
:104BD000216918686FF3D751B0FBF5F0030900F0B5
:104BE0000F002161A3626062BFF34F8FBFF34F8F4D
:104BF000BFF34F8F236943F020032361BFF34F8F2F
:104C00000020636963610D4B1A700D4B18600D4BEA
:104C100018604FF080720C4B1A60FFF72FFF23686B
:104C200060F30003236038BD4C800020008000400A
:104C300000F0004060840020008000205C840020A0
:104C4000588300205483002000E100E0024BD3F899
:104C5000900100F00100704700100140102210B5D3
:104C6000144B9A601A61D3F8904114F001040ED0ED
:104C7000114B124C1C60124B186820B1B0F5803FEC
:104C800003D2FDF79BFF204610BD8047FBE70D4A8E
:104C9000C3F88001C3F88421D3F88C2161F30B029F
:104CA000C3F88C21D3F8902142F00102C3F890217F
:104CB000E9E700BF00100140E8800020010507007F
:104CC0008C81002038F000400022F0B50B4D8A4264
:104CD00000D3F0BD2B698C1AC3F34233C3F1040334
:104CE000A34228BF234684181E19B44201D11A4496
:104CF000EDE714F8017B85F83870F6E700F0004026
:104D0000054B10B51C681CB1BDE81040FFF7A6BFED
:104D1000FFF7DAFF204610BD9C82002000232DE91A
:104D2000F041002986B08DF814300E4615460B462A
:104D300002DA404261EB410313241F460A2200239A
:104D400039468046FCF7EAFD0B462146024601F152
:104D5000180C0DEB0C0E02EB820208F1300CB8F1CE
:104D60000A0F04F1FF34ACEB420277F10007E4B222
:104D70000EF8182CE1D2002E08DA04F118030DEB1E
:104D800003042D23023904F8183CCCB204F11803B3
:104D9000C4F113060DEB0304F6B2A4F1170035B904
:104DA0003146FFF7ADFF304606B0BDE8F081014661
:104DB0003246284607F06DFDF5E70846114608B56E
:104DC000FFF782FF084608BD00207047B1F5806FED
:104DD0007FB505461446084603D20A44B2F5806FF3
:104DE0000DDD124C124B1C60124B186820B1B0F54F
:104DF000803F18D2FDF7E2FE204604B070BD0026C9
:104E000000F5031001A900F5705002960194039576
:104E100012F68AFE0028F0D022463146284607F0D6
:104E200045FD054CDEE78047E6E700BF02030C00C6
:104E3000E88000208C81002001030C0007B50146AA
:104E4000012201A8FFF7C2FF9DF8040003B05DF83E
:104E500004FB0000B1F5806F0B4613B503D2511867
:104E6000B1F5806F0DDD0F4C0F4B1C600F4B1868B8
:104E700020B1B0F5803F12D2FDF7A0FE204602B06F
:104E800010BDCDE9002003F50310694600F5705010
:104E900012F666FE04460028F0D0054CE4E7804791
:104EA000ECE700BF02040C00E88000208C810020A9
:104EB00001040C0007B501228DF80410014601A879
:104EC000FFF7C8FF03B05DF804FB0000014B187842
:104ED000704700BFE480002008B512F619FE12F6F4
:104EE0000FFE00002DE9FF41144607460D4602F073
:104EF000A5FA9DF80830182C23F0180343F0180386
:104F00008DF808307AD01AD804F0FD03012B18D19F
:104F1000614B93F85730022B01D102F08FFAB5F5AF
:104F2000806F10D35D4C5E4B1C605E4B186838B3CD
:104F3000B0F5803F80F0AD80FDF740FE20E01A2CF8
:104F40005CD0594CEFE70FB1584CECE7002200233E
:104F5000CDE90023C5F3801205F0010343EA4203C3
:104F6000C5F3C01543EA85058DF80450019B5BB974
:104F70004B4B4F4C1C604B4B18680028D8D14C4C05
:104F8000204604B0BDE8F08103223E46E11E9DF8B4
:104F900000304C424C4123F0030344F002041C4314
:104FA0009DF808308DF8004062F302038DF8083058
:104FB000FFF77AF972B667B14FF47A70704302F076
:104FC000C5FE01223B4BC3F8F02FC3F8E42F02F0DB
:104FD000B1FE0024384B394A1C605C615A6040F2D3
:104FE000FF32C3F8E02FC3F8F02F04AB13E90F0032
:104FF00002F07DFE02F0A4FE62B6C1E7002F46D0AB
:10500000FFF740FB874201D22D4C8CE73E1ADFF8B8
:10501000B48098F8000008B902F054FE012002F0B4
:10502000ADFE02F0A3FE0028FBD098F800300BB9CB
:1050300002F04BFE00220023CDE90023321E18BFF0
:1050400001224FF0000362F304138DF80030A4F145
:105050001A021D4B544205EA0303544145EA9525C3
:105060009DF80820C5F30905E4012B4344F0020430
:1050700002F0780201931443C3F309038DF808404A
:10508000002B95D19DF80030DB0691D470E73E46A9
:10509000BDE7804774E700BF64840020020301007D
:1050A000E88000208C81002004030100010301003E
:1050B0000303010000E0004000800040AAAA0A00AB
:1050C00005030100E280002000FC0F00012A08BF58
:1050D00089021A22FFF706BF014601220020FFF7CE
:1050E00001BF000010B502F0F2FD58B1074B084CAB
:1050F0001C60084B186820B1B0F5803F03D2FDF763
:105100005DFD204610BD8047FBE700BFE880002022
:10511000010501008C81002012F6CABC12F6CCBC3D
:1051200070B5144C94F8695094F8683094F86D6038
:1051300043EA052394F86A5043EA054394F86B5018
:1051400043EA056394F86C50C01A45EA062594F8C2
:105150006E6094F86F4045EA064545EA04644FEAFC
:10516000502361EB040143EAC153C0F308005360CC
:10517000106070BD64840020F8B50D4600293DD054
:105180001F4E204B96F869401F6896F8683096F8D5
:105190006DE043EA042396F86A4096F86BC043EA50
:1051A000044396F86C4043EA0C6344EA0E2496F8F4
:1051B0006EE096F86F6044EA0E4444EA06645602D4
:1051C0009B1B04EB4724416864EBD25402689B1894
:1051D0004FEA412244F100049E184FF2BF3344EBE2
:1051E000D154994208D800F0C5FAD0E90023B24260
:1051F000A341B8BFA4F500742E606C60F8BD00BF79
:1052000064840020F4800020F0B561B3164C174B85
:1052100094F868201D6894F8693094F86D7042EA3B
:10522000032294F86A30466842EA034294F86B30ED
:10523000006842EA036294F86C3040EA462043EA90
:10524000072394F86E7094F86F4043EA074343EAEB
:10525000046380184FEA452545EAD65528BF013337
:105260002B4408604B60F0BD64840020F480002073
:105270002DE9F04FADF5237D04460FA802F0AEFBFB
:105280000FA800F09FFF4FF0FF3301221946C348DB
:10529000FDF7AAF9002C55D063792579277845EADE
:1052A0000325A37945EA0345E37945EA0365637875
:1052B00047EA0327A37847EA0347E37847EA036707
:1052C0000026FFF7DFF901F09FF94FF4E130FFF717
:1052D00037FC2B463A46B249B24807F0CDFB4FF4B3
:1052E000057331461CAA01200196009602F07AF956
:1052F00002F088F8304602F077F8102231460BA809
:1053000007F0D4FAB2464FF0FF384FF47A70FDF749
:1053100099FFD0B9627A237A013643EA0223A27A4E
:10532000F6B243EA0243E27A43EA02639E4203D1C1
:10533000B8F1FF3F00F00F8102F064F8002002F0A6
:1053400053F8E2E725462746BAE70128DDD11C9B42
:10535000C3F30F23B3F5057FD7D135B19DF87B306B
:105360001F9A43EA0223AB42CFD11D9A9DF87330B6
:1053700043EA02238A4A9342C7D137B19DF8773076
:105380001E9A43EA0223BB42BFD1FEF751FDB8F19A
:10539000FF3F24D14FF0FF310023219A0BADC2F320
:1053A0004730C2F304229140DAB2904200F2D88032
:1053B00040F0D8800A460133042B45F8042BF3D182
:1053C0004FF000089DF87B301F99774843EA012190
:1053D00007F052FB9DF87B501F9B45EA03250122F5
:1053E0009DF883909DF8843049EA032309F01F0952
:1053F00002FA09F9C3F347130BAA52F8232012EA61
:10540000090F82D10DF1870B4FF4007158460392BA
:105410000293FDF7FFF8209B9DF87F10039A41EA65
:1054200003218142029B40F0CF8042EA09020BA98E
:1054300041F82320219A0AF1010A1FFA8AFA5146FB
:105440005A48C2F30F2207F017FB4FF400739DF880
:10545000830007939DF8843007A950EA032002BF18
:10546000A0238DF88930012300F584504FEA4020B5
:1054700008BF8DF88A30CDF820B012F671FBB8F174
:10548000000F1FD14FF0010B41F28830FEF7CEFC28
:105490000DF1180909A94648CDF818B0CDF824B087
:1054A000CDF8289012F65CFB042309A94148099322
:1054B000069512F655FB404809A9CDF8188012F65A
:1054C0004FFBD8464FF0040B0BAB53F8042B029262
:1054D00001327FF41AAF0BF1FF3B1BF0FF0BF4D14D
:1054E00040F2A1334FF002090DF1180809A9A8F8FC
:1054F00000303248CDF82490CDF8288012F630FBE9
:1055000021994FF40410C1F30F214902FDF782F8ED
:1055100005909DF87B201F990DF1140A42EA0122A3
:10552000904222D1264807F0A7FA4FF4F46209A965
:10553000C8F800202148CDF82490CDF8288012F634
:105540000FFB042309A91C480993CDF828A012F6E3
:1055500007FBFFF7C1FC5C200DF5237DBDE8F08F54
:10556000002228E74FF0FF3225E74FF47A6209A9BD
:10557000A8F800201148CDF82490CDF8288012F624
:10558000EFFA9DF87B301F9ADAF800100D4843EAD5
:10559000022207F071FADA46B5E600BFB71DC10472
:1055A000520205014DDC200065DC200072DC200089
:1055B0000300210008102000FCFB20000200210055
:1055C0007EDC200082DC2000014807F055FA9CE6D2
:1055D0009CDC20002DE9F041ADF5816D044601F021
:1055E00013F84FF4E130FFF7ABFA14230225627A87
:1055F0008DF80930237A217B43EA0223A27AE07AEC
:1056000043EA0243490243EA00608DF80A50FDF77D
:1056100001F8C0F307228DF81420C0F307428DF87B
:105620001520020E61788DF816202278034642EA92
:105630000122A1788DF8130042EA0142C2F307204B
:105640008DF81000100C8DF8110052208DF80B0011
:1056500005208DF80D0001204FF0000800260027DE
:10566000E1788DF80F208DF812108DF80C508DF820
:105670000E0042EA01623C483C493D4D07F0FCF90E
:105680008DF81B808DF81C80237B9DF81B108DF8F6
:105690001D3000238DF81E309DF81C30627A41EADF
:1056A0000321237A0DF11F0043EA0223A27A43EA81
:1056B0000243E27A43EA026303EB41214FF40072B2
:1056C00007F0E7F84FF400710DF11F00FCF7A2FF9F
:1056D000C0F307238DF817008DF81830C0F3074387
:1056E000000E8DF81A000DF109008DF8193000F048
:1056F000D3FE6846CDE9006701F084F99DF81C30BF
:105700009DF81B10227B41EA03210131284607F056
:10571000B3F91420FEF7D5FF9DF81C309DF81B004F
:1057200040EA0320237B0130B0FBF3F203FB1200BD
:10573000C0F3072362798DF81C3023798DF81B00A4
:1057400043EA0223A27943EA0243E27953EA02637D
:105750009AD0002898D108F10108434594D80DF556
:10576000816DBDE8F08100BFA7DC20005202050179
:10577000C4DC200037B5144B1B786BB1684603F0CE
:10578000FBFBD0B1114B1860114B186820B1B0F57C
:10579000803F10D2FDF712FAFEF722FF4FF41C24CF
:1057A000456800680A22A0FB0401002304FB0511E0
:1057B000FCF764F806E08047EEE768460549FFF726
:1057C00023FD044803B030BDB1800020E8800020F4
:1057D0008C8100204C830020174B07B50A0A83F800
:1057E0005A1083F85B2039B904F0EAFBC0B250309C
:1057F000C0B203B05DF804FBCDE9001093F84B1084
:10580000FF290CD0684602F0AFF910F0FF0006D077
:105810000A4A13681B0443F034031360E7E7684641
:1058200003F0F8FD10F0FF00E3D0044A13681B04F6
:1058300043F03603F1E700BF64840020EC800020D1
:1058400070B51B4C1B4D6278237885F8570043EAEE
:105850000223A27885F8581043EA0243E27853EA1B
:1058600002630FD0637C207C40EA0320A37C40EAE3
:105870000340E37C50EA036004D0032205F15601A3
:1058800007F007F86378207840EA0320A37840EA1D
:105890000340E37850EA036009D0B0F5803F03D2BB
:1058A000BDE87040FDF78AB9BDE87040004770BDA3
:1058B000FC84002064840020034B93F8581093F874
:1058C0005700FFF7BDBF00BF6484002001230548D7
:1058D00080F85730044B24301B6880F8343002F0D5
:1058E0007DB800BF64840020E480002008B5014634
:1058F0000120FFF7A5FFBDE8084001F09FBD08B5F6
:10590000FFF7EAFA002008BDF0B5054689B010227D
:1059100000213F4806F0CAFF11220021284606F068
:10592000C5FF12F6E5F880F0010616F0FF0627D055
:1059300012F6F6F810F0FF040CD0364B50341B680A
:10594000E4B21B0443F05203324A1360002012F603
:10595000DBF825E012F600F810F0FF0007D02D4B21
:1059600050301B68C4B21B0443F05403ECE78DF8BD
:10597000040001A811F6DCFF9DF80430012BF8D0DB
:1059800001A811F6D9FF10F0FF040DD0214A1368C9
:105990001B0443F05C0350341360E4B2002ED5D1F5
:1059A00020462C7009B0F0BDFDF794FC184FC0F3F1
:1059B0000723E8702B71C0F30743000EA8716B71C9
:1059C000384603F0D1FB10F0FF0405D0114A1368EC
:1059D0001B0443F06003DEE7BDF80A306B72BDF8CC
:1059E0001630AB72BDF81E30EB72BDF81C302B7355
:1059F000BB796B733B79AB73BB7BEB733B7B6C709D
:105A00002B740423AB700123EB7105232B72C5E7C4
:105A1000DC840020EC8000202DE9F74F90F800A0F6
:105A20008146BAF1070F44D8437C012B41D84FF08F
:105A30001003DFF80C81009300F10103019398F843
:105A4000212098F820304FEA8A0B43EA022398F885
:105A5000222008EB8A0743EA024398F8232043EA0E
:105A600002634FF0010202FA0AF22DD11343354EC0
:105A7000C3F30722357888F8203088F8212095F084
:105A80000105C3F307424FEA136388F8222088F820
:105A900023301ED002F01FF910F0FF0417D02A4A5D
:105AA00013681B0443F0C80304F150001360C4B230
:105AB00006E03524244A13681B0443F0A403136052
:105AC000204603B0BDE8F08F23EA0203CFE70123AD
:105AD000337018F82A00D84498F8013040EA0320BF
:105AE00098F8023040EA034098F8033050EA036027
:105AF0000AD011F67DFF10F0FF0405D0124A13689A
:105B00001B0443F0CF03CFE799F811306A46012B0D
:105B100038460CBF0D490E4911F686FFC4B244B198
:105B2000094A50341368E4B21B0443F0DA031360EB
:105B3000C6E7002DC4D002F0D1F83470C0E700BF32
:105B400064840020F8800020EC80002080030101A4
:105B50000C10010107B5034600780F2809D935203C
:105B60000E4A13681B0443F0EC03136003B05DF8A6
:105B700004FB4FF40072013369460092019311F661
:105B8000FBFE10F0FF00F1D0044A50301368C0B2A1
:105B90001B0443F0F3031360E8E700BFEC80002030
:105BA00007B503780F2B09D93520104A13681B0459
:105BB00043F0FD03136003B05DF804FB4FF4807203
:105BC0000130019003F110006946C0B2009211F655
:105BD000D3FE10F0FF00EED0044A50301368C0B27C
:105BE0001B0443F482731360E5E700BFEC800020E0
:105BF000427808B5037843EA02238278C07843EA02
:105C0000024343EA006011F657FF002008BD10B5BB
:105C1000044611F64DFFC0F30723A370C0F30743FA
:105C2000E370030E60702371002010BDF8B50346C9
:105C300042790179C77941EA02218279007841EA03
:105C400002415A78DE7840EA02209A78084C40EA0D
:105C5000024040EA06601A7A41EA07612568FFF7C8
:105C600041F92068A84214BF05200020F8BD00BFFC
:105C7000E880002010B532220349044606F009FEF0
:105C80000020207010BD00BF8884002000000000AC
:105C900037B525A1D1E900011F4D95F82E3095F8B3
:105CA0002D4044EA032495F82F3044EA034495F844
:105CB000303044EA0364642394FBF3F422B25A4381
:105CC000164B64421A60D317FBF7D8FD144B1860CB
:105CD00004F082F9002395F82A20ADF8063095F8F3
:105CE0002930684643EA022395F82B20ADF804409A
:105CF00043EA024395F82C2043EA0263009304F040
:105D0000C3FD30B1074A503013681B0443F03A0317
:105D10001360C0B203B030BD64840020EC84002066
:105D2000F0840020EC80002000CA9A3B00000000B4
:105D30002DE9F341002503F0B9F803F0ADF803F0C5
:105D4000D5F8474B474F1D60FEF74AFCD0E9006885
:105D5000684603F011F9394604466846FFF754FADD
:105D60004FF41C21A6FB01060A2201FB0861002357
:105D7000FBF784FD3B4613F86869DFF8ECC093F845
:105D8000692093F86C7046EA022693F86A2083F83B
:105D9000685046EA024693F86B2046EA026693F89A
:105DA0006D20801B47EA022793F86E209CF8006064
:105DB00047EA024793F86F2047EA02679CF8012000
:105DC00061EB070146EA02269CF802209CF8057068
:105DD00046EA02469CF8042083F8706042EA0722F3
:105DE0009CF80670C6F3072E360C42EA074283F889
:105DF00072609CF807709CF8036042EA076783F8BA
:105E0000736083F87420C2F30726C2F3074283F855
:105E100076203A0E83F8772020F4FF7222F00102F8
:105E2000100A83F86900C2F30740120E83F86B2052
:105E3000C1F3072283F86A0083F86C1083F86D20A1
:105E4000E0B2C1F30742090E83F871E083F8756090
:105E500083F86E2083F86F1002B0BDE8F08100BFB8
:105E6000F4800020CC8400203083002070B5354CB5
:105E700086B094F84530FF2B13D1162200216846D6
:105E800006F014FD01A8FFF7C7FD40B12E4A1368C4
:105E90001B0443F0BB031360C0B206B070BD84F8AE
:105EA00045002A4D94F845602B786BB901F013FF3B
:105EB00040B1254B1B681B0443F0C503224A5030F8
:105EC0001360E9E701232B7006F0F003102B0ED1CD
:105ED000304601F03FFE014604EB860011F6ACFDB2
:105EE00028B1194B1B681B0443F0D303E6E794F871
:105EF000212094F8203043EA022394F8222043EA38
:105F0000024394F8232043EA0263F340DB0701D500
:105F10000020C1E714F8263004EB86046278E078AC
:105F200043EA0223A2780A4943EA024343EA0060B3
:105F300002F00EFF0028EBD0034B1B681B0443F05C
:105F4000D803BBE764840020EC800020F8800020A8
:105F5000D0DC200073B50E46694676B1103003F0F0
:105F600057F9054660B1434A503513681B0443F0A6
:105F7000EB031360E8B202B070BD03F01BF9F0E769
:105F80003D4CE3695A0773D40423A3602361D4F81A
:105F9000502160F34402C4F85021D4F8502160F33A
:105FA0008912C4F85021D4F8502160F3CD22C4F8EE
:105FB0005021D4F84C2163F30E32C4F84C21D4F8AC
:105FC0004C2163F3D132C4F84C21019BD4F84C111D
:105FD0005A7AC2F3021262F39441C4F84C11D4F815
:105FE0004C1162F35751C4F84C11D4F84C2142F0D3
:105FF0008062C4F84C21D4F84C2142F00062C4F80D
:106000004C21D4F84C2142F00042C4F84C211A68CB
:106010001989C4F840215A68C4F84421D4F84C21A5
:1060200061F30B02C4F84C21D4F8502142F0010274
:10603000C4F85021C6B99A8AD968C2F30B0218690C
:10604000920006F026FC019B1A690C4BD18893F84C
:106050005530B1F5006F03FB03F302D15B08D38029
:1060600002E0B1F5805FFAD0E3695B07FCD481E719
:10607000652080E7EC80002000100140648400204F
:1060800037B5294D012195F84600FFF763FF044617
:1060900040B1264A13681B0443F49B731360E0B2BB
:1060A00003B030BD95F8483001468DF805008DF8F5
:1060B000060001A88DF8043004F0B6FA044640B199
:1060C0001A4B1B681B0443F4A373184A5034136023
:1060D000E5E701F008FE70B195F84530FF2B0AD1D5
:1060E0002420FFF703FC114A1C2413681B0443F40B
:1060F000A5731360D3E795F847000028CFD0082890
:1061000010D928220A4B083802FB003004F094FB17
:106110000028C4D0054B04461A6840F2551343EAE0
:106120000243D2E75920BBE764840020EC800020C2
:1061300034E4200038B5204D002195F84C00FFF7DD
:1061400009FF044640B140F26B131C4A116843EA50
:1061500001431360E0B238BD01F0C5FD01280ED146
:1061600095F84530FF2B0AD12420FFF7BFFB134AD7
:106170001C2413681B0443F4BB731360EAE795F80F
:106180004D0090B1082815D928220D4B083802FB84
:10619000003004F01FFB40B1084A00F150041368BE
:1061A0001B0443F4C0731360D4E74FF6FF7001F093
:1061B0009CFDCFE75920CEE764840020EC800020CE
:1061C00054DD20002DE9F04F90F801B08146BBF17D
:1061D000010F8FB000F2DF8090F802A0BAF1140F27
:1061E00000F2D980C378012B009300F2D4800379A8
:1061F000012B00F2D0808379457945EA0325C379E4
:1062000045EA0345037A45EA03658F4B9D4200F258
:10621000C28090F822700F2F00F2BD8090F82330DA
:10622000332B019300F2B78090F92480B8F1780FF6
:1062300000F3B18090F82530012B00F2AC8090F88B
:1062400028600F2E00F2A78090F829302B2B0293A4
:1062500000F2A18090F82A30012B00F29C8090F887
:106260002D30022B00F2978090F82E3090F82F20DE
:1062700043EA02231BB2B3F5EB7F00F38C8090F866
:106280003120B02A00F28780704A9542C0F08D809C
:1062900018F1300FC0F2898013F5FA7FC0F28580C3
:1062A0006B4C494694F8253094F82A0094F829203C
:1062B0000D9342EA002294F8263094F82B000593BF
:1062C00042EA004294F8273094F82C00069342EA00
:1062D000006399F80A0099F80920079342EA00221E
:1062E00099F80B0042EA004299F80C0042EA006378
:1062F00094F82E0094F82D20089342EA002294F896
:106300002F0042EA004294F8300042EA0063099309
:1063100094F846303222039394F8473004F1240075
:106320000A9394F948300B9394F84C30049394F802
:106330004D300C9306F0ADFA0D9B9B4537D1059B74
:106340009A4506D0424B93F8260000283DD101F033
:10635000C0FC009B069A934208D03E4A99F803106D
:106360005369002934D043F400435361079B9D4295
:1063700003D1089B099A93422FD0354B93F857309D
:10638000022B56D1FFF784FC28B3334A13681B0451
:1063900043F0930305E035202F4A13681B0443F0B4
:1063A000650313600FB0BDE8F08F3620F4E72B4B88
:1063B0001B78002BC3D001F088FC94F8250000382E
:1063C00018BF012001F07EFCB9E701F080FCC0E7B6
:1063D00023F40043C9E7FFF7ABFC039B9F4206D1C0
:1063E000019B0A9A934202D10B9B98450DD0184B02
:1063F00093F85730022B1FD1FFF742FE28B1164AFF
:1064000013681B0443F09E03CBE7049B9E4216D007
:106410000F4B93F85730022B01D00020C2E7FFF753
:1064200089FE0028BED00C4A13681B0443F0A60363
:10643000B7E7039B9F42D3D0049B9E42EDD1029BC2
:106440000C9A9342E4D1E8E700127A0000A86100B8
:106450006484002000800040EC800020E280002066
:1064600037B50546684602F087FD10F0FF040BD0F3
:10647000084A50341368E4B21B0443F4CD7313602C
:1064800020462C7003B030BD6846691CFEF7BCFE88
:10649000F6E700BFEC8000200178437841EA032151
:1064A000B1F57F7F02D80230FFF796B935207047EB
:1064B00007B5064806F0E0FA054806F0DDFA03F0F5
:1064C00067FC044806F0D8FAFEE700BFD8DC2000DD
:1064D00007DD2000F5DC200007B502F0E3FD0648EB
:1064E00006F0CAFA054806F0C7FA03F051FC044862
:1064F00006F0C2FAFEE700BF0ADD200007DD20003B
:10650000F5DC200002F0CEBD02F0CCBDF8B50646A9
:106510000C46FEF765F80A2705463068D6F804C031
:10652000A0FB07014FF41C22002307FB0C11FBF713
:10653000A5F9D5E90023821A61EB0303611E042942
:106540000ED8DFE801F01503190D15000D4801798B
:10655000407941EA00210A318A4273F100010EDBE1
:1065600000200949914270EB030300DA3820F8BD9E
:1065700004488179C079ECE740F23121ECE7392019
:10658000F5E700BF08800020404B4C0008B50B49E0
:10659000002003F005FC0A49062003F001FC09492C
:1065A000072003F0FDFB08490A2003F0F9FBBDE8D2
:1065B00008400B20054903F0F3BB00BF0572200023
:1065C0000565200009652000D9642000B164200021
:1065D00008B5002003F0F4FB022003F0F1FB0420D7
:1065E00003F0EEFB072003F0EBFB092003F0E8FBD0
:1065F0000B2003F0E5FB062003F0E2FBBDE80840BA
:106600000A2003F0DDBB000037B5564C94F8573034
:10661000022B09D140F2FD131620534A116843EAB8
:106620000143136003B030BD012B08D040F20223B8
:106630004D4A6120116843EA01431360F2E74B4B76
:106640005A781878597940EA02209A78DD7840EA39
:1066500002401A7940EA056042EA0122997942EA49
:106660000142D97942EA016103F0B6FB11F658FA0A
:1066700010F0FF000AD03C4B1A6840F23E2343EA78
:106680000243394A50301360C0B2CBE794F825007A
:10669000003818BF012001F015FBC0B2242805D036
:1066A00020B1314B1A6840F24923E8E70123304A10
:1066B0001370304A1370FBF757FB11F64DF910F0C9
:1066C000FF0005D0284B1B681B0443F41473D8E764
:1066D0008DF803000DF1030011F62AF99DF803303F
:1066E000012BF7D0FFF752FFFFF7D2FA38B140F293
:1066F0005D231D4A116843EA0143136092E7FFF7E7
:1067000017FB20B1184B1A6840F25F23B7E7FFF779
:10671000ADFB20B1144A40F262231168EBE7FFF7AA
:1067200009FD20B1104A40F263231168E3E7FFF747
:10673000A7FC28B10C4A13681B0443F41973DCE767
:1067400002201121FFF77CF8022301A80193FFF733
:10675000A3FE00283FF466AF034A40F2712311689C
:10676000C9E700BF64840020EC800020088000207E
:10677000E2800020B18000200E4B93F85130012BB5
:106780000BD0022B0FD01BB9037823F00703037043
:1067900003786FF3C30303707047037823F0070394
:1067A00043F00303F3E7037823F0070343F0070301
:1067B000EDE700BF648400200E4B93F85130012BAD
:1067C0000BD0022B0FD01BB9037823F00703037003
:1067D00003786FF3C30303707047037823F0070354
:1067E00043F00303F3E7037823F0070343F00703C1
:1067F000EDE700BF6484002010B5154C94F85730C5
:10680000022B21D194F8593003BB0078B02808D965
:1068100040F2CD2335200F4A116843EA014313604B
:1068200010BD04F011FA10F0FF0009D040F2CF23A0
:10683000084A50301168C0B243EA01431360EFE7E1
:10684000082384F85930EBE77320E9E76520E7E790
:1068500064840020EC80002070B55C4D044695F8FF
:10686000573086B0022B40F0AD8095F85930002BA0
:1068700040F0AA8001F037FA00283BD095F842207A
:1068800095F8413095F8440043EA022395F84320F7
:106890004F4943EA024343EA006002F0D1FA10F0A4
:1068A000FF0009D04B4B1B681B0443F4AC63494AFF
:1068B00050301360C0B262E095F8422095F8413044
:1068C00043EA022395F8432043EA024395F8442023
:1068D00043EA026395F94A201344C3F3072285F87B
:1068E000413085F84220C3F307421B0E85F8432050
:1068F00085F84430049A95F84930520C03F00103AE
:1069000043F4FA63520413430493002303A8ADF83D
:106910001430FFF731FFACB162782378617943EA34
:106920000223A27843EA0243E27843EA026322792F
:1069300042EA0122A17942EA0142E17942EA016296
:1069400013430DD1002003A903F06AF9C0B2002857
:1069500034D0204B1A6840F27E5343EA0243A6E744
:1069600095F828306BB103212046FFF7CFFD40B1E9
:1069700040F27753174A116843EA0143136006B0A7
:1069800070BD00232078019302936378627940EA16
:106990000320A378E67840EA03402379E17943EACB
:1069A0000223A27940EA066043EA024343EA016116
:1069B00001AAFEF7B5FB03A901A8C5E7032385F8E3
:1069C0005930DCE77320DAE76520D8E764840020DB
:1069D000D0DC2000EC80002007B503F0D9F900F0EE
:1069E000030001280EBF0020024B93F8590003B0AA
:1069F0005DF804FB6484002008B5FFF7EDFF002874
:106A0000FBD108BD30B55D4A05465179137987B091
:106A100043EA01239179D27943EA014353EA0263BD
:106A200031D1FFF7E9FF564C94F85730022B40F074
:106A3000A28084F859304FF48062524B5A6001F0C2
:106A400052F9002843D094F8422094F8413094F849
:106A5000440043EA022394F843204B4943EA0243AB
:106A600043EA006002F0ECF910F0FF0011D0474A51
:106A70001268120442F43E724449503010F0FF0094
:106A80000A606AD154E0FFF7A7FF0028CBD0652049
:106A90004FE094F8422094F8413043EA022394F8FE
:106AA000432043EA024394F8442043EA026394F902
:106AB0004A201344C3F3072284F8413084F842206B
:106AC000C3F307421B0E84F8432084F84430049A31
:106AD00094F84930520C03F00103520443F064036C
