:020000040020DA
:10100000ACDC020F0104084900000000811C200034
:10101000E6BB59E540CE3EF3720DE686944F6098EC
:1010200000000000000000000000000000000000C0
:1010300000000000000000000000000000000000B0
:1010400000000000000000000000000000000000A0
:101050000000000000000000000000000000000090
:101060000000000000000000000000000000000080
:101070000000000000000000000000000000000070
:101080000000000000000000000000000000000060
:101090000000000000000000000000000000000050
:1010A0000000000000000000000000000000000040
:1010B0000000000000000000000000000000000030
:1010C0000000000000000000000000000000000020
:1010D0000000000000000000000000000000000010
:1010E0000000000000000000000000000000000000
:1010F00000000000000000000000000000000000F0
:1011000000000000000000000000000000000000DF
:1011100000000000000000000000000000000000CF
:1011200000000000000000000000000000000000BF
:1011300000000000000000000000000000000000AF
:10114000000000000000000000000000000000009F
:10115000000000000000000000000000000000008F
:10116000000000000000000000000000000000007F
:10117000000000000000000000000000000000006F
:10118000000000000000000000000000000000005F
:10119000000000000000000000000000000000004F
:1011A000000000000000000000000000000000003F
:1011B000000000000000000000000000000000002F
:1011C000000000000000000000000000000000001F
:1011D000000000000000000000000000000000000F
:1011E00000000000000000000000000000000000FF
:1011F00000000000000000000000000000000000EF
:1012000000900020811C2000D91C20000D1F200010
:101210001D1F20004D1F20005D1F20002D1F2000DE
:10122000000000000000000000000000D91C2000A9
:101230003D1F200000000000D91C2000D91C200008
:10124000D91C2000D91C2000D91C2000D91C20004A
:10125000D91C2000D91C2000D91C2000D91C20003A
:10126000D91C2000D91C2000D91C2000D91C20002A
:10127000D91C2000D91C2000D91C2000D91C20001A
:10128000D91C2000D91C2000D91C2000C9402000F6
:10129000A941200035442000D91C2000B53620008B
:1012A0004D472000D91C2000712E20004D38200011
:1012B000D91C2000AD372000D91C2000D91C2000EB
:1012C000D91C2000D91C2000D91C2000D91C2000CA
:1012D000D91C2000D91C2000E91C2000D91C2000AA
:1012E000D91C2000D91C20006D2B2000D91C200007
:1012F000D91C2000992B2000D91C2000C52B2000D0
:10130000F12B20001D2C2000FF1C2000151D2000AB
:10131000D91C2000D91C2000D91C2000D91C200079
:10132000D91C2000D91C2000492C2000D91C2000E9
:10133000D91C2000D91C2000D91C2000D91C200059
:10134000D91C2000D91C2000D91C2000D91C200049
:10135000D91C2000D91C2000D91C2000D91C200039
:10136000D91C2000D91C2000D91C2000D91C200029
:10137000D91C2000D91C2000D91C2000D91C200019
:10138000D91C2000D91C2000D91C2000D91C200009
:10139000D91C2000D91C2000D91C2000D91C2000F9
:1013A000D91C2000D91C2000D91C2000D91C2000E9
:1013B000D91C2000D91C2000D91C2000D91C2000D9
:1013C0004FF0FF0C1CEAD0521EBF1CEAD15392EA28
:1013D0000C0F93EA0C0F6FD01A4480EA010C400204
:1013E00018BF5FEA41211ED04FF0006343EA50105E
:1013F00043EA5111A0FB01310CF00040B1F5000FA0
:101400003EBF490041EAD3715B0040EA010062F14E
:101410007F02FD2A1DD8B3F1004F40EBC25008BF38
:1014200020F00100704790F0000F0CF0004C08BF56
:1014300049024CEA502040EA51207F3AC2BFD2F123
:10144000FF0340EAC250704740F400004FF0000331
:10145000013A5DDC12F1190FDCBF00F0004070476B
:10146000C2F10002410021FA02F1C2F1200200FAA9
:1014700002FC5FEA310040F1000053EA4C0308BF70
:1014800020EADC70704792F0000F00F0004C02BFC1
:10149000400010F4000F013AF9D040EA0C0093F03C
:1014A000000F01F0004C02BF490011F4000F013B96
:1014B000F9D041EA0C018FE70CEAD15392EA0C0F04
:1014C00018BF93EA0C0F0AD030F0004C18BF31F06F
:1014D000004CD8D180EA010000F00040704790F045
:1014E000000F17BF90F0004F084691F0000F91F0E9
:1014F000004F14D092EA0C0F01D142020FD193EAAF
:101500000C0F03D14B0218BF084608D180EA010036
:1015100000F0004040F0FE4040F40000704740F012
:10152000FE4040F44000704780F0004002E000BF01
:1015300081F0004142001FBF5FEA410392EA030FBE
:101540007FEA226C7FEA236C6AD04FEA1262D2EB08
:101550001363C1BFD218414048404140B8BF5B420D
:10156000192B88BF704710F0004F40F4000020F0A6
:101570007F4018BF404211F0004F41F4000121F0BC
:101580007F4118BF494292EA030F3FD0A2F1010206
:1015900041FA03FC10EB0C00C3F1200301FA03F144
:1015A00000F0004302D5494260EB4000B0F5000F67
:1015B00013D3B0F1807F06D340084FEA310102F126
:1015C0000102FE2A51D2B1F1004F40EBC25008BFD8
:1015D00020F0010040EA03007047490040EB0000A2
:1015E000013A28BFB0F5000FEDD2B0FA80FCACF1A3
:1015F000080CB2EB0C0200FA0CF0AABF00EBC250D0
:1016000052421843BCBFD0401843704792F0000FBD
:1016100081F4000106BF80F400000132013BB5E710
:101620004FEA41037FEA226C18BF7FEA236C21D086
:1016300092EA030F04D092F0000F08BF08467047EB
:1016400090EA010F1CBF0020704712F07F4F04D1B9
:10165000400028BF40F00040704712F100723CBFCC
:1016600000F50000704700F0004343F0FE4040F4F6
:10167000000070477FEA226216BF08467FEA2363B4
:101680000146420206BF5FEA412390EA010F40F49F
:10169000800070474FF0000304E000BF10F00043EB
:1016A00048BF40425FEA000C08BF704743F09643D2
:1016B00001464FF000001CE050EA010208BF7047ED
:1016C0004FF000030AE000BF50EA010208BF704774
:1016D00011F0004302D5404261EB41015FEA010C89
:1016E00002BF84460146002043F0B64308BFA3F181
:1016F0008053A3F50003BCFA8CF2083AA3EBC25363
:1017000010DB01FA02FC634400FA02FCC2F1200281
:10171000BCF1004F20FA02F243EB020008BF20F0B8
:101720000100704702F1200201FA02FCC2F120021E
:1017300050EA4C0021FA02F243EB020008BF20EA13
:10174000DC7070474FF0FF3C06E000BF4FF0010C2B
:1017500002E000BF4FF0010C4DF804CD4FEA40020B
:101760004FEA41037FEA226C18BF7FEA236C11D055
:1017700001B052EA530C18BF90EA010F58BFB2EB08
:10178000030088BFC81738BF6FEAE17018BF40F088
:10179000010070477FEA226C02D15FEA402C05D13C
:1017A0007FEA236CE4D15FEA412CE1D05DF8040BC1
:1017B000704700BF844608466146FFE70FB5FFF754
:1017C000C9FF002848BF10F1000F0FBD4DF808ED0C
:1017D000FFF7F4FF0CBF012000205DF808FB00BFFD
:1017E0004DF808EDFFF7EAFF34BF012000205DF857
:1017F00008FB00BF4DF808EDFFF7E0FF94BF0120A4
:1018000000205DF808FB00BF4DF808EDFFF7D2FFA0
:1018100094BF012000205DF808FB00BF4DF808EDE3
:10182000FFF7C8FF34BF012000205DF808FB00BFB0
:101830004FEA4002B2F1FE4F0FD34FF09E03B3EBDD
:1018400012620DD94FEA002343F0004310F0004F1D
:1018500023FA02F018BF404270474FF00000704773
:1018600012F1610F01D1420205D110F0004008BF12
:101870006FF0004070474FF0000070477BB972B9BD
:101880000029BEBF00204FF0004106E008BF00283D
:101890001CBF6FF000414FF0FF3000F057B8ADF1C2
:1018A000080C6DE904CE002909DB002B1ADB0AF0D5
:1018B000E5F9DDF804E0DDE9022304B070474042B9
:1018C00061EB4101002B1BDB0AF0D8F9DDF804E0E5
:1018D000DDE9022304B0404261EB4101524263EB77
:1018E00043037047524263EB43030AF0C7F9DDF844
:1018F00004E0DDE9022304B0404261EB410170479E
:10190000524263EB43030AF0B9F9DDF804E0DDE984
:10191000022304B0524263EB4303704753B94AB900
:10192000002908BF00281CBF4FF0FF314FF0FF30E7
:1019300000F00CB8ADF1080C6DE904CE0AF09EF988
:10194000DDF804E0DDE9022304B07047704700BF12
:10195000EC46A0E8F05F4FF000007047B0E8F05FA1
:10196000E546080008BF0120704700BF4FF4007330
:1019700010B5ADF5047D04AC01A9012001930394D9
:1019800015F6E2FF4F4B227E68461A70627E5A704F
:10199000A27E9A70E27EDA70626AC2F307211A723E
:1019A0005972C2F30741120EDA72A26A9972C2F337
:1019B00007211A735973C2F30741120EDA73E26AF0
:1019C0009973C2F307211A745974C2F30741120EB6
:1019D000DA74226B9974C2F307211A755975C2F330
:1019E0000741120EDA75626B9975C2F307211A76F8
:1019F0005976C2F30741120E9976DA76A26BC2F3DA
:101A000007211A775977C2F30741120EDA77E26B92
:101A10009977C2F3072183F8202083F82110C2F3BD
:101A20000741120E83F8232094F8402083F82210F7
:101A300083F8242094F8412083F8252094F842204C
:101A400083F8262094F8432083F82720227F1A71F8
:101A5000627F5A71A27F9A71E27FDA7194F8202036
:101A600083F8282094F8212083F8292094F8222054
:101A700083F82A2094F8232083F82B2094F84C2014
:101A800083F82C2094F84D2083F82D2094F84E20D4
:101A900083F82E2094F84F2083F82F2015F650FF5E
:101AA00003986946143005F09FFC002813BF0122FB
:101AB00000224FF0FF300020034B1A700DF5047D1B
:101AC00010BD00BFB6800020B480002070B54FF478
:101AD00000760546ADF5067D06AC03A90120039608
:101AE000059415F631FF01A901201695019602947F
:101AF00015F63AFF0DF5067D70BD70B54FF4007612
:101B00000546ADF5067D06AC03A9012003960594B4
:101B100015F61AFF01A9012019950196029415F6F0
:101B200023FF0DF5067D70BD70B54FF400760546B8
:101B3000ADF5067D06AC03A901200396059415F6C4
:101B400003FF01A901200E950196029415F60CFFE2
:101B50000DF5067D70BD70B54FF400760546ADF508
:101B6000067D06AC03A901200396059415F6ECFE4C
:101B700001A901200D950196029415F6F5FE0DF5CB
:101B8000067D70BD70B54FF400760546ADF5067D57
:101B900006AC03A901200396059415F6D5FE01A90C
:101BA00001200B950196029415F6DEFE0DF5067DDB
:101BB00070BD0000044B187800F00700831E032B53
:101BC00028BF0020704700BFB6800020044B187863
:101BD00000F00700831E022B94BFC0B2FF207047A5
:101BE000B6800020114B124A1B7843B9114B136089
:101BF0001068114B114AB0FBF3F313607047104BA0
:101C00001B7803F00703032B0CD0042B0CD0022B02
:101C10000C4B18BF00230C49136009780029E7D149
:101C20005B08E4E7094BF6E7094BF4E7E6800020A0
:101C300000800020E0F45002A08601000480002013
:101C4000B680002000F04902B5800020007519031D
:101C500000494A0307480849084A4FF0000380F347
:101C60000A8881F3098882F30B8883F3148800F0D3
:101C700007B80000008800200088002000880020AD
:101C800008B50D4A0D4B0E499A600E4B0E4A8B4219
:101C900009D300210D4B0E4A934209D30D4B186016
:101CA00000F0FCFAFEE752F8044B43F8044BEEE771
:101CB00043F8041BF0E700BF0012200000ED00E035
:101CC000B48000200080002008E92000B4800020BB
:101CD00008870020E880002008B502480AF0C4FB0D
:101CE000FEE700BFB4D52000684620F007018D460E
:101CF00001B506F053F8BDE80140854670476846D7
:101D000020F007018D4601B507F02CF8BDE8014031
:101D100085467047684620F007018D4601B502F000
:101D2000B9FB07F02FF8BDE8014085467047000079
:101D300080B483B000AF074B7B60074B7B60074BE1
:101D40007B60074B7B60074B7B6000BF0C37BD4659
:101D500080BC704771BC2000CD1A2000FB1A200007
:101D6000291B2000571B200070B5264C264D2368E8
:101D70002B6002F079FA0022244BC0F3072159743A
:101D8000C0F3074199741A7519785A759A75DA75FE
:101D90005A78187441EA02219A78000E41EA024109
:101DA000D8741A795879197242EA00229879C1F3E5
:101DB0000726090C42EA00429972D879D97842EA9A
:101DC0000060D9721A73C2F30721C2F307429A73F3
:101DD000020EDA735E725973FFF704FF2A682368F4
:101DE0009A420DD00A4B1B7853B10A4B1B68986876
:101DF0000AF06AF9BDE87040074B186802F026BC8B
:101E000070BD00BF00800020F480002040820020D0
:101E10007083002050800020748300201FB51A4C6E
:101E200023689A78A12A18D1002201921A7C597C41
:101E3000684642EA0122997C42EA0142D97C42EAA0
:101E4000016200924FF4041202921A7D5A7D9A7D2B
:101E5000DB7D8DF80C3003F001FA2268137A517A99
:101E600043EA0123917AD27A43EA014343EA0263C7
:101E700098472268137B517B43EA0123917BD27BF5
:101E800043EA0143F2E700BF1480002010B54FF48D
:101E90007A708AB002F0C9FA002410236946CDE9AD
:101EA00000340B4806AB029315F63EFE47F2305065
:101EB00001F0DCFE089B03A8B3F5041F08BF23460E
:101EC00003940594049303F021F80AB010BD00BFF9
:101ED0000010200044F6206300BF00BF00BF00BF19
:101EE000013BF9D1704740F2071307B50421ADF863
:101EF00004300A238DF806000DEB01008DF8073041
:101F000002F08BFDFFF7E6FF15F6FAFD684620F0BC
:101F100007018D46412008B5FFF7E5FF684620F030
:101F200007018D46422008B5FFF7DDFF684620F027
:101F300007018D46432008B5FFF7D5FF684620F01E
:101F400007018D46442008B5FFF7CDFF684620F015
:101F500007018D46452008B5FFF7C5FF08B5054BBD
:101F60005B8DD81000F0600003F00F031843FFF7FB
:101F7000BAFF00BF00ED00E02DE9704392B005F01C
:101F800093FAFFF7F3FCFFF72DFE07F00DFC02229A
:101F900001904FF00041104601F08AFEB04A1368EC
:101FA00063B14FF0E020D0F8FC1D43F0010341F095
:101FB0008071C0F8FC1D0021136051604FF00008D3
:101FC000002015F6D9FDCDF80880FFF7FFFDA54CE0
:101FD00002AA6178E5782070A078B1EB080118BFFB
:101FE00001210DF10A0340EA052005F08FFB9DF861
:101FF00008309D4EA3719DF809304FF00109E3713F
:102000009DF80A3023719DF80B30637106F00CFDCA
:1020100007F0EEFC404615F677FD042015F68CFD22
:1020200005F05FFB914B86F8008083F80080FFF796
:10203000C1FD05F049FBFF228D4BC3F83090C3F87A
:1020400050811A619A604FF000528A4B1A604FF02B
:1020500000621A604FF0E023D3F8182D864D42F04D
:102060000F02C3F8182DD3F8142D42F01002C3F854
:10207000142DD3F8242D42F4A022C3F8242D2B785C
:10208000002B00F0CA8018234FF40410089308A90D
:102090000CABCDF824800A9315F646FD04460028C3
:1020A00040F0BD804DF6AC43BDF830209A4240F080
:1020B000B8800D9B714A1BBA934240F2B4804A44E7
:1020C000934240F0B2809DF83230A02B11D14AF6F5
:1020D000DC430F9A9A420CD1694B1A68137A517AF1
:1020E00043EA0123917AD27A43EA014343EA026345
:1020F00098479DF83330032B0FD0072B40F0888092
:1021000003230393012303AC5E4804A904930594BD
:1021100015F626FD00286AD00324DFF86C81C8F884
:10212000004003F0B1F9D8F80030002B5CD0002358
:102130003370FFF719FE4FF4E13002F087FAD8F858
:10214000001052480AF090F92B78002B40F0848060
:1021500000F0B6F8082108A800F0D4F80AA815F68F
:10216000EFFB0A9B089A4A4853400A93099B83F065
:102170000F030B930AF078F9102208A8114602F019
:10218000A1FB02F039FB1F2851D9102200210CA815
:102190000AF084F8012502F03BFBC0B2A0F1300345
:1021A000DBB2092B47D81B01DCB202F031FBC0B215
:1021B000A0F13003DBB2092B46D81C4312AB03EB72
:1021C00065030235212D03F8184CE4D1DDE90E300A
:1021D000C01A0D9B58400C9BC01AFFF7D3FC02F0AD
:1021E000B1FC0020FFF752FE12B0BDE870834FF43F
:1021F000041303930423274806A9CDE9063415F6F2
:10220000AFFC0446002887D11098FFF7A4FC84E7B0
:10221000012B0CBF052404247FE708247DE7072455
:102220007BE7062479E74C4677E7022475E7089BAD
:1022300001330893A5E7A0F16103052BC6D8A0F1EF
:1022400057042401E4B2B0E7A0F16103052BBDD827
:1022500057380443E4B2B1E70F480AF005F9C0E784
:10226000001000E008800020E6800020B5800020FB
:102270000010014000E100E0B480002048080401A3
:1022800014800020030021001080002074D520005D
:1022900091D520000810200094D5200008B5FFF744
:1022A0006BFE064B186808B9FFF7B8FD04F040FF55
:1022B00004F03EFEFFF73CFD002008BD108000202A
:1022C00010B50C4C23788BB905F011FA70B10A4B9C
:1022D0000A4C1C600A4B186820B1B0F5803F03D24D
:1022E00000F036FC204610BD8047FBE70123237039
:1022F0000024F7E7FC800020EC80002001010A00A8
:1023000090810020104B10B51B7863B90F4B104C17
:102310001C60104B186820B1B0F5803F11D200F05E
:1023200017FC204610BD15F677FB04460028F8D0B0
:10233000152C084A054B0CBF074C084C10681C6054
:10234000E9E78047EDE700BFFC800020EC8000203B
:1023500003020A009081002001020A0002020A0022
:1023600073B516461C4DCDE900106A46284646F066
:1023700001011C4615F658FB152809D004D8C0B138
:10238000092812D0154C04E06828FBD1144C00E059
:10239000144C154B1C60154B186820B1B0F5803FEC
:1023A00005D200F0D5FB204614E0114CF1E7804740
:1023B000F9E7104A089B146193619DF8243053613A
:1023C0009DF81830D3609DF81C3093600A4B136061
:1023D0002B68536002B070BD2081002004050A0004
:1023E00003050A0001050A00EC800020908100200E
:1023F00002050A00248100204369503010B588B0DE
:10240000002404920422CDE90214CDE900100592C3
:1024100007936A46124B05A902A8069415F6E4FA3A
:102420001528044609D004D890B1092813D00D4CC2
:1024300004E06828FBD10C4C00E00C4C0C4B1C60F9
:102440000C4B186820B1B0F5803F06D200F080FB3D
:10245000204608B010BD084CF0E78047F8E700BF01
:102460002481002004070A0003070A0001070A006C
:10247000EC8000209081002002070A0073B5164608
:102480001C4DCDE900106A46284646F003011C4663
:1024900015F6CAFA152809D004D8C0B1092812D0F7
:1024A000154C04E06828FBD1144C00E0144C154B8B
:1024B0001C60154B186820B1B0F5803F05D200F0C4
:1024C00047FB204614E0114CF1E78047F9E7104A3A
:1024D000089B146193619DF8243053619DF8183076
:1024E000D3609DF81C3093600A4B13602B685360D7
:1024F00002B070BD0081002004060A0003060A0035
:1025000001060A00EC8000209081002002060A00EB
:10251000048100204369503010B588B002920493C2
:102520000422002301910392069305910790164B14
:1025300003AA01A905A815F63BFA1528044617D0E9
:1025400004D890B1092818D0104C12E06828104A1D
:10255000104B14D07D28F7D10F4C1460186820B1AF
:10256000B0F5803F0DD200F0F3FA204608B010BD60
:102570000A4C074B1C60074BF0E7094CF9E7094C84
:10258000EBE78047F1E700BF0481002004070A0061
:10259000EC8000209081002001080A0002080A0057
:1025A00002070A0003070A0030B5074C2160B2FA9F
:1025B00082F1257A490961F30005044925720B600F
:1025C000034B60601A7030BD188000202880002006
:1025D000248000201FB50024CDE90210174A01A96C
:1025E00002A8019415F690F9034680B9144B1B78A4
:1025F0001BB1019B93FAA3F30193124B1A6812B11A
:10260000019B53400193019C204604B010BD0E4A2B
:10261000092B10680D4A04D10D4B136030B900240A
:10262000F2E7172B0CBF0B4B0B4BF6E7B0F5803FD7
:1026300002D200F08DFAE7E78047E5E71880002036
:10264000248000202880002090810020EC80002041
:1026500002040A0001040A0003040A0005F04AB853
:10266000B0F5806F10B50ED34C4B4D4C1C604D4BEC
:10267000186820B1B0F5803F03D200F069FA204617
:102680000FE08047FBE711F0100F474B0AD0DA68E4
:1026900011290CBF02438243DA601A6802431A60B0
:1026A000002010BD1A68A1F1020C22EA00024C1EA3
:1026B0001A60DCF1000242EB0C0261426141C40588
:1026C00007D55C6862F300045C605C6861F34104F8
:1026D0005C60440608D5344B5C6862F382045C603D
:1026E0005C6861F3C3045C60030608D52E4B5C682C
:1026F00062F304145C605C6861F345145C608405FB
:1027000008D5294B5C6862F386145C605C6861F3F1
:10271000C7145C60C30708D5234B5C6862F30824C8
:102720005C605C6861F349245C60840608D51E4BDC
:102730005C6862F38A245C605C6861F3CB245C6053
:10274000C30608D5184B5C6862F30C345C605C68A7
:1027500061F34D345C60840708D5134B5C6862F309
:102760008E345C605C6861F3CF345C60030708D52D
:102770000D4B5C6862F310445C605C6861F351442B
:102780005C6010F004008CD0074B586862F39240F4
:1027900058605A6861F3D3425A6081E7EC800020A8
:1027A000010102009081002000800040B0F5806FA0
:1027B00010B50CD3104C114B1C60114B186820B194
:1027C000B0F5803F0AD200F0C3F9204610BD0D4B92
:1027D0001A6830EA020203D00B4CECE78047F4E7BA
:1027E000DA6801290CBF104382434FF000040CBF8C
:1027F000D860DA60E9E700BF01010200EC80002048
:10280000908100200080004002020200B0F5806F3D
:1028100008B50ED30A4B0B4A1A600B4B186828B147
:10282000B0F5803F03D200F093F9002008BD804747
:10283000FBE7064B9B68184214BF01200020F5E718
:10284000EC80002001010200908100200080004007
:102850002DE9F04F9D4B04461B78ADF5097DCBB9B2
:102860009B4E3578B5B904F042FF88B1994B9A4A2E
:102870001A609A4B186828B1B0F5803F06D200F074
:1028800067F928460DF5097DBDE8F08F8047F8E728
:1028900001233370924D2B6823B9072C02D80820EE
:1028A000FFF7D6FF102200210DEB020009F0F6FC25
:1028B00004F00F038DF81030012304A8059307F0EE
:1028C0005BF9082C14D1DDE906134FF4C370854A77
:1028D0002B601160844A5A4300FB01228348026046
:1028E000834A5343D22202FB0133824A1360C9E771
:1028F000032C0DD87D4A069B10684FF4436202FBFF
:102900000300784B2A681B689B1A90FBF3F0B9E729
:10291000072C1FD011D8052C16D9062CB2D16FF078
:1029200008012A686F4B4A431B68079806991844A8
:1029300010440B4480021344E7E7162C00F0BF80DC
:10294000172C9FD106989DE76A4A069B10684FF4A2
:10295000D262D4E7684D2B68002B40F08E804FF494
:10296000007308AC01A913200193039414F6ECFF43
:102970009DF83D319DF83C211B0203F44073134345
:10298000642242F2F67A53432B609DF841519DF840
:1029900040112D0205F440750D43554357499DF8EC
:1029A00045610D6036029DF8441106F440760E43F1
:1029B00056434C4A52481468494A761BD2F8009054
:1029C000EA1AA4EB09014A434E4302604FEAE47855
:1029D000BAEB030000FB08FC4A494FEAE97B0E60B2
:1029E0004FEAE37161EB410704FB07CCA0FB04074E
:1029F000BC44454FFB1A03FB0BFE61EB410109FB95
:102A000001E1A3FB09E3B0EB0E0019446CEB010CF0
:102A10003E49D317A0FB010E01FB0CE1FEF72EFF90
:102A20003B4BA0F51C404038BAEB050A18604FEA52
:102A3000E57363EB43027F1B07FB0BFB63EB430375
:102A40000AFB08F109FB03BBAAFB040AA7FB0979EF
:102A500004FB02112F4CC01BA0FB04055144CB44C6
:102A600061EB0B01F317324604FB0151FEF706FF41
:102A7000294B00F5EA4030301860204B06981B685F
:102A8000C11783420EDA254C1D4B04FB0101A0FB4C
:102A900004041A682144D317FEF7F0FE1C4B1B6890
:102AA0001844EFE61E4C174B04FB0101A0FB040485
:102AB0001A682144D317FEF7E1FE174BEFE707989A
:102AC000069B8002B0FBF3F0DCE600BFB58000207F
:102AD000FC800020EC800020010402009081002096
:102AE00040810020448100204AF2FFFF5C810020E9
:102AF0009EF8FFFF58810020648100206081002043
:102B00005081002054810020A6670100701101004F
:102B100048810020F82401004C810020008D76556A
:102B20008072DA6D054B1A6812B9012282F310889F
:102B30001A6801321A601868704700BFA48100202B
:102B4000024A136823EA000313607047948100204F
:102B5000044B1A681368034313600022024B1A7077
:102B6000704700BF2C800020A8810020684620F01C
:102B700007018D46074B01B5186820B1B0F5803FBD
:102B800005D2FFF7E5FFBDE8014085467047804765
:102B9000F9E700BFCC810020684620F007018D4690
:102BA000074B01B5186820B1B0F5803F05D2FFF79B
:102BB000CFFFBDE80140854670478047F9E700BF79
:102BC000C4810020684620F007018D46074B01B5FF
:102BD000186820B1B0F5803F05D2FFF7B9FFBDE816
:102BE0000140854670478047F9E700BFC08100205B
:102BF000684620F007018D46074B01B5186820B1E3
:102C0000B0F5803F05D2FFF7A3FFBDE80140854640
:102C100070478047F9E700BFC8810020684620F070
:102C200007018D46074B01B5186820B1B0F5803F0C
:102C300005D2FFF78DFFBDE801408546704780470C
:102C4000F9E700BFBC810020684620F007018D46EF
:102C5000074B01B5186820B1B0F5803F05D2FFF7EA
:102C600077FFBDE80140854670478047F9E700BF20
:102C7000D0810020B0F5806F03462DE9F0416DD280
:102C80006548006818400DD0644C654B1C60654B6E
:102C9000186828B1B0F5803F80F0BB80FFF758FF7F
:102CA000204659E0604F3C78052C15D95F4CECE785
:102CB00008FB05EC9CF804609CF805C046EA0C266D
:102CC0009E4201D15A4CE0E70135AC42F0DCD5B26E
:102CD000012D07D9574CD8E705464FF00608DFF815
:102CE00058E1F2E70626651C7443EDB23D70524F81
:102CF000012A07EB04063955474AC1F307247470CB
:102D0000C1F307444FEA1161F170D16933714FEAA1
:102D1000132C0CBF0B4321EA030386F805C0B470E3
:102D2000D361002306261A4606FB027421796479D2
:102D3000013241EA0421954243EA0103F4DC364AB8
:102D4000012DC2F8E43F4FF0FF33C2F8F03F03D14A
:102D50004FF08062394B1A60BDE8F081B0F5E04F6A
:102D600033D016D8B0F5804F4FD00AD8B0F5005FF9
:102D700047D0B0F5405F46D0B0F5805F3FD0304CD3
:102D800083E7B0F5A04F42D0B0F5C04FF7D12D4B3F
:102D900020E0B0F5204F26D00BD8B0F5004F1CD066
:102DA000B0F5104FEBD14FF40042244B5A60264B44
:102DB00010E0B0F5304F1CD0B0F5404FDFD14FF0F0
:102DC00080621E4B5A60214B04E04FF480621B4B23
:102DD0005A601F4B00201960BEE74FF40052174B9A
:102DE0005A601C4BF6E74FF48032144B5A601A4B72
:102DF000F0E74FF40032114B5A60184BEAE7094BE9
:102E0000E8E7174BE6E7174BE4E7174BE2E7174B0A
:102E1000E0E7804744E700BF008000400201050072
:102E2000EC800020908100208C81002003010500AF
:102E300005010500040105006881002000E100E0B3
:102E400001010500B8810020C0810020D081002050
:102E5000CC810020C4810020C8810020BC810020DA
:102E6000A0810020AC810020B4810020B08100202E
:102E7000684620F007018D462DE9F9414FF0000822
:102E800006271C4B1C4DD3F8EC6F1C4C2B7843458C
:102E900010DC4FF0FF32174BC3F8F02F184B1868B7
:102EA00020B1B0F5803F23D2FFF752FEBDE8F941D3
:102EB0008546704707FB08F163181A79587942EA8A
:102EC000002232420FD05A78605C40EA02209A78A1
:102ED000DB7840EA024050EA036004D0B0F5803F5E
:102EE00004D2FFF735FE08F10108CFE78047FAE783
:102EF0008047DBE7008000408C8100206881002053
:102F0000A0810020B0F5806FF8B53AD200240622E7
:102F10004A4D4B4E2B78A3420DDC4A4C4A4B1C6069
:102F20004A4B186828B1B0F5803F80F08580FFF7E4
:102F30000FFE204622E002FB046C9CF804709CF813
:102F400005C0611C47EA0C27874218D151431B1B5F
:102F5000013B881F5A433144304409F092F92878E4
:102F60000138C0B22870002848D14FF08062384B39
:102F7000C3F88020BFF34F8FBFF36F8FF8BD0C46AF
:102F8000C9E7B0F5E04F30D017D8B0F5804F4DD03D
:102F90000AD8B0F5005F43D0B0F5405F43D0B0F53C
:102FA000805F39D02B4CB9E7B0F5A04F41D0B0F5D8
:102FB000C04FF7D10020284B30E0B0F5204F23D090
:102FC00009D8B0F5004F1BD0B0F5104FEAD14FF43F
:102FD00000421F4B0CE0B0F5304F19D0B0F5404F18
:102FE000E0D14FF080621A4B02E04FF48062184B40
:102FF000C3F88420BFF34F8FBFF36F8F0020BDE76E
:103000004FF48052124BF3E74FF48032104BEFE74E
:103010004FF400320E4BEBE700200C4B1860ADE78D
:1030200000200E4BFAE700200D4BF7E700200D4B78
:10303000F4E700200C4BF1E780477AE78C81002011
:103040006881002001020500EC80002090810020B2
:1030500000E100E001010500B8810020A08100200E
:10306000AC810020B4810020B08100200E4B10B54F
:103070001A6882420ED00D4B0D4C1C600D4B186827
:1030800020B1B0F5803F03D2FFF762FD204610BDAE
:103090008047FBE71A68013A1A601B6813B983F38B
:1030A0001088F4E70020F2E7A4810020EC800020E3
:1030B000010305009081002010B50024064A07484E
:1030C0001168074B81420BBF0868106013601868D5
:1030D0000CBF0C601C6010BD2C800020988100206B
:1030E0009C81002001230F4970B40F4A0B700F4DD3
:1030F0000F4B6E681B68146860B1642243435343EE
:103100000022087858B1206848B99A4207D26A6804
:10311000921BF6E70B7813B12368002BFAD070BC32
:10312000FFF7CABFA88100202C800020001000E01B
:103130000480002038B50D1A044609F0DBF9054A71
:10314000136810600344B3FBF5F105FB1133181944
:1031500038BD00BFD481002009F09EB902464FF06F
:103160008043934205D800202BB9824288BF0130AA
:1031700070479B08F5E7C11891429CBF00EB4300E4
:10318000521A40089B08EFE707B501A814F6D8FBD0
:10319000019800BA03B05DF804FB00001FB50023DE
:1031A0000293042305480DEB03010193CDF80CD0E5
:1031B00014F6BAFC009805B05DF804FBFCFB200097
:1031C000074A92F82D1092F82C3092F82F0043EA1B
:1031D000012392F82E1043EA014343EA006070474E
:1031E000B6800020074A92F8291092F8283092F809
:1031F0002B0043EA012392F82A1043EA014343EAF1
:1032000000607047B6800020544B03215A6922F0B9
:103210000E025A615A6942F00E025A610122504B65
:103220001A60504B1A6399601961D3F810116FF34B
:103230004401C3F81011D3F810116FF38911C3F8CA
:103240001011D3F8101162F3CD21C3F81011D3F887
:10325000101141F40041C3F81011D3F80C1141F0E2
:103260000041C3F80C11D3F80C1141F08061C3F890
:103270000C11D3F80C116FF3DB61C3F80C11D3F808
:103280000C116FF31861C3F80C11D3F80C1141F055
:103290000071C3F80C11D3F80C116FF3D131C3F8DE
:1032A0000C11D3F80C116FF30E31C3F80C11D3F8D5
:1032B0000C116FF35751C3F80C11D3F80C116FF3C5
:1032C0009441C3F80C11D3F8301162F34401C3F8F0
:1032D00030110221D3F830216FF38912C3F8302165
:1032E000D3F8302161F3CD22C3F83021D3F82C215B
:1032F00042F00042C3F82C21D3F82C216FF39A62DC
:10330000C3F82C21D3F82C2142F00062C3F82C2101
:10331000D3F82C2142F08072C3F82C21D3F82C2151
:103320006FF35962C3F82C21D3F82C216FF3D132FB
:10333000C3F82C21D3F82C216FF30E32C3F82C21C3
:10334000D3F82C216FF35752C3F82C21D3F82C213A
:103350006FF39442C3F82C21704700BF00800040F7
:10336000DC810020001001401B4BB3F800246FF3F8
:103370000002A3F80024D3F8F82F22F00202C3F8C9
:10338000F82F0222C3F8F82F144A11684A074BBFDE
:10339000134AB3F80C24126842F0100245BFC3F878
:1033A00024240322A3F80C24C3F8082E4FF44C3233
:1033B000C3F80014C3F8002E4FF0FF320721C3F802
:1033C000042ED3F8202461F31B62C3F820240422C6
:1033D000C3F80424704700BF00000140DC810020D6
:1033E000E08100202B4B01071A6810B422F44E72C2
:1033F00048BF42F020021A60420748BF1A684FEAED
:10340000102444BF42F010021A60C1075EBF1A6860
:1034100042F008021A60C20642BF1A6842F44072C3
:103420001A601A6824B31C4942F0040209681A6041
:10343000B1FBF4F14FF47A74B1FBF4F1174C216055
:10344000410641BF16494A6942F001024A6102063B
:1034500041BF13494A6942F4C0224A611B685B07B5
:1034600003D44FF400020F4B1A6010BCFFF77CBF6F
:1034700022F004021A600A4A116821F00201116068
:10348000516864F38E315160516864F3CF315160FB
:10349000D6E700BFDC81002000800020E081002012
:1034A0000080004000E100E00E4B0F4A1868D2F89F
:1034B0002C31C0F30B0019010ED4D2F80C31D2F824
:1034C0001021C3F30B03920300D50133074A12887E
:1034D000801AC01A80B27047D2F82C31C3F30B03A4
:1034E000F4E700BFE481002000100140E8810020E3
:1034F0002DE9F0415C4F0D463B781646DFF86C81B4
:10350000BBB95B4B5B4C1868D8F8003013F0040F64
:1035100008BF594A594B08BF12781C6020B1B0F55A
:10352000803F04D2FFF714FB5248BDE8F08180478A
:10353000FAE70023504A524C1370D4F8102192033A
:103540001FD5D4F8102163F38E32C4F81021D4F8BB
:10355000102163F3CF32C4F81021D4F8102142F4C3
:103560008022C4F81021D4F8102163F39242C4F8E9
:103570001021D4F8102163F30002C4F81021FFF7E2
:10358000F3FE03233F4AC6F30B061660A3602361D4
:10359000D4F80C3100285BD160F39A63C4F80C3185
:1035A000394B18701846D4F82C31002D55D165F3DD
:1035B000DB63354DC4F82C3100233B70334BC4F82A
:1035C0000001C4F804311168D4F80C3161F30B0325
:1035D000C4F80C312E4BC4F82031C4F824511268C1
:1035E000D4F82C3162F30B03C4F82C31D4F8103129
:1035F00043F00103C4F81031D4F8303143F0010333
:10360000C4F83031D8F8003013F0040304BF214A65
:103610001380214B1B682BBB3B78002BFCD0D4F8CC
:10362000300110F00100FAD11C4BD3F8202460F3D4
:103630001452C3F82024B3F8002460F30002A3F866
:103640000024B3F8002442F00102A3F800246CE740
:1036500043F08063C4F80C31A5E743F00063C4F87D
:103660002C31A9E7002060E730800020DC810020B9
:10367000908100200105070031800020EC800020AF
:1036800000100140E4810020D88100201C0401408A
:1036900014040140E8810020B481002000000140B2
:1036A0000A4601460020FFF723BF0A460021FFF724
:1036B0001FBF0000684620F007018D4601B5344B5E
:1036C000D3F82824D20620D50121324A11704FF0B8
:1036D000FF32C3F80824B3F8102442F01002A3F814
:1036E0001024B3F80C246FF30412A3F80C24B3F8DD
:1036F0000C2442F02002A3F80C24274B186820B1B8
:10370000B0F5803F3ED2FFF723FA214BD3F828349F
:103710009B0633D500211F4B1970204BD3F8302165
:1037200061F30002C3F8302101221D4B1A701D4BBA
:10373000186820B1B0F5803F26D2FFF709FA4FF0A4
:10374000FF32134BC3F80824B3F8102442F02002D0
:10375000A3F81024B3F80C246FF34512A3F80C243B
:10376000B3F80C2442F01002A3F80C240E4B186896
:1037700020B1B0F5803F09D2FFF7EAF9BDE801407A
:10378000854670478047C0E78047D8E78047F5E720
:103790000000014031800020B08100200010014075
:1037A00030800020B8810020B4810020684620F0DD
:1037B00007018D46FF22204919B5204B8A60D3F8B6
:1037C000280408B1C3F810241D4B1B685B072DD5D6
:1037D0001C4C237853BB194BD3F8202442F480129D
:1037E000C3F82024184A1068F0B1D1F8302112F043
:1037F0000102FAD1D3F82014B0F5803F62F31451DE
:10380000C3F82014B3F8001462F30001A3F8001405
:10381000B3F8002442F00102A3F800244FF00103A2
:10382000237007D2FFF794F901232370BDE81940F4
:10383000854670478047F7E70010014000000140CF
:10384000DC81002030800020B4810020684620F018
:1038500007018D46FF2201B5024BBDE801409A6089
:103860008546704700100140034A536923F4C02382
:1038700023F001035361704700800040104BD3F8E0
:10388000F82F22F00202C3F8F82FB3F800246FF3E8
:103890000002A3F8002400220A4B1A600A4A536966
:1038A00023F4C02323F00F0353614FF40002074BAE
:1038B000C3F88020BFF34F8FBFF36F8F704700BFF7
:1038C00000000140DC8100200080004000E100E0B9
:1038D00070B505460C4640EA010630460121FEF768
:1038E000BFFE044B044A1D805C80D36823EA0603B4
:1038F000D36070BDEC81002000800040034B0121AB
:1039000018885B88184380B2FEF7AABEEC810020BD
:103910000C480D4A38B5116843880C4D21EA030163
:103920001160806894681C4001D0012008E069683B
:10393000411AB1F1804FF5D9204600F009F8204630
:1039400038BD00BFEC81002000800040001000E086
:1039500038B500230F4D104C6B71104B6A885B68B3
:1039600003F5671303F56F53AB602B88216813438E
:103970000B43236020B1FFF7CBFF20B9FE2008E006
:1039800023EA0203236000202A88236823EA020333
:10399000236038BDEC81002000800040001000E072
:1039A0002DE9F04106460827DFF88C80234DD8F832
:1039B0000430234C03F5671303F56F53AB602368A2
:1039C0006A88310642EA03022B884CBF22EA0303CD
:1039D00013432360FFF79CFF10B9FE20BDE8F08180
:1039E00076006B88A968F6B2A2681A421AD0013F25
:1039F00017F0FF07E3D1226813432A8823EA020362
:103A00002360FFF785FF0028E7D02A88A3681A42C1
:103A100014BF4FF0FF3000206A882368C0B2134300
:103A20002360DBE7D8F804208A1AB2F1804FDBD993
:103A30000120FFF78DFFD0E7001000E0EC810020AF
:103A40000080004038B50A4C0A4D23682A880420BB
:103A50001343236000F0D5FC6A88236804201343D5
:103A6000236000F0CEFC2879BDE83840FFF798BF0E
:103A700000800040EC81002038B50F4B0F4C5B6894
:103A80000F4D03F5671303F56F53A3602A6863882E
:103A90001343228823EA02032B60FFF739FF40B16A
:103AA00022882B6813432B602079BDE83840FFF74C
:103AB00077BFFE2038BD00BF001000E0EC81002081
:103AC000008000402DE9F843154D1F466B794000FA
:103AD00089469046287153B1FFF7CEFF044648B19E
:103AE000AFB10120FFF734FF60B2BDE8F883FFF704
:103AF000A9FFF3E70646F2B24245F1D219F80200F7
:103B0000FFF74EFF01360028F5D00446E8E7054AE6
:103B1000298813680B43136001236B71E4E700BF2E
:103B2000EC810020008000402DE9F8430023064688
:103B30000F460824DFF8B4800370D8F804302C4D09
:103B400003F5671303F56F53DFF8A890AB60337884
:103B50005B003370D9F800206B8813432A8823EA6E
:103B60000203C9F80030FFF7D3FE68B9FE242046EF
:103B7000BDE8F883D8F804208A1AB2F1804F05D93D
:103B80000120FFF7E5FEF1E76B88A968D9F8082066
:103B90001A42EFD0D9F808102A88013C11421EBF02
:103BA000317841F00101317014F0FF04CFD1114997
:103BB0000868034357B113430B60FFF7A9FE0028C1
:103BC000D4D06988A8680B4B084D07E023EA0203AC
:103BD000F2E76A68821AB2F1804FD1D89A680A4235
:103BE000F7D01A680A431A60C1E700BF001000E06E
:103BF000EC810020008000402DE9F843194D1F465C
:103C000040006B7940F00100884616462871C3B128
:103C1000FFF732FF0446B8B906F1FF39E0B2B0420F
:103C200013D2B9EB000118BF01214044FFF77CFF1C
:103C300090B10D4A29881368044623EA01031360F2
:103C400003E0FFF7FFFEE5E700243FB10120FFF7A7
:103C50007FFE20B2BDE8F8830134DFE701236B71FA
:103C6000F7E700BFEC8100200080004013F684BF1E
:103C7000012383F31088054A92F84C3043F0010386
:103C800082F84C30002383F31088704700C0004056
:103C90000122034BC3F8E82FC3F8D82F704700BFA9
:103CA00000C00040014B1878704700BF38820020E8
:103CB00030B50124394B8440E4B2C3F8E84F0D46D7
:103CC000596D022A21EA0401596502BF596D214349
:103CD0005965C3F8D84F03285CD8DFE800F0021F0D
:103CE00033474FF400212E4BC3F88010BFF34F8FA2
:103CF000BFF36F8F19600120284B93F8741060F3A5
:103D0000070183F87410002A46D1264A5168691ABF
:103D100078391960214BC3F8DC4F30BD4FF4801166
:103D20001F4BC3F88010BFF34F8FBFF36F8F196025
:103D300001201A4991F8783060F3070381F8783050
:103D4000194BE0E74FF40011154BC3F88010BFF397
:103D50004F8FBFF36F8F19600120104991F87C30AD
:103D600060F3070381F87C30104BCCE74FF48001FF
:103D70000B4BC3F88010BFF34F8FBFF36F8F1960E9
:103D80000120064991F8803060F3070381F8803004
:103D9000074BB8E70023B6E71D60BBE700C0004053
:103DA00000E100E0001000E010C0004020C0004032
:103DB00030C000402DE9F843484F3B78072B0DD920
:103DC000474C484B1C60484B186820B1B0F5803F09
:103DD0000ED2FEF7BDFE2046BDE8F883434BD3F874
:103DE00004C0A0EB0C0EBEF1E06F6DD9404CE8E7CB
:103DF0008047F0E703F1FF3C06EBCC0E9EF8018014
:103E000016F83C5045EA08259EF8028045EA084528
:103E10009EF80380C5F3072906F8335006EBC30369
:103E20002D0C83F801909D7083F803809EF8058027
:103E30009EF8045045EA08259EF806809EF807E0A3
:103E400045EA08451D71C5F307282D0C83F8058048
:103E50009D7183F807E05FFA8CF318E001343B783A
:103E6000E200A34215DDB51895F805802B7943EAE9
:103E7000082395F80680ED7943EA084343EA056391
:103E8000A3EB0C039E45E9D23B780133DBB2A3429E
:103E9000B0DC3244C0F307235371C0F3074393717E
:103EA000030ED371C1F3072306F834105370C1F326
:103EB000074393703B78090E0133DBB21071D17068
:103EC0003B7024B1002486E700240A4EC7E7014670
:103ED00022462046FFF7ECFE7DE700BF3882002037
:103EE00001040400EC80002090810020001000E01C
:103EF00001050400F8810020F8B51D4B05461B683C
:103F00000F4616460BB100F06BF91A4C637C207C0F
:103F1000627D40EA0320A37C40EA0340E37C40EA60
:103F20000360237D2D1A43EA0223A27D43EA024364
:103F3000E27D43EA026367EB03070F4B0A2219682D
:103F40000023A5FB010501FB0751FDF7E7FC627AA1
:103F5000237A314643EA0223A27A43EA0243E27A11
:103F600043EA02631844BDE8F840FFF723BF00BFEF
:103F70000084002040820020048000200A464FF484
:103F80007A71A0FB0101FFF7B7BF0000F8B5204C24
:103F9000154694F8683094F8692094F86D6043EA07
:103FA000022394F86A2043EA024394F86B2043EA20
:103FB000026394F86C20C01A42EA062294F86E60FC
:103FC000144B42EA064294F86F6042EA066261EBE3
:103FD000020619684FF41C22A0FB0107002301FB15
:103FE0000671FDF79BFC94F8712094F87030294617
:103FF00043EA022394F8722043EA024394F87320C0
:1040000043EA02631844BDE8F840FFF7D3BE00BF9F
:104010007883002004800020094B10B50C461968F5
:104020000A220023A0FB0101FDF778FC054B0146A5
:104030001C600222BDE810400120FFF739BE00BF1E
:10404000048000203C8200204FF47A735843FFF72D
:10405000E3BF00000023064A1370064A1370537032
:104060009370D3704FF40022034BC3F88021704744
:1040700038820020F881002000E100E00022074B98
:104080001A604FF48012064BC3F88020BFF34F8FA5
:10409000BFF36F8FC3F88021704700BF3C820020C0
:1040A00000E100E008B5FFF7D5FFFFF7E7FF4FF4A9
:1040B0000022044BC3F88020BFF34F8FBFF36F8FF4
:1040C00008BD00BF00E100E0684620F007018D4612
:1040D0000122F1B5314B324CC3F8E82F20786378D8
:1040E00040EA0320A37840EA0340E37850EA036003
:1040F00022D02C4DB0F5803F2B7803F1FF33DBB29B
:104100002B701DD2FEF724FD00202A78C3B2934203
:1041100018D32A7802F0FF03002A3AD06279237973
:10412000E17943EA0223A27943EA0243002243EA07
:1041300001611046FFF7BCFDBDE8F14085467047C0
:104140008047E1E75A1C14F8321004EBC20256789B
:10415000013041EA0621967841EA0641D678C1F35A
:10416000072704F8331004EBC303090C5F70997040
:10417000DE705679117941EA06219679D27941EAC1
:104180000641C1F307261971090C5E719971DA7144
:10419000BBE723706370A370E370CDE700C00040FD
:1041A000F881002038820020684620F007018D4603
:1041B0000222094B01B5C3F8E82F084B186820B15B
:1041C000B0F5803F05D2FEF7C3FCBDE8014085464F
:1041D00070478047F9E700BF00C000403C820020E4
:1041E0001E4B70B55A7818781D4D40EA02209A7817
:1041F000296840EA0240DA781C7A40EA0260194AEB
:10420000411A12685E7BB1FBF2F15A7A44EA022449
:104210009A7A44EA0244DA7A44EA02641A7B091977
:1042200042EA06229E7BC1F3072442EA0642DE7B75
:10423000197242EA066242F100025C72C1F307445D
:10424000090ED972C2F307211A735973C2F30741D9
:10425000120E9C729973DA73286070BD4082002040
:104260005882002004840020274B70B55B68274CDF
:10427000C3F30721DDB2C3F30742257045EA0125E8
:104280001B0E45EA024545EA0365A270E3706279B8
:104290002379617043EA0223A279617B43EA0243F6
:1042A000E27943EA0266627A237A43EA0223A27A37
:1042B00043EA0243E27A43EA0263227BED1A42EACE
:1042C0000122A17B124B42EA0142E17B1B6842EAD8
:1042D000016266EB02060BB1FFF782FF0A21A5FB24
:1042E00001050C4B01FB06511A680023FDF716FB74
:1042F000627C237C43EA0223A27C43EA0243E27C01
:1043000043EA0263184470BD001000E040820020C0
:1043100000840020048000202F4B70B55B682F4C78
:10432000C3F30721DDB2C3F30742257045EA012537
:104330001B0E45EA024545EA0365A270E370627907
:104340002379617043EA0223A279617B43EA024345
:10435000E27943EA0266627A237A43EA0223A27A86
:1043600043EA0243E27A43EA0263227BED1A42EA1D
:104370000122A17B1A4B42EA0142E17B1B6842EA1F
:10438000016266EB02060BB1FFF72AFF0A21A5FBCB
:104390000105144B01FB06511A680023FDF7BEFA14
:1043A000637C227C657D42EA0322A37C42EA0342CD
:1043B000E37C42EA0362237D821843EA0523A57D5C
:1043C000E47D43EA0543084843EA046343EB010301
:1043D000C0E9002370BD00BF001000E04082002053
:1043E00000840020048000206082002008B5FFF7D0
:1043F00093FF4FF47A72D0E900010023FDF78EFAA3
:1044000008BD38B50446FFF787FF072C07D9D0E968
:104410000023A41843F10005A242AB4100DB38BDE4
:10442000FFF77AFFD0E90023F6E74FF47A73584399
:10443000FFF7E7BF684620F007018D46042201B56B
:10444000114BC3F8E82F114A1378013303F001032D
:104450001370A3B90E4A5179137943EA0123917974
:1044600043EA0143D17943EA01630133C3F30721EE
:1044700013715171C3F307411B0E9171D371BDE8E4
:1044800001408546704700BF00C000405C820020AC
:1044900040820020F0B5284A85B013680A2601330F
:1044A0001360FFF739FFD0E9004502A804F070FA65
:1044B000694602A800F096FC0098019FA0FB060147
:1044C00000234FF41C2206FB0711FDF7D7F9241A2D
:1044D00065EB01010F3C41F1FF3154EA010329D0A2
:1044E000164B5A7C187C5D7D40EA02209A7C40EA9B
:1044F0000240DA7C40EA02601A7D001B42EA052293
:104500009D7D187442EA0542DD7D42EA056262EB58
:104510000102C0F307215974C0F307419974C2F333
:104520000721000E1A755975C2F30741120ED8748F
:104530009975DA7505B0F0BDF88000204082002042
:104540002DE9F047074688B018B90620FEF780F934
:1045500007463C4D01AC0FCD0FC495E8070084E839
:104560000700394D00216A7A2B7AE87A43EA022360
:10457000AA7A43EA024343EA0060FDF727F90646B8
:10458000A0B307264FF07E5800240DF10409204601
:10459000FDF784F859F804AB044641465046FCF751
:1045A0000FFF01462046FCF7C5FFFDF741F9044621
:1045B0003846FDF773F801464046FCF701FF013E1F
:1045C00016F0FF068046E2D195F8253095F82400D4
:1045D00040EA032095F8263040EA034095F827305A
:1045E00040EA0360204408B0BDE8F0874FF07E58F1
:1045F0000446B31C15F8232005EB83035978404685
:1046000042EA01229978013642EA0142D97842EA27
:104610000161FCF7D5FE81462046FDF73FF80146D3
:104620004846FCF787FFFDF703F904463846FDF7D7
:1046300035F801464046FCF7C3FE072E8046D8D128
:10464000C2E700BF98D52000B6800020374B10B5D8
:104650001B6804460021986807F09AFF0121344B3B
:104660005A6961F3CC225A615A6961F34E325A6138
:10467000BFF34F8F03F5E0431A680A431A601A68C4
:104680006FF341021A60BFF34F8F1A690A431A6130
:10469000BFF34F8F1A696FF352421A611A6942F0E1
:1046A00002021A611A6942F480721A611A696FF380
:1046B00049221A611A696FF38C221A611A6942F051
:1046C00010021A611A696FF345121A619A8842F052
:1046D00004029A80BFF34F8F164A1460164A10687E
:1046E000B0FBF4F0020900F00F009A625862BFF3C9
:1046F0004F8FBFF34F8FBFF34F8F1A6942F02002E5
:104700001A61BFF34F8F5A695A610C4A1170002227
:104710000B490A600B490A604FF080700A49086033
:10472000196862F30001196010BD00BF50800020BD
:1047300000800040748300200080002070830020EF
:104740006C8200206882002000E100E0684620F0D2
:1047500007018D46154979B5154B164C164D1A694A
:10476000D00704D55A69C2F3800052070FD42378CA
:104770004BB1124B186820B1B0F5803F13D2FEF751
:10478000E7F900232370BDE87940854670470A6841
:1047900093F83C60AE545A695A610A68207001323D
:1047A000D2B20A60DBE78047EBE700BF6C820020F3
:1047B00000F000407183002070820020AC81002056
:1047C0004FF08072094BC3F88020BFF34F8FBFF3C7
:1047D0006F8F074B5A696FF3CC225A615A696FF396
:1047E0004E325A610022034B1A70704700E100E01C
:1047F0000080004070830020034B1868034B1B6847
:10480000C01A80B2704700BF6C820020688200200E
:10481000084A094B1968136899421FBF1168136849
:104820000133DBB21DBF1360044B585C4FF0FF3007
:10483000704700BF688200206C82002070820020D8
:10484000014B1860704700BF34800020F8B5064661
:10485000FFF7D2FF88420D4612D32C460023DDB26B
:10486000A54203F1010721D31349144B08681A68C4
:10487000904208BF0022204604BF0A601A60F8BDBB
:10488000FFF7BAFF0E4F04463B68002BE6D0FFF758
:10489000ADFD3F680744FFF7A9FD3B1A002BDDDDA6
:1048A000FFF7AAFF85420446F5D8D6E7FFF7B0FF29
:1048B0003B467055D3E700BF688200206C82002021
:1048C000348000202DE9F84307460E4615460024A3
:1048D000DFF82C80DFF82C90A64201DCBDE8F883DD
:1048E0003CB1B4FBF5F305FB134313B9404607F0A5
:1048F000BBFD395D484607F0B7FD0134ECE700BF6A
:1049000062D62000C2D5200010B5094C094B2268A0
:1049100019682AB9084807F0A7FD0023236010BDD5
:10492000FF298CBF0548064807F09EFDF5E700BF4C
:1049300010800020EC800020C8D52000DBD52000AE
:10494000F8D520000022F0B50B4D8A4200D3F0BD0F
:104950002B698C1AC3F34233C3F10403A34228BF6B
:10496000234684181E19B44201D11A44EDE714F805
:10497000017B85F83870F6E700F0004000232DE950
:10498000F041002986B08DF814300E4615460B46CE
:1049900002DA404261EB410313241F460A2200233E
:1049A00039468046FCF7BAFF0B462146024601F124
:1049B000180C0DEB0C0E02EB820208F1300CB8F172
:1049C0000A0F04F1FF34ACEB420277F10007E4B2C6
:1049D0000EF8182CE1D2002E08DA04F118030DEBC2
:1049E00003042D23023904F8183CCCB204F1180357
:1049F000C4F113060DEB0304F6B2A4F1170035B9A8
:104A00003146FFF79FFF304606B0BDE8F081014612
:104A10003246284607F035FCF5E708B5FFF792FF68
:104A2000002008BD0846114608B5FFF78BFF084671
:104A300008BD002070470000B1F5806F7FB50546C6
:104A40001446084603D20A44B2F5806F0DDD124CBD
:104A5000124B1C60124B186820B1B0F5803F18D281
:104A6000FEF776F8204604B070BD002600F503106E
:104A700001A900F5705002960194039513F654F8BD
:104A80000028F0D022463146284607F007FC054CA6
:104A9000DEE78047E6E700BF02030B00EC80002062
:104AA0009081002001030B0007B50146012201A8F7
:104AB000FFF7C2FF9DF8040003B05DF804FB00009F
:104AC000B1F5806F0B4613B503D25118B1F5806F65
:104AD0000DDD0F4C0F4B1C600F4B186820B1B0F56B
:104AE000803F12D2FEF734F8204602B010BDCDE967
:104AF000002003F50310694600F5705013F630F8F6
:104B000004460028F0D0054CE4E78047ECE700BFFE
:104B100002040B00EC8000209081002001040B00B7
:104B200007B501228DF80410014601A8FFF7C8FF60
:104B300003B05DF804FB0000014B1878704700BF1C
:104B4000E880002008B512F6E3FF12F6D9FF000056
:104B50002DE9FF41144607460D4602F0B7F99DF8CE
:104B60000830182C23F0180343F018038DF8083090
:104B70007AD01AD804F0FD03012B18D1614B93F8B9
:104B80005730022B01D102F0A1F9B5F5806F10D397
:104B90005D4C5E4B1C605E4B186838B3B0F5803FCF
:104BA00080F0AD80FDF7D4FF20E01A2C5CD0594C8A
:104BB000EFE70FB1584CECE700220023CDE90023CA
:104BC000C5F3801205F0010343EA4203C5F3C015A3
:104BD00043EA85058DF80450019B5BB94B4B4F4C64
:104BE0001C604B4B18680028D8D14C4C204604B0B0
:104BF000BDE8F08103223E46E11E9DF800304C42A4
:104C00004C4123F0030344F002041C439DF8083098
:104C10008DF8004062F302038DF80830FFF742FA86
:104C200072B667B14FF47A70704302F09BFD0122B7
:104C30003B4BC3F8F02FC3F8E42F02F087FD0024AC
:104C4000384B394A1C605C615A6040F2FF32C3F84D
:104C5000E02FC3F8F02F04AB13E90F0002F053FD6F
:104C600002F07AFD62B6C1E7002F46D0FFF7BEFB27
:104C7000874201D22D4C8CE73E1ADFF8B48098F8B9
:104C8000000008B902F02AFD012002F083FD02F0C5
:104C900079FD0028FBD098F800300BB902F021FD17
:104CA00000220023CDE90023321E18BF01224FF05D
:104CB000000362F304138DF80030A4F11A021D4BB7
:104CC000544205EA0303544145EA95259DF808201E
:104CD000C5F30905E4012B4344F0020402F0780215
:104CE00001931443C3F309038DF80840002B95D1B9
:104CF0009DF80030DB0691D470E73E46BDE7804763
:104D000074E700BF7883002002030100EC800020DC
:104D1000908100200403010001030100030301004E
:104D200000E0004000800040AAAA0A00050301003C
:104D3000E680002000FC0F00012A08BF89021A2229
:104D4000FFF706BF014601220020FFF701BF000068
:104D500010B502F0C8FC58B1074B084C1C60084B5A
:104D6000186820B1B0F5803F03D2FDF7F1FE204670
:104D700010BD8047FBE700BFEC800020010501006B
:104D80009081002012F694BE12F696BE70B5144CB7
:104D900094F8695094F8683094F86D6043EA0523FC
:104DA00094F86A5043EA054394F86B5043EA05636C
:104DB00094F86C50C01A45EA062594F86E6094F891
:104DC0006F4045EA064545EA04644FEA502361EB2B
:104DD000040143EAC153C0F308005360106070BD82
:104DE00078830020F0B559B3164B4668164C1B6803
:104DF000F50D94F8682045EA432594F8693094F855
:104E00006D7042EA032294F86A30006842EA034275
:104E100094F86B3040EA462042EA036294F86C3022
:104E2000801843EA072394F86E7094F86F4043EAC1
:104E3000074343EA046328BF01332B4408604B60F7
:104E4000F0BD00BFF88000207883002007B5094B33
:104E50001B781BB9002003B05DF804FB684603F023
:104E600097FD0028F6D104496846FFF7BBFF0846C6
:104E7000F1E700BFB580002060820020F8B50D4644
:104E800000293DD01F4E416896F8694096F8683079
:104E900096F86DC043EA042396F86A4096F86B7062
:104EA00043EA044396F86C4043EA076344EA0C245F
:104EB00096F86EC096F86F6044EA0C4444EA0664C3
:104EC000114E366804EB462456029B1B64EBD25409
:104ED00002689B184FEA412244F100049E184FF2E9
:104EE000BF3344EBD154994208D8FFF7AFFFD0E964
:104EF0000023B242A341B8BFA4F500742E606C60D9
:104F0000F8BD00BF78830020F88000202DE9F04F25
:104F10000446ADF5237D0FA802F070FA0FA800F04B
:104F20002DFF002C55D063792579277845EA032594
:104F3000A37945EA0345E37945EA0365637847EADF
:104F40000327A37847EA0347E37847EA0367002685
:104F5000FFF74CFA01F0C2FB4FF4E130FFF776FBAC
:104F60002B463A46B249B34807F07EFA4FF4057330
:104F700031461CAA01200196009602F063F801F068
:104F800089FF304601F0BAFE102231460BA807F027
:104F900085F9B2464FF0FF384FF47A70FEF7A2F869
:104FA000D0B9627A237A013643EA0223A27AF6B2B2
:104FB00043EA0243E27A43EA02639E4203D1B8F134
:104FC000FF3F00F00F8101F065FF002001F096FE29
:104FD000E2E725462746BAE70128DDD11C9BC3F34B
:104FE0000F23B3F5057FD7D135B19DF87B301F9ADC
:104FF00043EA0223AB42CFD11D9A9DF8733043EAB6
:1050000002238B4A9342C7D137B19DF877301E9A5D
:1050100043EA0223BB42BFD1FEF72AFEB8F1FF3FAD
:1050200024D14FF0FF310023219A0BADC2F347305A
:10503000C2F304229140DAB2904200F2D88040F0EC
:10504000D8800A460133042B45F8042BF3D14FF0E6
:1050500000089DF87B301F99774843EA012107F04B
:1050600003FA9DF87B501F9B45EA032501229DF81A
:1050700083909DF8843049EA032309F01F0902FA5E
:1050800009F9C3F347130BAA52F8232012EA090FB8
:1050900082D10DF1870B4FF40071584603920293B1
:1050A000FDF798FA209B9DF87F10039A41EA0321AF
:1050B0008142029B40F0B88042EA09020BA941F804
:1050C0002320219A0AF1010A1FFA8AFA51465B4805
:1050D000C2F30F2207F0C8F94FF400739DF8830064
:1050E00007939DF8843007A950EA032002BFA0234C
:1050F0008DF88930012300F584504FEA402008BF25
:105100008DF88A30CDF820B012F62AFDB8F1000FE4
:105110001FD14FF0010B41F28830FEF7A7FD0DF1D2
:10512000180909A94648CDF818B0CDF824B0CDF833
:10513000289012F615FD042309A942480993069503
:1051400012F60EFD404809A9CDF8188012F608FDA8
:10515000D8464FF0040B0BAB53F8042B02920132EC
:105160007FF41AAF0BF1FF3B1BF0FF0BF4D140F2C1
:10517000A1334FF002090DF1180809A9A8F8003071
:105180003248CDF82490CDF8288012F6E9FC219918
:105190004FF40410C1F30F214902FDF71BFA0590EB
:1051A0009DF87B201F990DF1140A42EA01229042DA
:1051B00022D1274807F058F94FF4F46209A9C8F83A
:1051C00000202248CDF82490CDF8288012F6C8FCA3
:1051D000042309A91C480993CDF828A012F6C0FCA5
:1051E000FFF7B0FC5C200DF5237DBDE8F08F0022B9
:1051F00028E74FF0FF3225E74FF47A6209A9A8F8B3
:1052000000201248CDF82490CDF8288012F6A8FC92
:105210009DF87B301F9ADAF800100E4843EA02220C
:1052200007F022F9DA46B5E60B4807F01DF9B3E6B8
:105230004908040115D620002DD620003AD62000BA
:105240000300210008102000FCFB200002002100C8
:1052500046D620004AD6200064D620002DE9F04131
:10526000ADF5816D044601F039FA4FF4E130FFF7F6
:10527000EDF914238DF809300223627A8DF80A3093
:10528000237A217B43EA0223A27AE07A43EA0243AB
:10529000490243EA0060FDF79DF9C0F307228DF84B
:1052A0001420C0F307428DF81520020E61788DF8A6
:1052B00016202278034642EA0122A1788DF81300D5
:1052C00042EA0142C2F307208DF81000100C8DF85D
:1052D000110049208DF80B0008208DF80C000420E7
:1052E0008DF80D0001204FF0000800260027E1781E
:1052F0008DF80F208DF812108DF80E0042EA016231
:105300003B483C493C4D07F0AFF88DF81B808DF8C9
:105310001C80237B9DF81B108DF81D3000238DF819
:105320001E309DF81C30627A41EA0321237A0DF188
:105330001F0043EA0223A27A43EA0243E27A43EAE5
:10534000026303EB41214FF4007206F09AFF4FF421
:1053500000710DF11F00FDF73DF9C0F307238DF833
:1053600017008DF81830C0F30743000E8DF81A00AF
:105370000DF109008DF8193000F06AFE6846CDE99C
:10538000006701F0E5FA9DF81C309DF81B10227BA8
:1053900041EA03210131284607F066F81420FFF79F
:1053A00044F89DF81C309DF81B0040EA0320237B45
:1053B0000130B0FBF3F203FB1200C0F30723627964
:1053C0008DF81C3023798DF81B0043EA0223A27963
:1053D00043EA0243E27953EA02639AD0002898D163
:1053E00008F10108434594D80DF5816DBDE8F081C1
:1053F0006FD62000490804018CD6200070B51B4CE4
:105400001B4D6278237885F8570043EA0223A2787F
:1054100085F8581043EA0243E27853EA02630FD05A
:10542000637C207C40EA0320A37C40EA0340E37CC9
:1054300050EA036004D0032205F1560106F021FF73
:105440006378207840EA0320A37840EA0340E378B9
:1054500050EA036009D0B0F5803F03D2BDE8704048
:10546000FDF776BBBDE87040004770BD08840020A2
:1054700078830020034B93F8581093F85700FFF7F8
:10548000BDBF00BF788300200123054880F8573056
:10549000044B24301B6880F8343001F0AFBF00BFEC
:1054A00078830020E880002008B501460120FFF73E
:1054B000A5FFBDE8084001F009BD08B5FFF742FBB4
:1054C000002008BDF0B5054689B0102200213F48F4
:1054D00006F0E4FE11220021284606F0DFFE12F657
:1054E00007FB80F0010616F0FF0627D012F618FB26
:1054F00010F0FF040CD0364B50341B68E4B21B0490
:1055000043F05203324A1360002012F6FDFA25E000
:1055100012F622FA10F0FF0007D02D4B50301B6816
:10552000C4B21B0443F05403ECE78DF8040001A857
:1055300012F6FEF99DF80430012BF8D001A812F6FE
:10554000FBF910F0FF040DD0214A13681B0443F04F
:105550005C0350341360E4B2002ED5D120462C7089
:1055600009B0F0BDFDF710FE184FC0F30723E87037
:105570002B71C0F30743000EA8716B71384603F01E
:10558000FFFA10F0FF0405D0114A13681B0443F022
:105590006003DEE7BDF80A3001226B72BDF81630F9
:1055A000AB72BDF81E30EB72BDF81C302B73BB79AB
:1055B0006B733B79AB73BB7BEB733B7B6C702B7476
:1055C0000423EA71AB702B72C6E700BFF0830020A2
:1055D000F08000202DE9F74F90F800A08146BAF145
:1055E000070F44D8437C012B41D84FF01003DFF85C
:1055F0000C81009300F10103019398F8212098F8A1
:1056000020304FEA8A0B43EA022398F8222008EB65
:105610008A0743EA024398F8232043EA02634FF0E3
:10562000010202FA0AF22DD11343354EC3F30722C9
:10563000357888F8203088F8212095F00105C3F3EB
:1056400007424FEA136388F8222088F823301ED0DF
:1056500002F04DF810F0FF0417D02A4A13681B041B
:1056600043F0C80304F150001360C4B206E03524CF
:10567000244A13681B0443F0A4031360204603B0BC
:10568000BDE8F08F23EA0203CFE70123337018F857
:105690002A00D84498F8013040EA032098F80230F4
:1056A00040EA034098F8033050EA03600AD012F64B
:1056B0009FF910F0FF0405D0124A13681B0443F051
:1056C000CF03CFE799F811306A46012B38460CBF5B
:1056D0000D490E4912F6A8F9C4B244B1094A503432
:1056E0001368E4B21B0443F0DA031360C6E7002D2D
:1056F000C4D001F0FFFF3470C0E700BF7883002002
:10570000FC800020F0800020800301010C100101CA
:1057100007B5034600780F2809D935200E4A1368CB
:105720001B0443F0EC03136003B05DF804FB4FF47B
:105730000072013369460092019312F61DF910F0D0
:10574000FF00F1D0044A50301368C0B21B0443F08C
:10575000F3031360E8E700BFF080002007B503788B
:105760000F2B09D93520104A13681B0443F0FD03A1
:10577000136003B05DF804FB4FF4807201300190B8
:1057800003F110006946C0B2009212F6F5F810F06D
:10579000FF00EED0044A50301368C0B21B0443F43B
:1057A00082731360E5E700BFF0800020427808B5FF
:1057B000037843EA02238278C07843EA024343EA4B
:1057C000006012F679F9002008BD10B5044612F603
:1057D0006FF9C0F30723A370C0F30743E370030E10
:1057E00060702371002010BDF8B50346427901793D
:1057F000C77941EA02218279007841EA02415A7868
:10580000DE7840EA02209A78084C40EA024040EAFA
:1058100006601A7A41EA07612568FFF799F920685E
:10582000A84214BF05200020F8BD00BFEC80002076
:1058300010B532220349044606F023FD00202070F3
:1058400010BD00BF9C83002037B525A1D1E9000120
:105850001F4D95F82E3095F82D4044EA032495F815
:105860002F3044EA034495F8303044EA036464235B
:1058700094FBF3F422B25A43164B64421A60D317D6
:10588000FBF7FCFF144B186004F0B2F8002395F806
:105890002A20ADF8063095F82930684643EA0223FD
:1058A00095F82B20ADF8044043EA024395F82C20EC
:1058B00043EA0263009304F0F3FC30B1074A50302E
:1058C00013681B0443F03A031360C0B203B030BD49
:1058D000788300200084002004840020F0800020D1
:1058E00000CA9A3B000000002DE9F341002502F0B8
:1058F000E9FF02F0DDFF03F005F8474B474F1D605D
:10590000FEF70AFDD0E90068684603F041F8394621
:1059100004466846FFF766FA4FF41C21A6FB010611
:105920000A2201FB08610023FBF7A8FF3B4613F89E
:105930006869DFF8ECC093F8692093F86C7046EA68
:10594000022693F86A2083F8685046EA024693F8E4
:105950006B2046EA026693F86D20801B47EA022717
:1059600093F86E209CF8006047EA024793F86F2096
:1059700047EA02679CF8012061EB070146EA02262C
:105980009CF802209CF8057046EA02469CF8042028
:1059900083F8706042EA07229CF80670C6F3072E6F
:1059A000360C42EA074283F872609CF807709CF854
:1059B000036042EA076783F8736083F87420C2F3D8
:1059C0000726C2F3074283F876203A0E83F8772041
:1059D00020F4FF7222F00102100A83F86900C2F37A
:1059E0000740120E83F86B20C1F3072283F86A0088
:1059F00083F86C1083F86D20E0B2C1F30742090E02
:105A000083F871E083F8756083F86E2083F86F1077
:105A100002B0BDE8F08100BFF8800020E0830020E4
:105A20004082002070B5354C86B094F84530FF2B8D
:105A300013D116220021684606F030FC01A8FFF7BA
:105A4000C9FD40B12E4A13681B0443F0BB03136029
:105A5000C0B206B070BD84F845002A4D94F8456088
:105A60002B786BB901F043FE40B1254B1B681B043A
:105A700043F0C503224A50301360E9E701232B703D
:105A800006F0F003102B0ED1304601F06FFD0146F9
:105A900004EB860011F6D0FF28B1194B1B681B04DC
:105AA00043F0D303E6E794F8212094F8203043EA4A
:105AB000022394F8222043EA024394F8232043EA85
:105AC0000263F340DB0701D50020C1E714F826305C
:105AD00004EB86046278E07843EA0223A2780A495C
:105AE00043EA024343EA006002F03EFE0028EBD0A6
:105AF000034B1B681B0443F0D803BBE778830020EB
:105B0000F0800020FC80002098D6200073B50E465F
:105B1000694676B1103003F087F8054660B1434A14
:105B2000503513681B0443F0EB031360E8B202B076
:105B300070BD03F04BF8F0E73D4CE3695A0773D4AE
:105B40000423A3602361D4F8502160F34402C4F815
:105B50005021D4F8502160F38912C4F85021D4F8B0
:105B6000502160F3CD22C4F85021D4F84C2163F3C6
:105B70000E32C4F84C21D4F84C2163F3D132C4F86E
:105B80004C21019BD4F84C115A7AC2F3021262F3F1
:105B90009441C4F84C11D4F84C1162F35751C4F835
:105BA0004C11D4F84C2142F08062C4F84C21D4F856
:105BB0004C2142F00062C4F84C21D4F84C2142F050
:105BC0000042C4F84C211A681989C4F840215A6867
:105BD000C4F84421D4F84C2161F30B02C4F84C21E1
:105BE000D4F8502142F00102C4F85021C6B99A8A73
:105BF000D968C2F30B021869920006F042FB019BC0
:105C00001A690C4BD18893F85530B1F5006F03FB3E
:105C100003F302D15B08D38002E0B1F5805FFAD0D4
:105C2000E3695B07FCD481E7652080E7F080002012
:105C3000001001407883002037B5294D012195F8E7
:105C40004600FFF763FF044640B1264A13681B0471
:105C500043F49B731360E0B203B030BD95F8483055
:105C600001468DF805008DF8060001A88DF8043076
:105C700004F0E6F9044640B11A4B1B681B0443F4D8
:105C8000A373184A50341360E5E701F038FD70B192
:105C900095F84530FF2B0AD12420FFF705FC114A67
:105CA0001C2413681B0443F4A5731360D3E795F811
:105CB00047000028CFD0082810D928220A4B0838DE
:105CC00002FB003004F0C4FA0028C4D0054B04469F
:105CD0001A6840F2551343EA0243D2E75920BBE762
:105CE00078830020F0800020B0DD200038B5204D02
:105CF000002195F84C00FFF709FF044640B140F23F
:105D00006B131C4A116843EA01431360E0B238BDCB
:105D100001F0F5FC01280ED195F84530FF2B0AD192
:105D20002420FFF7C1FB134A1C2413681B0443F40F
:105D3000BB731360EAE795F84D0090B1082815D9B8
:105D400028220D4B083802FB003004F04FFA40B116
:105D5000084A00F1500413681B0443F4C073136035
:105D6000D4E74FF6FF7001F0CCFCCFE75920CEE727
:105D700078830020F0800020D0D620002DE9F04F5D
:105D800090F801B08146BBF1010F8FB000F2DF80C7
:105D900090F802A0BAF1140F00F2D980C378012B59
:105DA000009300F2D4800379012B00F2D080837934
:105DB000457945EA0325C37945EA0345037A45EA6F
:105DC00003658F4B9D4200F2C28090F822700F2F26
:105DD00000F2BD8090F82330332B019300F2B7809E
:105DE00090F92480B8F1780F00F3B18090F8253055
:105DF000012B00F2AC8090F828600F2E00F2A780F3
:105E000090F829302B2B029300F2A18090F82A30D1
:105E1000012B00F29C8090F82D30022B00F297802D
:105E200090F82E3090F82F2043EA02231BB2B3F5EE
:105E3000EB7F00F38C8090F83120B02A00F287804D
:105E4000704A9542C0F08D8018F1300FC0F2898001
:105E500013F5FA7FC0F285806B4C494694F82530E3
:105E600094F82A0094F829200D9342EA002294F82D
:105E7000263094F82B00059342EA004294F827302C
:105E800094F82C00069342EA006399F80A0099F806
:105E90000920079342EA002299F80B0042EA0042E7
:105EA00099F80C0042EA006394F82E0094F82D2033
:105EB000089342EA002294F82F0042EA004294F844
:105EC000300042EA0063099394F84630322203938B
:105ED00094F8473004F124000A9394F948300B9366
:105EE00094F84C30049394F84D300C9306F0C9F9B3
:105EF0000D9B9B4537D1059B9A4506D0424B93F8A5
:105F0000260000283DD101F0F0FB009B069A934249
:105F100008D03E4A99F803105369002934D043F45D
:105F200000435361079B9D4203D1089B099A93420A
:105F30002FD0354B93F85730022B56D1FFF784FC06
:105F400028B3334A13681B0443F0930305E035205C
:105F50002F4A13681B0443F0650313600FB0BDE8BC
:105F6000F08F3620F4E72B4B1B78002BC3D001F0C9
:105F7000B8FB94F82500003818BF012001F0AEFBF3
:105F8000B9E701F0B0FBC0E723F40043C9E7FFF72E
:105F9000ABFC039B9F4206D1019B0A9A934202D11C
:105FA0000B9B98450DD0184B93F85730022B1FD1FF
:105FB000FFF742FE28B1164A13681B0443F09E0304
:105FC000CBE7049B9E4216D00F4B93F85730022B21
:105FD00001D00020C2E7FFF789FE0028BED00C4A9E
:105FE00013681B0443F0A603B7E7039B9F42D3D07B
:105FF000049B9E42EDD1029B0C9A9342E4D1E8E7C8
:1060000000127A0000A86100788300200080004020
:10601000F0800020E680002037B50546684602F093
:10602000B7FC10F0FF040BD0084A50341368E4B2F8
:106030001B0443F4CD73136020462C7003B030BDB5
:106040006846691CFEF7CEFEF6E700BFF080002030
:1060500007B50378427843EA0223B3F57F7F09D975
:1060600035201B4A13681B0443F4D473136003B038
:106070005DF804FB174A190A82F85A3082F85B105F
:106080002BB903F0A9FCC0B25030C0B2EFE792F8D0
:106090004B100230FF29009301900DD0684601F0AB
:1060A0006FFA10F0FF0007D040F2B513084A1168EC
:1060B00043EA01431360E7E7684602F0B7FE10F0D9
:1060C000FF00D4D0024A40F2B7131168F0E700BFD6
:1060D000F08000207883002070470000F0B5042095
:1060E0008FB011F629FD72B6AA4F97F85930013BCF
:1060F000072B00F25982DFE813F051010800DF019D
:1061000057025101570257025101A34D00266B7DE2
:106110002C7D44EA0324AB7D44EA0344EB7D54EA3E
:1061200003642BD001A904A8CDE9046602F01AFC8F
:10613000041E40F026819DF80430022B40F0278198
:106140006B7D2E7D46EA0326AB7D46EA0346EB7D5A
:1061500046EA036602F05CFC01360246314604A8BA
:10616000FEF78CFE26466A7D2B7D43EA0223AA7D3C
:1061700043EA0243EA7D43EA02631E7097F859300E
:10618000082B3DD1844D95F8233095F8220040EA44
:10619000032095F8243040EA034095F8253050EA72
:1061A00003602DD0013002F0B7FC044688B995F8A1
:1061B000233095F8220040EA032095F8243040EA85
:1061C000034095F8253040EA0360293002F012FEC2
:1061D0000446002CD8BF002295F8231095F82230F1
:1061E000C8BF04F1500243EA012395F82410C8BF48
:1061F000D2B243EA014395F8251043EA01631A70CD
:1062000097F85930DB0740F1A680634D95F82330AD
:1062100095F8220040EA032095F8243040EA034034
:1062200095F8253050EA036000F0C081013002F09B
:1062300073FC044688B995F8233095F8220040EAAB
:10624000032095F8243040EA034095F8253040EAD1
:106250000360293002F0CEFD0446002CD8BF002296
:1062600095F8231095F82230C8BF04F1500243EA94
:10627000012395F82410C8BFD2B243EA014395F830
:10628000251043EA01631A7095F8273095F8262007
:1062900042EA032295F8283042EA034295F8293071
:1062A00052EA036257D097F8531097F8523095F896
:1062B000220043EA012395F823101BB240EA012093
:1062C00095F8241097F8544040EA014095F82510BD
:1062D000043250EA01601BBF417D807DBDF824106F
:1062E00041EA00210B4423EAE373C91AB1F5807F28
:1062F00088BFFF2102F8031C9900019140F2FF3191
:1063000018190138C3F10103884294BF1B185B18A8
:106310009E00029601AB039293E8070002F012FC84
:10632000041ED8BF002395F8271095F82620C8BF73
:1063300004F1500342EA012295F82810C8BFDBB2ED
:1063400042EA014295F8291042EA01629670C6F3CA
:1063500007261370D67097F85930052B00F063812B
:106360000CB987F85940013B072B00F24581DFE863
:1063700013F05A0132016401430143014301430117
:106380005A017FF7F0AE04F15006F6B2EBE6202496
:10639000F9E700BF7883002008840020AE4D6B7EB3
:1063A0002C7E44EA0324AB7E44EA0344EB7E54EAA9
:1063B000036442D00DF1030104A802F0D3FA0446AD
:1063C00058BB6B7E2C7E44EA0324AB7E44EA034434
:1063D000EB7E44EA03649DF80330012B66D102F0A2
:1063E0001DFB611C024604A8FEF748FD01A804F04D
:1063F00009F9044688B96A7E2B7E43EA0223AA7E05
:1064000043EA0243EA7E43EA02639DF804205A729B
:106410009DF805209A72002204E0002CFBDD04F1B7
:106420005002D2B2697E2B7E43EA0123A97E43EA61
:106430000143E97E43EA01631A7097F85930082B4B
:106440003FF49CAE6A7F2B7F43EA0223AA7F43EA94
:106450000243EA7F53EA02633FF490AE95F82110BD
:1064600095F82020033342EA012204A80492059300
:1064700002F090FC6A7F2B7F9DF8101043EA022304
:10648000AA7F092843EA0243EA7F044643EA0263FB
:10649000BDF8102059704FEA12229A7008D00028D7
:1064A00008DD00F15002D2B21A7067E62124B6E787
:1064B0003722F9E70022F7E7674D95F82B3095F87A
:1064C0002A4044EA032495F82C3044EA034495F822
:1064D0002D3054EA03643FF451AE01A904A802F040
:1064E00041FA0446002847D19DF80430022B57D1C9
:1064F0000DF1050106A802F035FA044600283BD14B
:106500009DF80530012B4DD102F082FA059B1B1A34
:10651000059302F083FA079B95F82A601B1A0793EC
:1065200095F82B3046EA032695F82C3046EA0346C8
:1065300095F82D3046EA036602F06AFA0136024603
:10654000314604A8FEF79AFC95F82B3095F82A609E
:1065500046EA032695F82C3046EA034695F82D3096
:1065600046EA036602F05AFA09360246314606A8A0
:10657000FEF784FC002204E0002CFBDD04F1500255
:10658000D2B295F82B1095F82A3043EA012395F8FA
:106590002C1043EA014395F82D1043EA016383E789
:1065A0002024EBE72124E9E70024E7E595F82720FC
:1065B00095F8263043EA022395F8282043EA02435F
:1065C00095F8292053EA02633FF45EAE04A802F076
:1065D000A3FA044658E6204B5A79187940EA02207B
:1065E0009A79DB7940EA024050EA036004D0B0F5C2
:1065F000803F2CD2FCF7ACFA97F85930052B0FD11D
:106600000020164902F040FC50B10422144B1A60DD
:10661000144B186820B1B0F5803F1AD2FCF798FAF5
:1066200062B60FB0F0BD0C4B5A7A187A40EA0220DD
:106630009A7ADB7A40EA0240D6E7074B5A7B187B0E
:1066400040EA02209A7BDB7B40EA0240CCE78047AD
:10665000D2E78047E4E700BF08840020D48300200D
:10666000EC8000209081002002F028BA02F026BAC7
:10667000F8B506460C46FDF74FFE0A27054630687A
:10668000D6F804C0A0FB07014FF41C22002307FB2F
:106690000C11FBF7F3F8D5E90025821A61EB05032D
:1066A000611E042908D8DFE801F00F0311070F006D
:1066B0005B2A73F100010DDB00200749914270EB6A
:1066C000030300DA3820F8BD7C2AF2E740F23121DA
:1066D0008A42EEE73920F6E7404B4C0037B55C4C78
:1066E00094F85730022B09D116245A4A13681B0418
:1066F00043F0F9031360204603B030BD012B07D0EF
:10670000544A612413681B0443F0FE031360F2E74C
:10671000514B5A781878597940EA02209A78DD78F6
:1067200040EA02401A7940EA056042EA012299797A
:1067300042EA0142D97942EA016103F059F811F6BF
:10674000EFF910F0FF000AD0424B1B681B0443F422
:106750009573404A00F150041360E4B2CBE794F81B
:106760002500003818BF012000F0B8FFC0B224286F
:1067700007D030B1374B1A6840F2351343EA024371
:10678000E7E70123354A1370354A1370FBF7ECFA3B
:1067900011F6E2F810F0FF0005D02E4B1B681B0429
:1067A00043F49E73D5E78DF803000DF1030011F655
:1067B000BFF89DF80330012BF7D02A49002002F0E2
:1067C000FBFF2949072002F0F7FF2849062002F0C5
:1067D000F3FF2749082002F0EFFFFFF735F80446E2
:1067E00038B140F25D131B4A116843EA014313605C
:1067F00081E7FFF779F820B1164B1A6840F25F1372
:10680000BCE7FFF70FF9044620B1124A40F27513B6
:106810001168EAE7FFF76AFA044628B10D4A1368DF
:106820001B0443F4BB73E2E7FFF706FA044620B10A
:10683000084A40F277131168D7E711210220FEF7CA
:10684000DDFD022301A80193FFF702FC53E700BF1F
:1068500078830020F080002008800020E68000205F
:10686000B5800020DD602000696620006D66200094
:10687000D96020000E4B93F85130012B0BD0022B26
:106880000FD01BB9037823F00703037003786FF36D
:10689000C30303707047037823F0070343F0030337
:1068A000F3E7037823F0070343F00703EDE700BFA6
:1068B000788300200E4B93F85130012B0BD0022B24
:1068C0000FD01BB9037823F00703037003786FF32D
:1068D000C30303707047037823F0070343F00303F7
:1068E000F3E7037823F0070343F00703EDE700BF66
:1068F0007883002010B5144C94F85730022B1FD128
:1069000094F85930F3B90078B02807D935200F4AE8
:1069100013681B0443F4F073136010BD03F0A0FE72
:1069200010F0FF0008D0094A50301368C0B21B04B1
:1069300043F4F1731360F0E7082384F85930ECE76F
:106940007320EAE76520E8E778830020F0800020E4
:1069500070B5534D064695F8573086B0022B40F07F
:106960009A8095F85940002C40F0978085F859306E
:1069700000F0C5FE002840D095F8422095F841303F
:1069800095F8440043EA022395F84320454943EA39
:10699000024343EA006001F05FFF10F0FF000ED0F9
:1069A000414A116840F2052242EA014250303E4914
:1069B00010F0FF000A6066D1204606B070BD95F861
:1069C000422095F8413043EA022395F8432043EAF8
:1069D000024395F8442043EA026395F94A201344A0
:1069E000C3F3072285F8413085F84220C3F30742FC
:1069F0001B0E85F8432085F84430049A95F84930F9
:106A0000520C03F0010343F49673520413430493AE
:106A1000002303A8ADF81430FFF72CFFB6B173784C
:106A20003078317940EA0320B37840EA0340F378C4
:106A300040EA0360737941EA0321B37941EA0341F3
:106A4000F37941EA036150EA01030BD1002003A965
:106A500002F0F4FBC0B20028AED0134A116840F235
:106A60002722A1E701AAFEF791F995F828307BB11A
:106A700002213046FFF7FCFD50B10B4A13681B049E
:106A800043F4087313600223044685F8593093E7F2
:106A900003A901A8DCE773248EE765248CE700BF17
:106AA0007883002098D62000F08000202DE9F04166
:106AB0009846254B044693F859600F4615468EB00C
:106AC000002E3ED1B8F1000F36D104A802F024F810
:106AD0000DF1100838BB98F8162098F8153043EAE5
