:020000040020DA
:10100000ACDC020F01040147000000008D1D200030
:10101000AB9E3D2502D6CC9DF5A588DFB2D71E122A
:1010200000000000000000000000000000000000C0
:1010300000000000000000000000000000000000B0
:1010400000000000000000000000000000000000A0
:101050000000000000000000000000000000000090
:101060000000000000000000000000000000000080
:101070000000000000000000000000000000000070
:101080000000000000000000000000000000000060
:101090000000000000000000000000000000000050
:1010A0000000000000000000000000000000000040
:1010B0000000000000000000000000000000000030
:1010C0000000000000000000000000000000000020
:1010D0000000000000000000000000000000000010
:1010E0000000000000000000000000000000000000
:1010F00000000000000000000000000000000000F0
:1011000000000000000000000000000000000000DF
:1011100000000000000000000000000000000000CF
:1011200000000000000000000000000000000000BF
:1011300000000000000000000000000000000000AF
:10114000000000000000000000000000000000009F
:10115000000000000000000000000000000000008F
:10116000000000000000000000000000000000007F
:10117000000000000000000000000000000000006F
:10118000000000000000000000000000000000005F
:10119000000000000000000000000000000000004F
:1011A000000000000000000000000000000000003F
:1011B000000000000000000000000000000000002F
:1011C000000000000000000000000000000000001F
:1011D000000000000000000000000000000000000F
:1011E00000000000000000000000000000000000FF
:1011F00000000000000000000000000000000000EF
:1012000000A000208D1D2000E51D2000112E2000D3
:101210002D2E2000812E2000B12E2000492E2000EE
:10122000000000000000000000000000812B2000F2
:10123000652E200000000000392B20001929200015
:10124000E51D2000E51D2000E51D2000E51D200016
:10125000E51D2000E51D2000E51D2000E51D200006
:10126000E51D2000E51D2000E51D2000E51D2000F6
:10127000E51D2000E51D2000E51D2000E51D2000E6
:10128000E51D2000E51D2000E51D20005551200032
:10129000355220002D552000E51D20002D4720004F
:1012A00039572000E51D20002D3F2000C5482000B3
:1012B000E51D200025482000E51D2000E51D20003B
:1012C000E51D2000E51D2000E51D2000E51D200096
:1012D000E51D2000E51D2000F51D2000E51D200076
:1012E000E51D2000E51D2000193C2000E51D200023
:1012F000E51D2000453C2000E51D2000713C20003C
:101300009D3C2000C93C20000B1E2000211E200017
:10131000E51D2000E51D2000E51D2000E51D200045
:10132000E51D2000E51D2000F53C2000E51D200006
:10133000E51D2000E51D2000E51D2000E51D200025
:10134000E51D2000E51D2000E51D2000E51D200015
:10135000E51D2000E51D2000E51D2000E51D200005
:10136000E51D2000E51D2000E51D2000E51D2000F5
:10137000E51D2000E51D2000E51D2000E51D2000E5
:10138000E51D2000E51D2000E51D2000E51D2000D5
:10139000E51D2000E51D2000E51D2000E51D2000C5
:1013A000E51D2000E51D2000E51D2000E51D2000B5
:1013B000E51D2000E51D2000E51D2000E51D2000A5
:1013C0004FF0FF0C1CEAD0521EBF1CEAD15392EA28
:1013D0000C0F93EA0C0F6FD01A4480EA010C400204
:1013E00018BF5FEA41211ED04FF0006343EA50105E
:1013F00043EA5111A0FB01310CF00040B1F5000FA0
:101400003EBF490041EAD3715B0040EA010062F14E
:101410007F02FD2A1DD8B3F1004F40EBC25008BF38
:1014200020F00100704790F0000F0CF0004C08BF56
:1014300049024CEA502040EA51207F3AC2BFD2F123
:10144000FF0340EAC250704740F400004FF0000331
:10145000013A5DDC12F1190FDCBF00F0004070476B
:10146000C2F10002410021FA02F1C2F1200200FAA9
:1014700002FC5FEA310040F1000053EA4C0308BF70
:1014800020EADC70704792F0000F00F0004C02BFC1
:10149000400010F4000F013AF9D040EA0C0093F03C
:1014A000000F01F0004C02BF490011F4000F013B96
:1014B000F9D041EA0C018FE70CEAD15392EA0C0F04
:1014C00018BF93EA0C0F0AD030F0004C18BF31F06F
:1014D000004CD8D180EA010000F00040704790F045
:1014E000000F17BF90F0004F084691F0000F91F0E9
:1014F000004F14D092EA0C0F01D142020FD193EAAF
:101500000C0F03D14B0218BF084608D180EA010036
:1015100000F0004040F0FE4040F40000704740F012
:10152000FE4040F44000704780F0004002E000BF01
:1015300081F0004142001FBF5FEA410392EA030FBE
:101540007FEA226C7FEA236C6AD04FEA1262D2EB08
:101550001363C1BFD218414048404140B8BF5B420D
:10156000192B88BF704710F0004F40F4000020F0A6
:101570007F4018BF404211F0004F41F4000121F0BC
:101580007F4118BF494292EA030F3FD0A2F1010206
:1015900041FA03FC10EB0C00C3F1200301FA03F144
:1015A00000F0004302D5494260EB4000B0F5000F67
:1015B00013D3B0F1807F06D340084FEA310102F126
:1015C0000102FE2A51D2B1F1004F40EBC25008BFD8
:1015D00020F0010040EA03007047490040EB0000A2
:1015E000013A28BFB0F5000FEDD2B0FA80FCACF1A3
:1015F000080CB2EB0C0200FA0CF0AABF00EBC250D0
:1016000052421843BCBFD0401843704792F0000FBD
:1016100081F4000106BF80F400000132013BB5E710
:101620004FEA41037FEA226C18BF7FEA236C21D086
:1016300092EA030F04D092F0000F08BF08467047EB
:1016400090EA010F1CBF0020704712F07F4F04D1B9
:10165000400028BF40F00040704712F100723CBFCC
:1016600000F50000704700F0004343F0FE4040F4F6
:10167000000070477FEA226216BF08467FEA2363B4
:101680000146420206BF5FEA412390EA010F40F49F
:10169000800070474FF0000304E000BF10F00043EB
:1016A00048BF40425FEA000C08BF704743F09643D2
:1016B00001464FF000001CE050EA010208BF7047ED
:1016C0004FF000030AE000BF50EA010208BF704774
:1016D00011F0004302D5404261EB41015FEA010C89
:1016E00002BF84460146002043F0B64308BFA3F181
:1016F0008053A3F50003BCFA8CF2083AA3EBC25363
:1017000010DB01FA02FC634400FA02FCC2F1200281
:10171000BCF1004F20FA02F243EB020008BF20F0B8
:101720000100704702F1200201FA02FCC2F120021E
:1017300050EA4C0021FA02F243EB020008BF20EA13
:10174000DC7070474FF0FF3C06E000BF4FF0010C2B
:1017500002E000BF4FF0010C4DF804CD4FEA40020B
:101760004FEA41037FEA226C18BF7FEA236C11D055
:1017700001B052EA530C18BF90EA010F58BFB2EB08
:10178000030088BFC81738BF6FEAE17018BF40F088
:10179000010070477FEA226C02D15FEA402C05D13C
:1017A0007FEA236CE4D15FEA412CE1D05DF8040BC1
:1017B000704700BF844608466146FFE70FB5FFF754
:1017C000C9FF002848BF10F1000F0FBD4DF808ED0C
:1017D000FFF7F4FF0CBF012000205DF808FB00BFFD
:1017E0004DF808EDFFF7EAFF34BF012000205DF857
:1017F00008FB00BF4DF808EDFFF7E0FF94BF0120A4
:1018000000205DF808FB00BF4DF808EDFFF7D2FFA0
:1018100094BF012000205DF808FB00BF4DF808EDE3
:10182000FFF7C8FF34BF012000205DF808FB00BFB0
:101830004FEA4002B2F1FE4F0FD34FF09E03B3EBDD
:1018400012620DD94FEA002343F0004310F0004F1D
:1018500023FA02F018BF404270474FF00000704773
:1018600012F1610F01D1420205D110F0004008BF12
:101870006FF0004070474FF0000070477BB972B9BD
:101880000029BEBF00204FF0004106E008BF00283D
:101890001CBF6FF000414FF0FF3000F057B8ADF1C2
:1018A000080C6DE904CE002909DB002B1ADB0BF0D4
:1018B000D3F8DDF804E0DDE9022304B070474042CC
:1018C00061EB4101002B1BDB0BF0C6F8DDF804E0F7
:1018D000DDE9022304B0404261EB4101524263EB77
:1018E00043037047524263EB43030BF0B5F8DDF856
:1018F00004E0DDE9022304B0404261EB410170479E
:10190000524263EB43030BF0A7F8DDF804E0DDE996
:10191000022304B0524263EB4303704753B94AB900
:10192000002908BF00281CBF4FF0FF314FF0FF30E7
:1019300000F00CB8ADF1080C6DE904CE0BF08CF89A
:10194000DDF804E0DDE9022304B07047704700BF12
:10195000EC46A0E8F05F4FF000007047B0E8F05FA1
:10196000E546080008BF0120704700BF4FF4007330
:1019700010B5ADF5047D04AC01A9012001930394D9
:1019800015F6E2FF4F4B227E68461A70627E5A704F
:10199000A27E9A70E27EDA70626AC2F307211A723E
:1019A0005972C2F30741120EDA72A26A9972C2F337
:1019B00007211A735973C2F30741120EDA73E26AF0
:1019C0009973C2F307211A745974C2F30741120EB6
:1019D000DA74226B9974C2F307211A755975C2F330
:1019E0000741120EDA75626B9975C2F307211A76F8
:1019F0005976C2F30741120E9976DA76A26BC2F3DA
:101A000007211A775977C2F30741120EDA77E26B92
:101A10009977C2F3072183F8202083F82110C2F3BD
:101A20000741120E83F8232094F8402083F82210F7
:101A300083F8242094F8412083F8252094F842204C
:101A400083F8262094F8432083F82720227F1A71F8
:101A5000627F5A71A27F9A71E27FDA7194F8202036
:101A600083F8282094F8212083F8292094F8222054
:101A700083F82A2094F8232083F82B2094F84C2014
:101A800083F82C2094F84D2083F82D2094F84E20D4
:101A900083F82E2094F84F2083F82F2015F650FF5E
:101AA00003986946143006F007FC002813BF012292
:101AB00000224FF0FF300020034B1A700DF5047D1B
:101AC00010BD00BFBA800020B880002070B54FF470
:101AD00000760546ADF5067D06AC03A90120039608
:101AE000059415F631FF01A901201695019602947F
:101AF00015F63AFF0DF5067D70BD70B54FF4007612
:101B00000546ADF5067D06AC03A9012003960594B4
:101B100015F61AFF01A9012019950196029415F6F0
:101B200023FF0DF5067D70BD70B54FF400760546B8
:101B3000ADF5067D06AC03A901200396059415F6C4
:101B400003FF01A901200E950196029415F60CFFE2
:101B50000DF5067D70BD70B54FF400760546ADF508
:101B6000067D06AC03A901200396059415F6ECFE4C
:101B700001A901200D950196029415F6F5FE0DF5CB
:101B8000067D70BD70B54FF400760546ADF5067D57
:101B900006AC03A901200396059415F6D5FE01A90C
:101BA00001200B950196029415F6DEFE0DF5067DDB
:101BB00070BD00002DE9F047074688B018B906202F
:101BC00001F09EFE07463C4D01AC0FCD0FC495E8D9
:101BD000070084E80700394D00216A7A2B7AE87AF9
:101BE00043EA0223AA7A43EA024343EA0060FFF78A
:101BF000EDFD0646A0B307264FF07E5800240DF1F8
:101C000004092046FFF74AFD59F804AB0446414653
:101C10005046FFF7D5FB01462046FFF78BFCFFF748
:101C200007FE04463846FFF739FD01464046FFF7F8
:101C3000C7FB013E16F0FF068046E2D195F825303D
:101C400095F8240040EA032095F8263040EA034046
:101C500095F8273040EA0360204408B0BDE8F087DB
:101C60004FF07E580446B31C15F8232005EB830380
:101C70005978404642EA01229978013642EA014207
:101C8000D97842EA0161FFF79BFB81462046FFF7C6
:101C900005FD01464846FFF74DFCFFF7C9FD044628
:101CA0003846FFF7FBFC01464046FFF789FB072E4D
:101CB0008046D8D1C2E700BFBCDF2000BA80002038
:101CC000044B187800F00700831E032B28BF002068
:101CD000704700BFBA800020044B187800F007005E
:101CE000831E022B94BFC0B2FF207047BA80002031
:101CF000114B124A1B7843B9114B13601068114BFA
:101D0000114AB0FBF3F313607047104B1B7803F0DC
:101D10000703032B0CD0042B0CD0022B0C4B18BF49
:101D200000230C49136009780029E7D15B08E4E738
:101D3000094BF6E7094BF4E7EA8000200880002011
:101D4000E0F45002A08601000C800020BA80002040
:101D500000F04902B98000200075190300494A03C8
:101D600007480849084A4FF0000380F30A8881F3C6
:101D7000098882F30B8883F3148800F007B8000009
:101D8000009A0020009A00200099002008B50D4A12
:101D90000D4B0E499A600E4B0E4A8B4209D300211F
:101DA0000D4B0E4A934209D30D4B186001F03EFAD9
:101DB000FEE752F8044B43F8044BEEE743F8041BEC
:101DC000F0E700BF0012200000ED00E0B880002026
:101DD0000080002008F32000B8800020D498002064
:101DE000EC80002008B502480BF02CFAFEE700BF9B
:101DF00068E02000684620F007018D4601B506F036
:101E0000BBFEBDE8014085467047684620F00701EB
:101E10008D4601B507F094FEBDE801408546704748
:101E2000684620F007018D4601B503F0AFFB07F0CF
:101E300097FEBDE801408546704700F108034FF06A
:101E4000FF324360C3600361002382600360704718
:101E500000230361704743689A684B608A609A6800
:101E6000516099600368086101330360704730B5C1
:101E70000C68631C0AD103695A684A6091608B60E0
:101E80005960036808610133036030BD00F1080246
:101E9000134652681568A542FAD9EDE7036941680F
:101EA00082688A6051605968814208BF5A60002286
:101EB00002611868013818607047000070B50B4C5B
:101EC0000B4E0C4D236803B970BD00F003FDF368A1
:101ED000D8680430FFF7E2FF2B68013B2B602368D2
:101EE000013B236000F004FDECE700BF64810020AB
:101EF000D88100206081002000222DE9F843244B86
:101F0000244C1D68244B0646D3F80080234B0F4613
:101F1000D3F800902368206883F852200430FFF73C
:101F2000BDFF40B922681E49D06A01220B68824079
:101F300023EA02030B60731C15D1A7B1194B21686A
:101F40005A6890688A602168C86021689068043186
:101F50004160216804319160226853611A6801323E
:101F60001A60BDE8F88323682168AD195D6001F14E
:101F7000040104D34846BDE8F843FFF778BF404664
:101F8000FFF775FF084B1A68AA4288BF1D60E8E793
:101F9000EC810020F0800020F4800020F8800020F8
:101FA00070810020C4810020A081002008B5054C6C
:101FB000FFF784FF2368012B01D900F07FFC00F0BC
:101FC0001BFFF5E7FC800020064A13681968064BE2
:101FD00019B94FF0FF321A6070471268D268126860
:101FE000F9E700BFF4800020A081002008B5034677
:101FF00010B900F08FFDFEE741690A4A91420ED107
:10200000806A094A90420AD048B993F85020012AC0
:1020100004D093F85100013818BF012008BD0020FA
:10202000FCE700BFC4810020AC8100202DE9F3470C
:102030000C9C0746DDE90A9A0E4615469846BAF109
:10204000000F02D100F066FDFEE714B900F062FD5A
:10205000FEE754230193019A9A4202D000F05AFD00
:10206000FEE700212046AD00019B0BF005F850462D
:10207000C4F830A02A46A5210AF0FEFFD4F830A00B
:102080006EB1731E04F13402093613F8011F02F811
:10209000011B09B1B342F8D1002384F83D30B9F1F6
:1020A000040F02D900F036FDFEE7261D3046C4F8C5
:1020B0002C90C4F84090FFF7CBFE043D04F11800CB
:1020C000FFF7C6FEC9F105010AEB050043463A4693
:1020D000A1612461216B646220F0070000F03CFCE8
:1020E000206000F0F7FB324B324F1A68DFF8C880EF
:1020F00001321A603D68002D4FD13C601B68012BF6
:102100001FD1C14648460135FFF797FE052D09F15D
:102110001409F7D1DFF8A490294D4846FFF78DFE4A
:102120002846FFF78AFE2748FFF787FE2648FFF775
:1021300084FE2648FFF781FE254BC3F80090254B0F
:102140001D60254A25491368086801331360012280
:10215000E36A9A4002430A601422534308EB0301E6
:102160004A689068A260E06090684660966058F89F
:1021700003206161013248F8032000F0B9FB184BDD
:102180001B6833B13B68DA6AE36A9A4201D200F015
:1021900095FB204602B0BDE8F087114BE26A1B6850
:1021A000002BCED13B68DB6A9A4228BF3C60C8E76F
:1021B00060810020F0800020FC80002074810020DD
:1021C00088810020AC810020D8810020C4810020BB
:1021D000F4800020F88000206C81002070810020B5
:1021E000C0810020F8B50446234D00F073FB04B90C
:1021F0002C68261D3046FFF751FE60B91423E06AB3
:102200001E4A4343D35833B901221D4982400B680B
:1022100023EA02030B60A36A1BB104F11800FFF765
:102220003DFE184A184F1368013313602B683A6853
:10223000B2B1A34214D131461448FFF70CFE144A40
:1022400013680133136000F053FB3B689BB12B68AC
:10225000A34210D10F4B1B684BB100F05BFCFEE7B3
:102260000D4A1368013B1360FFF7AEFEEBE7BDE8D4
:10227000F84000F023BBF8BDF0800020FC80002077
:10228000708100206C810020C0810020D881002056
:10229000648100206881002060810020F8B5044638
:1022A00010B900F037FCFEE7194D2B6883422DD0A2
:1022B00000F010FB2046FFF799FE18B3261D3046AC
:1022C000FFF7ECFD0123134AE16A10688B400343DA
:1022D000136014234B431048C7187A68D2F808C01B
:1022E000A260C4F80CC0D2F808C0CCF804609660B4
:1022F000C25867610132C2502B68DB6A994201D92A
:1023000000F0DCFABDE8F84000F0F2BAF8BD00BF1A
:10231000F080002070810020FC80002030B58BB060
:1023200007AB1D46164A12F8014B03F8014B002C6F
:10233000F9D106AA05A904A8CDE9044400F08AFF52
:10234000049B29460293059B069A01930D48234658
:102350000094FFF76BFE0C4B186060B100F0DAFBE5
:102360004FF0FF32094B1A600122094B1A60094BEA
:102370001C6000F035FB084B1B680BB030BD00BF84
:1023800076E02000AD1F20009C810020A08100206D
:10239000C0810020EC81002000800020024A1368E8
:1023A00001331360704700BF68810020014B18683B
:1023B000704700BFEC81002008B5034B186810B9C6
:1023C00000F0A8FBFEE708BD9C8100202DE9F84F36
:1023D000574B1B68002B40F0A380564B1868013008
:1023E000186088B9544B1A68126812B100F092FB59
:1023F000FEE7524A196814681C601160504A13685D
:1024000001331360FFF7E0FD4E4D00242B684E4A68
:102410009842DFF838E115D21421DEF80030DB6A8B
:102420004B43D358022B4A4B28BF01241B680BB9DE
:1024300000F054FC474B1B68002B18BF01242046BA
:10244000BDE8F88FA346DFF8F0C0DCF800301B6869
:102450001BB94FF0FF332B60DEE7DCF80030DB68A0
:10246000DB685968884201D22960D5E7D3F8148027
:102470009968DE68D8F804908E607160191D8945EE
:1024800008BFC8F80460D8F80060C3F814B0013E73
:10249000C8F80060D3F82880B8F1000F17D0DE69C3
:1024A000D3F82090C6F80890D3F820A003F11809BB
:1024B000CAF80460D8F804604E45D8F8006008BF38
:1024C000C8F804A0013EC3F828B0C8F8006001268F
:1024D000214FD3F82C90D7F8008006FA09F646EA87
:1024E00008063E60142606FB09FA02EB0A06D6F837
:1024F0000480D8F80870C3F80880DF60D8F8087046
:102500007960C8F808105E6152F80A30013342F869
:102510000A30DEF80030DB6A994588BF012494E771
:102520000B4A002413680133136000F0D7FB86E7E1
:1025300068810020EC810020F4800020F8800020D9
:10254000A4810020A0810020FC800020F0800020D9
:10255000A8810020F0810020708100202DE9F84F33
:1025600000F0B8F9484B1A6812B900F0D3FAFEE748
:102570001A68013A1A601B682BB1002400F0B8F900
:102580002046BDE8F88F414A1268002AF5D001259F
:102590004FF0140C3E483F4C3F4A404E404F56E0EF
:1025A000C368DB68D3F828E0D969D3F8208003F149
:1025B0001809C1F80880C8F80410DEF8041049456D
:1025C0004FF0000108BFCEF804809962DEF80010D9
:1025D0000139CEF80010D3F814E09968D3F80C80D4
:1025E00003F10409C1F80880C8F80410DEF80410EB
:1025F000494508BFCEF80480DEF80010D3F82C80DF
:1026000001390CFB08FACEF80010D4F800E005FA06
:1026100008F141EA0E01216002EB0A01D1F804E061
:10262000DEF808B0C3F808E0C3F80CB0DEF808B074
:10263000CBF80490CEF80890596152F80A10013195
:1026400042F80A103168C96A884500D93D600168BE
:102650000029A5D10BB1FFF7B7FC124D2C6844B18E
:1026600001270F4EFFF7B2FE00B13760013CF9D1F0
:102670002C600B4B1B68002B3FF47FAF074B0124F2
:102680001B6800F01BF979E7688100206081002059
:10269000AC81002070810020FC800020F0800020B0
:1026A000F0810020A881002038B510B900F032FA7E
:1026B000FEE711B900F02EFAFEE7FFF76FFE144BAC
:1026C0001A68144B1B68012B02D000F023FAFEE7B6
:1026D00005686B182CBF0124002495420DD90CB954
:1026E000036003E09A420BD300240360FFF736FF38
:1026F00008B900F0E3F8204638BD0CB99A42EFD291
:1027000003600021981AFFF7F7FB0124EEE700BFF2
:10271000EC81002068810020154B10B51A68154B1C
:1027200012B101221A6010BD1A60134B1968B1FA78
:1027300081F11423C1F11F014B43104AD458D01822
:1027400014B900F0E7F9FEE74468083364681344FD
:102750009C4208BFC368446008BF4360142303FB66
:1027600001225368DA68064B1A601B68DBE700BF7A
:1027700068810020F081002070810020FC80002012
:10278000F080002070B504462A4D00F0A3F804B98B
:102790002C68261D3046FFF781FB60B91423E06AE0
:1027A000254A4343D35833B90122244982400B6858
:1027B00023EA02030B60A36A1BB104F11800FFF7C0
:1027C0006DFB31461E48FFF746FB94F850301D4E16
:1027D000012B04BF002384F8503094F85130012BB2
:1027E00004BF002384F8513000F082F833682BB125
:1027F00000F070F8FFF7E8FB00F07AF82B68A342CE
:1028000012D133684BB1104B1B6813B100F082F941
:10281000FEE7BDE8704000F051B80C4A1168084A64
:102820001268914201D12B6070BDBDE87040FFF786
:1028300073BF00BFF0800020FC800020708100206A
:10284000C4810020C08100206881002060810020B8
:1028500008B9054B1868026B0020135CA52B01D04A
:10286000800870470130F8E7F0800020002307B5AA
:102870000193074B1B68013302D000F04BF9FEE7D0
:1028800000F048F9019B002BFCD003B05DF804FB7D
:10289000048000204FF0E0220423136100234FF452
:1028A0007A719361044B1B68B3FBF1F3013B5361F5
:1028B00007231361704700BF088000204FF0E0231A
:1028C0004FF08052C3F8042DBFF34F8FBFF36F8FCB
:1028D0007047000008B500F01DF9044A1368013381
:1028E0001360BFF34F8FBFF36F8F08BD04800020CC
:1028F00008B5084B1A6812B900F00CF9FEE71A681F
:10290000013A1A60186818B9BDE8084000F00DB91E
:1029100008BD00BF0480002010B500F0FBF804469D
:10292000FFF754FD28B14FF0E0234FF08052C3F879
:10293000042D2046BDE8104000F0F7B808B58369C3
:1029400013F8023C662B03D1BDE8084000F0BCB888
:1029500000F0E0F8FEE7000040F8203C4FF01133B3
:1029600040F8243C4FF0103340F8283C4FF0093336
:1029700040F82C3C4FF0083310B54FF0807440F80D
:10298000303C4FF0073340E90224144A40F8343C0D
:1029900040F80C2C4FF006334FF0123240F8383C20
:1029A00040F8102C4FF005334FF0033240F83C3C18
:1029B00040F8142C4FF004334FF0023240F8403C02
:1029C00040F8182C6FF043034FF0013240F8443CBC
:1029D00040F81C2C40F8481D10BD00BF6D28200099
:1029E0004FF0E023D3F8082D13B5D06A314988425F
:1029F00002D000F08FF8FEE7916B2F4A914202D08F
:102A000000F088F8FEE7002201924FF07F42C3F801
:102A10001C2DD3F81C3D294A1B0E8DF803309DF860
:102A2000033003F0A003137013B900F073F8FEE74E
:102A30009DF80330DB4313F0A00F0AD000F06AF8D2
:102A4000FEE7013301939DF803305B00DBB28DF8A4
:102A500003309DF8033013F0800F019BF1D1082B58
:102A60000CBF0023019B164A18BFC3F107031B02CA
:102A700003F4E06313604FF0E0230024D3F8202D2B
:102A800042F47F02C3F8202DD3F8202D42F07F427C
:102A9000C3F8202DC3F81C4DFFF7FCFE094B1C604A
:102AA00000F028F8FFF738FEFFF7E0FE204602B0FE
:102AB00010BD00BF812B2000392B2000F4810020A5
:102AC000F881002004800020094A1168086806C8BF
:102AD00081F30B88022181F31488203080F3098868
:102AE000BFF36F8F4FF0000080F311881047000094
:102AF000F080002006480068006880F3088862B60D
:102B000061B6BFF34F8FBFF36F8F66DF00BF00006A
:102B100008ED00E0EFF311804FF0A00181F3118880
:102B2000BFF34F8FBFF36F8F704780F31188BFF3F0
:102B30004F8FBFF36F8F7047EFF30980EFF30B8276
:102B4000734620E9FC0F0D4A116808604FF0A000A1
:102B500080F31188BFF34F8FBFF36F8FFFF7DCFD5A
:102B60004FF0000080F31188044A11680868B0E84B
:102B7000FC0F82F30B8880F309881847F08000204F
:102B80001EF0040F0CBFEFF30880EFF3098001493A
:102B9000084700003D29200080B483B000AF074BF8
:102BA0007B60074B7B60074B7B60074B7B60074B71
:102BB0007B6000BF0C37BD4680BC70474DCA20000B
:102BC000CD1A2000FB1A2000291B2000571B2000D3
:102BD0007FB52D4C23689A78A12A18D10022019242
:102BE0001A7C597C684642EA0122997C42EA0142F9
:102BF000D97C42EA016200924FF4041202921A7DDB
:102C00005A7D9A7DDB7D8DF80C3003F0C1FA226885
:102C1000137A517A43EA0123917AD27A43EA014343
:102C200043EA026398472268137D517D43EA0123FA
:102C3000917DD57D43EA014343EA05659BB2ABB183
:102C4000FFF7B4FB114EADB2306029463046FFF7B6
:102C50002BFD2268137B517B43EA0123917BD27BBE
:102C600043EA014343EA02639847EEE72268137B95
:102C7000517B43EA0123917BD27B43EA014343EA40
:102C800002639847F2E700BF1C80002030940020C8
:102C900010B54FF47A708AB002F0FAFB00241023CA
:102CA0006946CDE900340C4806AB029314F63CFFAC
:102CB00047F2305002F01AF8089B03A8B3F5041F3E
:102CC00008BF234603940493059403F0B9F8204603
:102CD000FFF788FA0AB010BD00102000054B1B68F2
:102CE0003BB9054B186820B10138186008B900F0ED
:102CF00087BF70476C9300207093002070B5274CFD
:102D0000274D23682B6002F0F5FA0022254BC0F313
:102D100007215974C0F3074199741A7519785A75C7
:102D20009A75DA755A78187441EA02219A78000E79
:102D300041EA0241D8741A795879197242EA00229C
:102D40009879C1F30726090C42EA00429972D879B2
:102D5000D97842EA0060D9721A73C2F30721C2F32C
:102D600007429A73020EDA735E725973FEF7C0FF60
:102D70002A6823689A420FD0FFF78CFD0A4B1B7814
:102D800053B10A4B1B6898680AF08CF8BDE8704094
:102D9000074B186802F050BC70BD00BF08800020CF
:102DA00008820020089400203C95002054800020D8
:102DB000409500201FB50A4B1B686BB9094A009368
:102DC0000292094A0123019208494FF440720848CF
:102DD000FFF72CF9074B186005B05DF804FB00BF46
:102DE000188000200C82002068860020D8DF200098
:102DF000D12B200060820020044B186828B1B0F568
:102E0000803F01D200F0FCBE00477047689300206D
:102E1000684620F007018D4601B503480AF012FA12
:102E2000BDE8014085467047E2DF2000684620F09B
:102E300007018D4601B503480AF004FABDE80140D8
:102E400085467047F5DF2000684620F007018D4673
:102E500001B503480AF0F6F9BDE801408546704720
:102E600008E02000684620F007018D4601B50348C0
:102E70000AF0E8F9BDE80140854670471DE02000F2
:102E8000684620F007018D4601B503480AF0DAF9DB
:102E9000BDE80140854670472FE0200044F62063DE
:102EA00000BF00BF00BF00BF013BF9D17047000069
:102EB0000D4B07B55A8D40F20713ADF80430D3100F
:102EC00003F0600302F00F02134304218DF8063073
:102ED0000A230DEB01008DF8073002F08EFDFFF79D
:102EE000DDFF14F60DFE00BF00ED00E02DE970439C
:102EF00096B0FEF73BFDFEF7FBFE07F043FB022218
:102F000005904FF00041104601F012FFB34A1368DC
:102F100063B14FF0E020D0F8FC1D43F0010341F015
:102F20008071C0F8FC1D0021136051604FF0000853
:102F3000002014F621FECDF81880FEF7CDFEA84C37
:102F400006AA6178E5782070A078B1EB080118BF77
:102F500001210DF11A0340EA052005F0C5FA9DF89C
:102F60001830A04EA3719DF819304FF00109E3719C
:102F70009DF81A3023719DF81B30637106F042FCF6
:102F800007F024FC404614F6BFFD042014F6D4FDDF
:102F900005F095FA944B86F8008083F80080FEF7E0
:102FA0008FFE05F07FFAFF22904BC3F83090C3F8F4
:102FB00050811A619A604FF000528D4B1A604FF0A9
:102FC00000621A604FF0E023D3F8182D894D42F0CB
:102FD0000F02C3F8182DD3F8142D42F01002C3F8D5
:102FE000142DD3F8242D42F4A022C3F8242D2B78DD
:102FF000002B67D018234FF404100C930CA910ABCE
:10300000CDF834800E9314F68FFD044600285BD172
:103010004DF6AC43BDF840209A4257D1119B764AF9
:103020001BBA934254D94A44934253D19DF842303B
:10303000A02B11D14AF6DC43139A9A420CD16F4B64
:103040001A68137A517A43EA0123917AD27A43EAD1
:10305000014343EA026398479DF84330032B0DD0A8
:10306000072B2AD103230793012307AC644808A93F
:103070000893099414F674FD70B10324DFF8848179
:10308000C8F8004003F09AF9D8F8003023BBFFF7E6
:1030900091FE16B0BDE870834FF404130793042328
:1030A00059480AA9CDE90A3414F65AFD0446002805
:1030B000E3D11498FEF74FFDE0E7012B0CBF052488
:1030C0000424DBE70824D9E70724D7E70624D5E75B
:1030D0004C46D3E70224D1E700233370FFF70EFEFE
:1030E0004FF4E13002F0A8FAD8F8001047480AF08F
:1030F000A9F82B78002B6DD100F03CF908210CA821
:1031000000F05AF90EA814F61BFC0E9B0C9A4048CE
:1031100053400E930D9B83F00F030F930AF092F828
:1031200010220CA8114602F0C3FB02F05BFB1F2823
:103130003BD91022002110A809F09EFF012502F0C2
:103140005DFBC0B2A0F13003DBB2092B31D81B010B
:10315000DCB202F053FBC0B2A0F13003DBB2092BAA
:1031600030D81C4316AB03EB65030235212D03F861
:10317000184CE4D1DDE91230C01A119B5840109B65
:10318000C01AFEF7FFFC02F0D9FC224B4FF440724C
:103190000293214B214901930023214800930123ED
:1031A000FEF744FF1F4B186073E70C9B01330C9331
:1031B000BBE7A0F16103052BDCD8A0F15704240183
:1031C000E4B2C6E7A0F16103052BD3D85738044316
:1031D000E4B2C7E714480AF035F8D6E7001000E07B
:1031E00010800020EA800020B980002000100140FB
:1031F00000E100E0B8800020460104011C800020AE
:1032000003002100188000200810200041E0200069
:103210005EE020000C8200206886002063E0200031
:10322000912C20006082002061E0200007B5084B4F
:1032300001AA1A60FFF75AFEFFF770F804F0D0FEFB
:1032400004F0CEFDFFF7A8FC002003B05DF804FBFE
:10325000FC810020034B0360034B0B604FF4807331
:1032600013607047689200206882002008B590B112
:10327000012813D0022814D008220B4B1A600B4BE4
:10328000186828B1B0F5803F03D200F0B9FC0020E7
:1032900008BD8047FBE74FF44060F9E74FF48060DA
:1032A000F6E74FF4C060F3E7008200205C93002053
:1032B00008B540B9114B1868FFF7CAFA8000C0F58D
:1032C000406080B208BD012807D1FFF775F8FFF70D
:1032D000BFFA8000C0F58060F3E70822084B1A604F
:1032E000084B18680028EDD0B0F5803F03D200F0FD
:1032F00087FC0020E6E78047FBE700BF60820020F4
:10330000008200205C93002038B5054650B9104B70
:103310001C682846FFF7AAFF236B22689B1A1844F3
:1033200080B211E0012803D1FFF746F80446F0E728
:103330000822084B1A60084B186828B1B0F5803F86
:1033400003D200F05DFC002038BD8047FBE700BFE2
:1033500060820020008200205C9300204FF48040B7
:1033600070474FF40413586FA0F57F503C3880B27B
:103370007047000010B50C4C2378A3B905F0A5F8F0
:1033800078B10A4B0A4A1A600A4B186858B1B0F56E
:10339000803F03D2BDE8104000F032BCBDE81040D1
:1033A00000470123237010BDBC9200200082002042
:1033B00001010B005C930020104B10B51B7863B922
:1033C0000F4B104A1A60104B1868B0B1B0F5803F2F
:1033D00010D2BDE8104000F013BC14F61DFB0346EC
:1033E00058B1094A152B1068054B0CBF074A084A0B
:1033F0001A60EAE7BDE81040004710BDBC9200200B
:103400000082002003020B005C93002001020B00ED
:1034100002020B0073B516461D4DCDE900106A4639
:10342000284646F001011C4614F6FEFA15280BD07A
:1034300005D8D8B1092814D0164B174A06E06828D9
:10344000FAD1144B154A01E0124B154A1A60154B7C
:10345000186820B1B0F5803F06D200F0D1FB02B071
:1034600070BD0C4B104AF1E78047F8E70F4A089B04
:10347000146193619DF8243053619DF81830D36036
:103480009DF81C3093600A4B13602B685360E6E78D
:10349000E09200200082002004050B0003050B00D1
:1034A00001050B005C93002002050B00E492002054
:1034B0004369503010B588B0002404920422CDE94D
:1034C0000010CDE90214059207936A46124B05A934
:1034D00002A8069414F688FA15280BD005D8A0B1D6
:1034E000092814D00D4B0E4A06E06828FAD10B4B80
:1034F0000C4A01E0094B0C4A1A600C4B186820B1C9
:10350000B0F5803F06D200F07BFB08B010BD034B46
:10351000074AF1E78047F8E7E492002000820020A4
:1035200004070B0003070B0001070B005C9300204E
:1035300002070B0073B516461D4DCDE900106A4613
:10354000284646F003011C4614F66EFA15280BD0E7
:1035500005D8D8B1092814D0164B174A06E06828B8
:10356000FAD1144B154A01E0124B154A1A60154B5B
:10357000186820B1B0F5803F06D200F041FB02B0E0
:1035800070BD0C4B104AF1E78047F8E70F4A089BE3
:10359000146193619DF8243053619DF81830D36015
:1035A0009DF81C3093600A4B13602B685360E6E76C
:1035B000C09200200082002004060B0003060B00CE
:1035C00001060B005C93002002060B00C492002051
:1035D0004369503000B589B002920493042200235D
:1035E00001910392069305910790164B03AA01A936
:1035F00005A814F6DDF9152818D005D898B10928C2
:1036000019D0114B114A13E068280F4A104B15D0FE
:103610007D28F6D10F491160186820B1B0F5803FC0
:103620000ED200F0EDFA09B05DF804FB064B0A4A31
:103630001A60074BF0E7044B084AF9E70849EAE744
:103640008047F0E7C49200200082002004070B00AE
:103650005C93002001080B0002080B0002070B001E
:1036600003070B0030B5074C2160B2FA82F1257ACE
:10367000490961F30005044925720B60034B606042
:103680001A7030BD20800020308000202C80002067
:103690001FB50024CDE90210174A01A902A8019420
:1036A00014F632F9034680B9144B1B781BB1019B09
:1036B00093FAA3F30193124B1A6812B1019B534082
:1036C0000193019C204604B010BD0E4A092B1068DE
:1036D0000D4A04D10D4B136030B90024F2E7172BCB
:1036E0000CBF0B4B0B4BF6E7B0F5803F02D200F05E
:1036F00087FAE7E78047E5E7208000202C8000205C
:10370000308000205C9300200082002002040B0027
:1037100001040B0003040B0004F0DABEB0F5806F67
:1037200010B40DD34B4B4C4A1A604C4B1868A0B1E7
:10373000B0F5803F02D210BC00F062BA10BC004766
:1037400011F0100F464B0AD0DA6811290CBF024362
:103750008243DA601A6802431A6010BC70471A6824
:103760008C1E22EA000201F1FF3C1A6062426241B3
:10377000DCF1000141EB0C01C40507D55C6862F384
:1037800000045C605C6861F341045C60430608D53A
:10379000334B5C6862F382045C605C6861F3C30471
:1037A0005C60040608D52E4B5C6862F304145C6010
:1037B0005C6861F345145C60830508D5284B5C6840
:1037C00062F386145C605C6861F3C7145C60C407D4
:1037D00008D5234B5C6862F308245C605C6861F385
:1037E00049245C60830608D51D4B5C6862F38A241B
:1037F0005C605C6861F3CB245C60C40608D5184B40
:103800005C6862F30C345C605C6861F34D345C604E
:10381000830708D5124B5C6862F38E345C605C6889
:1038200061F3CF345C60040708D50D4B5C6862F32C
:1038300010445C605C6861F351445C6043078CD564
:10384000074B586862F3924058605A6861F3D3425C
:103850005A6082E700820020020103005C9300208E
:1038600000800040B0F5806F0AD30F4B0F4A1A60FA
:103870000F4B1868B0B1B0F5803F09D200F0C0B965
:103880000C4B1A6830EA020203D0074B0A4AEEE7F3
:1038900000470129DA6802D11043D860704722EA54
:1038A0000002DA60704700BF0082002002010300BE
:1038B0005C9300200080004002020300B0F5806F9E
:1038C00008B50ED30A4B0B4A1A600B4B186828B187
:1038D000B0F5803F03D200F093F9002008BD804787
:1038E000FBE7064B9B68184214BF01200020F5E758
:1038F00000820020020103005C9300200080004051
:103900002DE9F04F9D4B04461B78ADF5097DCBB9F1
:103910009B4E3578B5B904F0D8FD88B1994B9A4AD9
:103920001A609A4B186828B1B0F5803F06D200F0B3
:1039300067F928460DF5097DBDE8F08F8047F8E767
:1039400001233370924D2B6823B9072C02D808202D
:10395000FFF7D6FF102200210DEB020009F08CFBCF
:1039600004F00F038DF81030012304A8059306F02E
:10397000F1FF082C14D1DDE906134FF4C370854A1A
:103980002B601160844A5A4300FB01228348026085
:10399000834A5343D22202FB0133824A1360C9E7B0
:1039A000032C0DD87D4A069B10684FF4436202FB3E
:1039B0000300784B2A681B689B1A90FBF3F0B9E769
:1039C000072C1FD011D8052C16D9062CB2D16FF0B8
:1039D00008012A686F4B4A431B68079806991844E8
:1039E00010440B4480021344E7E7162C00F0BF801C
:1039F000172C9FD106989DE76A4A069B10684FF4E2
:103A0000D262D4E7684D2B68002B40F08E804FF4D3
:103A1000007308AC01A913200193039413F694FFDB
:103A20009DF83D319DF83C211B0203F44073134384
:103A3000642242F2F67A53432B609DF841519DF87F
:103A400040112D0205F440750D43554357499DF82B
:103A500045610D6036029DF8441106F440760E4330
:103A600056434C4A52481468494A761BD2F8009093
:103A7000EA1AA4EB09014A434E4302604FEAE47894
:103A8000BAEB030000FB08FC4A494FEAE97B0E60F1
:103A90004FEAE37161EB410704FB07CCA0FB04078D
:103AA000BC44454FFB1A03FB0BFE61EB410109FBD4
:103AB00001E1A3FB09E3B0EB0E0019446CEB010C30
:103AC0003E49D317A0FB010E01FB0CE1FDF7D6FE2A
:103AD0003B4BA0F51C404038BAEB050A18604FEA92
:103AE000E57363EB43027F1B07FB0BFB63EB4303B5
:103AF0000AFB08F109FB03BBAAFB040AA7FB09792F
:103B000004FB02112F4CC01BA0FB04055144CB4405
:103B100061EB0B01F317324604FB0151FDF7AEFEDA
:103B2000294B00F5EA4030301860204B06981B689E
:103B3000C11783420EDA254C1D4B04FB0101A0FB8B
:103B400004041A682144D317FDF798FE1C4B1B6828
:103B50001844EFE61E4C174B04FB0101A0FB0404C4
:103B60001A682144D317FDF789FE174BEFE7079832
:103B7000069B8002B0FBF3F0DCE600BFB9800020BA
:103B8000BC92002000820020010403005C9300200E
:103B900000930020049300204AF2FFFF1C930020B2
:103BA0009EF8FFFF1893002024930020209300200C
:103BB0001093002014930020A667010070110100EB
:103BC00008930020F82401000C930020008D765506
:103BD0008072DA6D054B1A6812B9012282F31088DF
:103BE0001A6801321A601868704700BF6C93002091
:103BF000024A136823EA00031360704760930020B1
:103C0000034A136803431360024B1868FEF746BB70
:103C10006093002060820020684620F007018D46F6
:103C2000074B01B5186820B1B0F5803F05D2FFF70A
:103C3000E7FFBDE80140854670478047F9E700BFD0
:103C400094930020684620F007018D46074B01B58C
:103C5000186820B1B0F5803F05D2FFF7D1FFBDE86D
:103C60000140854670478047F9E700BF8C930020EC
:103C7000684620F007018D46074B01B5186820B152
:103C8000B0F5803F05D2FFF7BBFFBDE80140854698
:103C900070478047F9E700BF88930020684620F00E
:103CA00007018D46074B01B5186820B1B0F5803F7C
:103CB00005D2FFF7A5FFBDE8014085467047804764
:103CC000F9E700BF90930020684620F007018D4679
:103CD000074B01B5186820B1B0F5803F05D2FFF75A
:103CE0008FFFBDE80140854670478047F9E700BF78
:103CF00084930020684620F007018D46074B01B5EC
:103D0000186820B1B0F5803F05D2FFF779FFBDE814
:103D10000140854670478047F9E700BF989300202F
:103D2000B0F5806FF0B570D2694B1B6803400ED0C0
:103D3000684B694A1A60694B1868002864D0B0F56E
:103D4000803F80F0C280BDE8F040FFF759BFDFF848
:103D500090C19CF80070052F16D95E4B614AE9E7C7
:103D60000EEBC406B579F67945EA0625854202D1FF
:103D7000584B5D4ADEE70134A742F1DC96B2012ED2
:103D800006D9544B594AD5E71C46DFF864E1F3E7FE
:103D90007D1CEDB28CF80050DFF854C1012A0CEB09
:103DA000C7040CF837104A4AC1F307276770C1F3FC
:103DB00007474FEA1161E170D16926714FEA102E71
:103DC0004FEA16260CBF01438143A07184F807E037
:103DD000A7706671D16100220CEBC2008179C079B5
:103DE000013241EA0021954243EA0103F4DC384AFA
:103DF000012DC2F8E43F4FF0FF33C2F8F03F03D18A
:103E00004FF080623B4B1A60F0BDB0F5E04F33D00D
:103E100017D8B0F5804F54D00BD8B0F5005F4CD018
:103E2000B0F5405F4BD0B0F5805F44D0294B324AAB
:103E300080E7B0F5A04F46D0B0F5C04FF6D12F4B7C
:103E40001FE0B0F5304F2AD00ED8B0F5104F1AD081
:103E5000B0F5204F1DD0B0F5004FE7D14FF4005220
:103E6000244B5A60264B0CE0B0F5404F1DD0B0F506
:103E7000504FDBD1234B04E04FF480621D4B5A605E
:103E8000214B1960C0E74FF400421A4B5A601F4B98
:103E9000F7E74FF48032174B5A601D4BF1E74FF4B0
:103EA0000032144B5A601B4BEBE74FF08062114B12
:103EB0005A60194BE5E7094BE3E7184BE1E7184B6C
:103EC000DFE7184BDDE7184BDBE7BDE8F0400047C4
:103ED0000080004000820020020106005C93002068
:103EE00058930020030106000501060004010600A6
:103EF0002893002000E100E00101060080930020EB
:103F00008C930020689300209493002088930020D5
:103F100090930020849300209893002064930020C5
:103F2000749300207C93002078930020684620F052
:103F300007018D46F1B500241B4B1C4ED3F8EC7FD6
:103F40001B4D3378A34210DC4FF0FF32164BC3F801
:103F5000F02F184B186820B1B0F5803F22D2FFF740
:103F60004FFEBDE8F1408546704705EBC4039A79E2
:103F7000D97942EA01223A4210D05A7815F8340031
:103F800040EA02209A78DB7840EA024050EA036077
:103F900004D0B0F5803F03D2FFF732FE0134D0E702
:103FA0008047FBE78047DCE7008000405893002013
:103FB0002893002064930020B0F5806F2DE9F04134
:103FC00036D20023474C484922789A420CDC474BB2
:103FD000474A1A60474B186830B3B0F5803F7ED22D
:103FE000BDE8F041FFF70CBE01EBC307BE79FF79D6
:103FF0005D1C46EA0726864218D1D21A01EBC5009D
:10400000013A0146D200083809F029F82378013B2B
:10401000DBB2237043B94FF08062374BC3F8802086
:10402000BFF34F8FBFF36F8FBDE8F0812B46CCE716
:10403000B0F5E04F31D017D8B0F5804F4BD00BD84A
:10404000B0F5005F43D0B0F5405F42D0B0F5805F7F
:1040500039D0264B294ABCE7B0F5A04F3DD0B0F58A
:10406000C04FF6D1264B2FE0B0F5304F23D00CD8FF
:10407000B0F5104F17D0B0F5204F18D0B0F5004F65
:10408000E7D14FF480521C4B0AE0B0F5404F16D0F8
:10409000B0F5504FDDD11B4B16E04FF48062164B4C
:1040A000C3F88420BCE74FF40042134BF8E74FF409
:1040B0008032114BF4E74FF400320F4BF0E74FF032
:1040C00080620D4BECE70B4B00221A60ACE70E4B05
:1040D000FAE70E4BF8E70E4BF6E70E4BF4E7BDE8B8
:1040E000F0410047589300202893002000820020D0
:1040F000010206005C93002000E100E001010600DF
:104100008093002068930020649300207493002023
:104110007C9300207893002008B50E4B1A688242E9
:104120000DD00D4B0D4A1A600D4B186820B1B0F53B
:10413000803F02D2FFF764FD08BD8047FCE71A68A4
:10414000013A1A601B6813B983F31088F4E7002062
:10415000F2E700BF6C9300200082002001030600FC
:104160005C9300200022044B1A60044B18681A6804
:1041700022EA00021A6070477093002060930020CA
:1041800008B5054B1860054B1868FEF7FBFABDE84B
:104190000840FFF7E7BF00BF709300206082002057
:1041A00038B50D1A044609F093F8054A13681060F3
:1041B0000344B3FBF5F105FB1133181938BD00BFFB
:1041C0009C93002009F056B802464FF0804393427A
:1041D00005D800202BB9824288BF013070479B0868
:1041E000F5E7C11891429CBF00EB4300521A40080A
:1041F0009B08EFE707B501A813F6A2FB019800BAE8
:1042000003B05DF804FB00001FB5002302930423F4
:1042100005480DEB03010193CDF80CD013F684FC97
:10422000009805B05DF804FBFCFE2000074A92F8F8
:104230002D1092F82C3092F82F0043EA012392F8C7
:104240002E1043EA014343EA00607047BA80002021
:10425000074A92F8291092F8283092F82B0043EA86
:10426000012392F82A1043EA014343EA00607047B1
:10427000BA800020554B03215A6922F00E025A6180
:104280005A6942F00E025A610122514B1A70514B89
:104290001A60514B1A6399601961D3F810116FF3CA
:1042A0004401C3F81011D3F810116FF38911C3F84A
:1042B0001011D3F8101162F3CD21C3F81011D3F807
:1042C000101141F40041C3F81011D3F80C1141F062
:1042D0000041C3F80C11D3F80C1141F08061C3F810
:1042E0000C11D3F80C116FF3DB61C3F80C11D3F888
:1042F0000C116FF31861C3F80C11D3F80C1141F0D5
:104300000071C3F80C11D3F80C116FF3D131C3F85D
:104310000C11D3F80C116FF30E31C3F80C11D3F854
:104320000C116FF35751C3F80C11D3F80C116FF344
:104330009441C3F80C11D3F8301162F34401C3F86F
:1043400030110221D3F830216FF38912C3F83021E4
:10435000D3F8302161F3CD22C3F83021D3F82C21DA
:1043600042F00042C3F82C21D3F82C216FF39A625B
:10437000C3F82C21D3F82C2142F00062C3F82C2181
:10438000D3F82C2142F08072C3F82C21D3F82C21D1
:104390006FF35962C3F82C21D3F82C216FF3D1327B
:1043A000C3F82C21D3F82C216FF30E32C3F82C2143
:1043B000D3F82C216FF35752C3F82C21D3F82C21BA
:1043C0006FF39442C3F82C21704700BF0080004077
:1043D000A1930020A4930020001001401B4BB3F8D0
:1043E00000246FF30002A3F80024D3F8F82F22F082
:1043F0000202C3F8F82F0222C3F8F82F144A1168FA
:104400004A074BBF134AB3F80C24126842F010025B
:1044100045BFC3F824240322A3F80C24C3F8082EB4
:104420004FF44C32C3F80014C3F8002E4FF0FF32A3
:104430000721C3F8042ED3F8202461F31B62C3F8CC
:1044400020240422C3F80424704700BF0000014068
:10445000A4930020A89300202B4B01071A6810B4E6
:1044600022F44E7248BF42F020021A60420748BF51
:104470001A684FEA102444BF42F010021A60C107C4
:104480005EBF1A6842F008021A60C20642BF1A688C
:1044900042F440721A601A6824B31C4942F00402C4
:1044A00009681A60B1FBF4F14FF47A74B1FBF4F1CE
:1044B000174C2160410641BF16494A6942F001028A
:1044C0004A61020641BF13494A6942F4C0224A6167
:1044D0001B685B0703D44FF400020F4B1A6010BC3B
:1044E000FFF77CBF22F004021A600A4A116821F02B
:1044F00002011160516864F38E315160516864F3B8
:10450000CF315160D6E700BFA4930020088000207F
:10451000A89300200080004000E100E00E4B0F4A0D
:104520001868D2F82C31C0F30B0019010ED4D2F860
:104530000C31D2F81021C3F30B03920300D50133E1
:10454000074A1288801AC01A80B27047D2F82C31FC
:10455000C3F30B03F4E700BFAC930020001001404D
:10456000B09300202DE9F0415D4F0D463B78164693
:10457000DFF87081CBB95C4B5C4A1868D8F8003022
:1045800013F0040F08BF5A495A4B08BF09781A6044
:10459000002800F09880B0F5803F03D2BDE8F041DC
:1045A000FFF72EBBBDE8F04100470023504A524CB4
:1045B0001370D4F8102192031FD5D4F8102163F39F
:1045C0008E32C4F81021D4F8102163F3CF32C4F82E
:1045D0001021D4F8102142F48022C4F81021D4F81C
:1045E000102163F39242C4F81021D4F8102163F330
:1045F0000002C4F81021FFF7F1FE03233F4AC6F37F
:104600000B061660A3602361D4F80C3100285CD13E
:1046100060F39A63C4F80C31394B18701846D4F81B
:104620002C31002D56D165F3DB63354DC4F82C31A8
:1046300000233B70334BC4F80001C4F80431116807
:10464000D4F80C3161F30B03C4F80C312E4BC4F8D1
:104650002031C4F824511268D4F82C3162F30B03D2
:10466000C4F82C31D4F8103143F00103C4F81031F0
:10467000D4F8303143F00103C4F83031D8F80030B9
:1046800013F0040304BF214A1380214B1B68D3B9E4
:104690003B78002BFCD0D4F8302112F00102FAD183
:1046A0001C4BD3F8201462F31451C3F82014B3F850
:1046B000001462F30001A3F80014B3F8002442F0E0
:1046C0000102A3F80024BDE8F08143F08063C4F840
:1046D0000C31A4E743F00063C4F82C31A8E700BF15
:1046E00034800020A49300205C9300200105080082
:1046F000358000200082002000100140AC93002093
:10470000A09300201C04014014040140B093002039
:104710007C930020000001400A4601460020FFF77C
:1047200021BF0A460021FFF71DBF0000684620F0A8
:1047300007018D4601B5344BD3F82824D20620D585
:104740000121324A11704FF0FF32C3F80824B3F848
:10475000102442F01002A3F81024B3F80C246FF3D5
:104760000412A3F80C24B3F80C2442F02002A3F89E
:104770000C24274B186820B1B0F5803F3ED2FFF7DC
:104780003FFA214BD3F828349B0633D500211F4B29
:104790001970204BD3F8302161F30002C3F83021A7
:1047A00001221D4B1A701D4B186820B1B0F5803FD7
:1047B00026D2FFF725FA4FF0FF32134BC3F8082437
:1047C000B3F8102442F02002A3F81024B3F80C240C
:1047D0006FF34512A3F80C24B3F80C2442F0100236
:1047E000A3F80C240E4B186820B1B0F5803F09D215
:1047F000FFF706FABDE80140854670478047C0E7ED
:104800008047D8E78047F5E7000001403580002069
:104810007893002000100140348000208093002015
:104820007C930020684620F007018D46FF22204936
:1048300019B5204B8A60D3F8280408B1C3F81024B6
:104840001D4B1B685B072DD51C4C237853BB194BA4
:10485000D3F8202442F48012C3F82024184A1068A8
:10486000F0B1D1F8302112F00102FAD1D3F82014BE
:10487000B0F5803F62F31451C3F82014B3F800146C
:1048800062F30001A3F80014B3F8002442F001021F
:10489000A3F800244FF00103237007D2FFF7B0F90B
:1048A00001232370BDE81940854670478047F7E72C
:1048B0000010014000000140A4930020348000203B
:1048C0007C930020684620F007018D46FF2201B549
:1048D000024BBDE801409A608546704700100140D8
:1048E000034A536923F4C02323F001035361704743
:1048F000008000400022114B1A70114BD3F8F81FB2
:1049000021F00201C3F8F81FB3F8001462F30001AC
:10491000A3F800140B4B1A600B4A536923F4C0230D
:1049200023F00F0353614FF40002084BC3F88020BB
:10493000BFF34F8FBFF36F8F704700BFA19300206D
:1049400000000140A49300200080004000E100E04E
:1049500070B505460C4640EA010630460121FEF7D7
:10496000DDFE044B044A1D805C80D36823EA060305
:10497000D36070BDB493002000800040034B012140
:1049800018885B88184380B2FEF7C8BEB493002035
:104990000C480D4A38B5116843880C4D21EA0301D3
:1049A0001160806894681C4001D0012008E06968AB
:1049B000411AB1F1804FF5D9204600F009F82046A0
:1049C00038BD00BFB493002000800040001000E01C
:1049D00038B500230F4D104C6B71104B6A885B6823
:1049E00003F5671303F56F53AB602B8821681343FE
:1049F0000B43236020B1FFF7CBFF20B9FE2008E076
:104A000023EA0203236000202A88236823EA0203A2
:104A1000236038BDB493002000800040001000E007
:104A20002DE9F04106460827DFF88C80234DD8F8A1
:104A30000430234C03F5671303F56F53AB60236811
:104A40006A88310642EA03022B884CBF22EA03033C
:104A500013432360FFF79CFF10B9FE20BDE8F081EF
:104A600076006B88A968F6B2A2681A421AD0013F94
:104A700017F0FF07E3D1226813432A8823EA0203D1
:104A80002360FFF785FF0028E7D02A88A3681A4231
:104A900014BF4FF0FF3000206A882368C0B2134370
:104AA0002360DBE7D8F804208A1AB2F1804FDBD903
:104AB0000120FFF78DFFD0E7001000E0B493002045
:104AC0000080004038B50A4C0A4D23682A8804202B
:104AD0001343236000F00CFD6A882368042013430D
:104AE000236000F005FD2879BDE83840FFF798BF46
:104AF00000800040B493002038B50F4B0F4C5B682A
:104B00000F4D03F5671303F56F53A3602A6863889D
:104B10001343228823EA02032B60FFF739FF40B1D9
:104B200022882B6813432B602079BDE83840FFF7BB
:104B300077BFFE2038BD00BF001000E0B493002016
:104B4000008000402DE9F843154D1F466B79400069
:104B500089469046287153B1FFF7CEFF044648B10D
:104B6000AFB10120FFF734FF60B2BDE8F883FFF773
:104B7000A9FFF3E70646F2B24245F1D219F8020066
:104B8000FFF74EFF01360028F5D00446E8E7054A56
:104B9000298813680B43136001236B71E4E700BF9E
:104BA000B4930020008000402DE9F843002306461E
:104BB0000F460824DFF8B4800370D8F804302C4D79
:104BC00003F5671303F56F53DFF8A890AB603378F4
:104BD0005B003370D9F800206B8813432A8823EADE
:104BE0000203C9F80030FFF7D3FE68B9FE2420465F
:104BF000BDE8F883D8F804208A1AB2F1804F05D9AD
:104C00000120FFF7E5FEF1E76B88A968D9F80820D5
:104C10001A42EFD0D9F808102A88013C11421EBF71
:104C2000317841F00101317014F0FF04CFD1114906
:104C30000868034357B113430B60FFF7A9FE002830
:104C4000D4D06988A8680B4B084D07E023EA02031B
:104C5000F2E76A68821AB2F1804FD1D89A680A42A4
:104C6000F7D01A680A431A60C1E700BF001000E0DD
:104C7000B4930020008000402DE9F843194D1F46F1
:104C800040006B7940F00100884616462871C3B198
:104C9000FFF732FF0446B8B906F1FF39E0B2B0427F
:104CA00013D2B9EB000118BF01214044FFF77CFF8C
:104CB00090B10D4A29881368044623EA0103136062
:104CC00003E0FFF7FFFEE5E700243FB10120FFF717
:104CD0007FFE20B2BDE8F8830134DFE701236B716A
:104CE000F7E700BFB49300200080004012F644BFF5
:104CF000012383F31088054A92F84C3043F00103F6
:104D000082F84C30002383F31088704700C00040C5
:104D10000122034BC3F8E82FC3F8D82F704700BF18
:104D200000C00040014B1878704700BF009400207D
:104D300030B50124394B8440E4B2C3F8E84F0D4646
:104D4000596D022A21EA0401596502BF596D2143B8
:104D50005965C3F8D84F03285CD8DFE800F0021F7C
:104D600033474FF400212E4BC3F88010BFF34F8F11
:104D7000BFF36F8F19600120284B93F8741060F314
:104D8000070183F87410002A46D1264A5168691A2F
:104D900078391960214BC3F8DC4F30BD4FF48011D6
:104DA0001F4BC3F88010BFF34F8FBFF36F8F196095
:104DB00001201A4991F8783060F3070381F87830C0
:104DC000194BE0E74FF40011154BC3F88010BFF307
:104DD0004F8FBFF36F8F19600120104991F87C301D
:104DE00060F3070381F87C30104BCCE74FF480016F
:104DF0000B4BC3F88010BFF34F8FBFF36F8F196059
:104E00000120064991F8803060F3070381F8803073
:104E1000074BB8E70023B6E71D60BBE700C00040C2
:104E200000E100E0001000E010C0004020C00040A1
:104E300030C000402DE9F043494F3B78072B0ED995
:104E4000484B494A1A60494B1868002800F0868090
:104E5000B0F5803F0ED2BDE8F043FEF7D1BE444B23
:104E6000D3F804C0A0EB0C0EBEF1E06F73D93D4B3C
:104E7000404AE7E7BDE8F043004703F1FF3C06EB9B
:104E8000CC0E9EF8018016F83C5045EA08259EF8A5
:104E9000028045EA08459EF80380C5F3072906F815
:104EA000335006EBC3032D0C83F801909D7083F8FB
:104EB00003809EF805809EF8045045EA08259EF878
:104EC00006809EF807E045EA08451D71C5F30728EE
:104ED0002D0C83F805809D7183F807E05FFA8CF351
:104EE00018E001323B78D4009A4215DA351995F86A
:104EF00005802B7943EA082395F80680ED7943EA8B
:104F0000084343EA0563A3EB0C039E45E9D23B78D3
:104F10000133DBB29A42B0DB3444C0F30723637140
:104F2000C0F30743A371030EE371C1F3072306F82F
:104F300032106370C1F30743A3703B78090E01334D
:104F4000DBB22071E1703B7042B9BDE8F04301462D
:104F50001046FFF7EDBE0022074EC3E7BDE8F08321
:104F60000094002000820020010405005C930020D2
:104F7000001000E001050500C0930020F8B51D4BAE
:104F800005461B680F4616460BB100F06FF91A4C28
:104F9000637C207C627D40EA0320A37C40EA0340DE
:104FA000E37C40EA0360237D2D1A43EA0223A27DBD
:104FB00043EA0243E27D43EA026367EB03070F4BD8
:104FC0000F4A19680023A5FB010501FB0751FCF7F7
:104FD000A5FC627A237A314643EA0223A27A43EAA5
:104FE0000243E27A43EA02631844BDE8F840FFF75F
:104FF00021BF00BFCC95002008940020088000202D
:1050000040420F000A464FF47A71A0FB0101FFF7FE
:10501000B5BF0000F8B5204C154694F8673094F8F9
:10502000682094F86C6043EA022394F8692043EA0C
:10503000024394F86A2043EA026394F86B20C01A92
:1050400042EA062294F86D60144B42EA064294F854
:105050006E6042EA066261EB020619684FF41C2298
:10506000A0FB0107002301FB0671FCF757FC94F835
:10507000702094F86F30294643EA022394F8712097
:1050800043EA024394F8722043EA02631844BDE8FD
:10509000F840FFF7CFBE00BF449500200C800020F1
:1050A000094B10B50C461968084A0023A0FB010102
:1050B000FCF734FC064B01461C600222BDE81040A0
:1050C0000120FFF735BE00BF0880002040420F00DE
:1050D000049400204FF47A735843FFF7E1BF0000B7
:1050E0000023064A1370064A137053709370D370EE
:1050F0004FF40022034BC3F8802170470094002036
:10510000C093002000E100E00022074B1A604FF43A
:105110008012064BC3F88020BFF34F8FBFF36F8F11
:10512000C3F88021704700BF0494002000E100E034
:1051300008B5FFF7D5FFFFF7E7FF4FF40022044B58
:10514000C3F88020BFF34F8FBFF36F8F08BD00BF40
:1051500000E100E0684620F007018D460122F1B52C
:10516000314B324CC3F8E82F2078637840EA0320B3
:10517000A37840EA0340E37850EA036022D02C4D44
:10518000B0F5803F2B7803F1FF33DBB22B701DD2DB
:10519000FEF736FD00202A78C3B2934218D32A784E
:1051A00002F0FF03002A3AD062792379E17943EAD9
:1051B0000223A27943EA0243002243EA0161104636
:1051C000FFF7B6FDBDE8F140854670478047E1E74F
:1051D0005A1C14F8321004EBC2025678013041EA2E
:1051E0000621967841EA0641D678C1F3072704F8EC
:1051F000331004EBC303090C5F709970DE705679AD
:10520000117941EA06219679D27941EA0641C1F342
:1052100007261971090C5E719971DA71BBE7237069
:105220006370A370E370CDE700C00040C09300201E
:1052300000940020684620F007018D460222094BA9
:1052400001B5C3F8E82F084B186820B1B0F5803FCE
:1052500005D2FEF7D5FCBDE8014085467047804782
:10526000F9E700BF00C00040049400201E4B70B559
:105270005A7818781D4D40EA02209A78296840EA49
:105280000240DA781C7A40EA0260194A411A126830
:105290005E7BB1FBF2F15A7A44EA02249A7A44EA3C
:1052A0000244DA7A44EA02641A7B091942EA0622C5
:1052B0009E7BC1F3072442EA0642DE7B197242EA72
:1052C000066242F100025C72C1F30744090ED97212
:1052D000C2F307211A735973C2F30741120E9C726D
:1052E0009973DA73286070BD089400202094002020
:1052F000D0950020274B70B55B68274CC3F307217E
:10530000DDB2C3F30742257045EA01251B0E45EACD
:10531000024545EA0365A270E37062792379617002
:1053200043EA0223A279617B43EA0243E27943EA3A
:105330000266627A237A43EA0223A27A43EA0243AC
:10534000E27A43EA0263227BED1A42EA0122A17B60
:10535000124B42EA0142E17B1B6842EA016266EBC2
:1053600002060BB1FFF782FF0A21A5FB01050C4BDA
:1053700001FB06511A680023FCF7D0FA627C237CFB
:1053800043EA0223A27C43EA0243E27C43EA02634B
:10539000184470BD001000E008940020CC95002057
:1053A0000C8000202F4B70B55B682F4CC3F3072196
:1053B000DDB2C3F30742257045EA01251B0E45EA1D
:1053C000024545EA0365A270E37062792379617052
:1053D00043EA0223A279617B43EA0243E27943EA8A
:1053E0000266627A237A43EA0223A27A43EA0243FC
:1053F000E27A43EA0263227BED1A42EA0122A17BB0
:105400001A4B42EA0142E17B1B6842EA016266EB09
:1054100002060BB1FFF72AFF0A21A5FB0105144B79
:1054200001FB06511A680023FCF778FA637C227CA2
:10543000657D42EA0322A37C42EA0342E37C42EA1E
:105440000362237D821843EA0523A57DE47D43EAB8
:105450000543084843EA046343EB0103C0E9002322
:1054600070BD00BF001000E008940020CC95002023
:105470000C8000202894002008B5FFF793FF4FF41C
:105480007A72D0E900010023FCF748FA08BD000059
:1054900013B5124B01AA9A420446019011D3104B46
:1054A000104A1A60104B1868B0B1B0F5803F04D2B2
:1054B00002B0BDE81040FEF7A3BB02B0BDE810404B
:1054C0000047FCF773FF094B21461860184602B0ED
:1054D000BDE81040FDF7E8B802B010BD009A00200A
:1054E00000820020010504005C930020309400201D
:1054F00038B50446FFF7FEFE072C15D94FF47A7233
:10550000A4F108031D18B3FBF2F34FF0000403F1FC
:10551000FF306441002801DDFFF7BAFFFFF7EAFE24
:105520000023A842A341F9D338BD0000684620F00B
:1055300007018D46042201B5114BC3F8E82F114A2B
:105540001378013303F001031370A3B90E4A5179A4
:10555000137943EA0123917943EA0143D17943EA7C
:1055600001630133C3F3072113715171C3F3074181
:105570001B0E9171D371BDE801408546704700BF95
:1055800000C000402494002008940020F0B5284A70
:1055900085B013680A2601331360FFF703FFD0E9D3
:1055A000004502A804F0E2F8694602A800F0FCFBFE
:1055B0000098019FA0FB060100234FF41C2206FB6C
:1055C0000711FCF75BF9241A65EB01010F3C41F16F
:1055D000FF3154EA010329D0164B5A7C187C5D7DBB
:1055E00040EA02209A7C40EA0240DA7C40EA02600B
:1055F0001A7D001B42EA05229D7D187442EA05428D
:10560000DD7D42EA056262EB0102C0F307215974B5
:10561000C0F307419974C2F30721000E1A7559753A
:10562000C2F30741120ED8749975DA7505B0F0BD52
:105630006482002008940020374B10B51B68044694
:105640000021986807F092FE0121344B5A6961F3FA
:10565000CC225A615A6961F34E325A61BFF34F8FBF
:1056600003F5E0431A680A431A601A686FF34102AF
:105670001A60BFF34F8F1A690A431A61BFF34F8F45
:105680001A696FF352421A611A6942F002021A61F2
:105690001A6942F480721A611A696FF349221A6119
:1056A0001A696FF38C221A611A6942F010021A61AA
:1056B0001A696FF345121A619A8842F004029A80BF
:1056C000BFF34F8F164A1460164A1068B0FBF4F00F
:1056D000020900F00F009A625862BFF34F8FBFF3C8
:1056E0004F8FBFF34F8F1A6942F020021A61BFF348
:1056F0004F8F5A695A610C4A117000220B490A6097
:105700000B490A604FF080700A490860196862F31B
:105710000001196010BD00BF5480002000800040CF
:1057200040950020088000203C95002038940020FF
:105730003494002000E100E0684620F007018D4627
:10574000154979B5154B164C164D1A69D00704D575
:105750005A69C2F3800052070FD423784BB1124B21
:10576000186820B1B0F5803F13D2FEF749FA002344
:105770002370BDE87940854670470A6893F83C601D
:10578000AE545A695A610A6820700132D2B20A6076
:10579000DBE78047EBE700BF3894002000F00040D3
:1057A0003D9500203C940020749300204FF08072BF
:1057B000094BC3F88020BFF34F8FBFF36F8F074BA8
:1057C0005A696FF3CC225A615A696FF34E325A61AB
:1057D0000022034B1A70704700E100E00080004097
:1057E0003C950020034B1868034B1B68C01A80B21D
:1057F000704700BF3894002034940020084A094BB9
:105800001968136899421FBF116813680133DBB22E
:105810001DBF1360044B585C4FF0FF30704700BF52
:1058200034940020389400203C940020014B1860F0
:10583000704700BF38800020F8B50646FFF7D2FF5A
:1058400088420D4612D32C460023DDB2A54203F157
:10585000010721D31349144B08681A68904208BF06
:105860000022204604BF0A601A60F8BDFFF7BAFFA5
:105870000E4F04463B68002BE6D0FFF7FDFD3F6866
:105880000744FFF7F9FD3B1A002BDDDDFFF7AAFF08
:1058900085420446F5D8D6E7FFF7B0FF3B46705582
:1058A000D3E700BF349400203894002038800020D3
:1058B0002DE9F84307460E4615460024DFF82C80F4
:1058C000DFF82C90A64201DCBDE8F8833CB1B4FBC4
:1058D000F5F305FB134313B9404607F0B3FC395DFC
:1058E000484607F0AFFC0134ECE700BFFDE02000C4
:1058F0007BE0200010B5074C074B226819682AB9D5
:10590000064807F09FFC0023236010BD044807F001
:1059100099FCF8E7188000200082002081E0200038
:1059200094E020000022F0B50B4D8A4200D3F0BD78
:105930002B698C1AC3F34233C3F10403A34228BF7B
:10594000234684181E19B44201D11A44EDE714F815
:10595000017B85F83870F6E700F0004000232DE960
:10596000F041002986B08DF814300E4615460B46DE
:1059700002DA404261EB410313241F460A2200234E
:1059800039468046FBF7CAFF0B462146024601F125
:10599000180C0DEB0C0E02EB820208F1300CB8F182
:1059A0000A0F04F1FF34ACEB420277F10007E4B2D6
:1059B0000EF8182CE1D2002E08DA04F118030DEBD2
:1059C00003042D23023904F8183CCCB204F1180367
:1059D000C4F113060DEB0304F6B2A4F1170035B9B8
:1059E0003146FFF79FFF304606B0BDE8F081014623
:1059F0003246284607F033FBF5E708B5FFF792FF7C
:105A0000002008BD0846114608B5FFF78BFF084681
:105A100008BD002070470000B1F5806F7FB50546D6
:105A20001446084603D20A44B2F5806F11DD124BCA
:105A3000124A1A60124B1868E0B1B0F5803F04D2E8
:105A400004B0BDE87040FEF7DBB804B0BDE87040BC
:105A50000047002600F5031001A900F57C500296CE
:105A60000194039512F660F820B12246314628468B
:105A700007F002FB04B070BD0082002002030C009E
:105A80005C93002007B50146012201A8FFF7C4FF7F
:105A90009DF8040003B05DF804FB0000B1F5806FD1
:105AA0000B4607B503D25118B1F5806F11DD164BC7
:105AB000164A1A60164B186800B3B0F5803F04D23E
:105AC00003B05DF804EBFEF79BB803B05DF804EBA0
:105AD0000047CDE9002003F50310694600F57C502E
:105AE00012F63EF850B1084B0A4A1A60084B186883
:105AF00020B1B0F5803F04D2FEF782F803B05DF824
:105B000004FB8047FAE700BF0082002002040C007B
:105B10005C93002001040C0007B501228DF80410ED
:105B2000014601A8FFF7BAFF03B05DF804FB0000CF
:105B3000014B1878704700BFEC80002008B511F6C3
:105B4000E7FF11F6DDFF00002DE9FF41144607468F
:105B50000D4602F013F99DF80830182C23F01803B5
:105B600043F018038DF8083078D01DD804F0FD03F9
:105B7000012B1BD1614B93F85630022B01D102F05F
:105B8000FDF8B5F5806F14D35D4B5E4A1A605E4B2D
:105B9000186800285FD0B0F5803F80F0AB8004B07B
:105BA000BDE8F041FEF72CB81A2C57D0544B574A99
:105BB000ECE717B1524B564AE8E700220023CDE943
:105BC0000023C5F3801205F0010343EA4203C5F345
:105BD000C01543EA85058DF80450019B13B9484B65
:105BE0004C4AD3E703223E46E11E9DF800304C426A
:105BF0004C4123F0030344F002041C439DF8083099
:105C00008DF8004062F302038DF80830FFF790FA38
:105C100072B667B14FF47A70704302F091FC0122C2
:105C20003D4BC3F8F02FC3F8E42F02F07DFC0022B7
:105C30003A4B1A605A613A4A5A6040F2FF32C3F84E
:105C4000E02FC3F8F02F04AB13E90F0002F049FC7A
:105C500002F070FC62B604B0BDE8F081002F47D0BE
:105C6000FFF70AFC874202D2254B2E4A8EE73E1AE6
:105C7000DFF8B48098F8000008B902F01DFC01209C
:105C800002F076FC02F06CFC0028FBD098F80030A3
:105C90000BB902F014FC00220023CDE90023321ED0
:105CA00018BF01224FF0000362F304138DF8003097
:105CB000A4F11A021D4B544205EA0303544145EA7C
:105CC00095259DF80820C5F30905E4012B4344F010
:105CD000020402F0780201931443C3F309038DF820
:105CE0000840002B92D19DF80030DB068ED476E779
:105CF0003E46BDE704B0BDE8F041004744950020B2
:105D000000820020020301005C93002004030100D4
:105D1000010301000303010000E000400080004097
:105D2000AAAA0A0005030100EA80002000FC0F0077
:105D3000012A08BF89021A22FFF706BF0146012285
:105D40000020FFF701BF704711F6B2BE11F6B4BED6
:105D500070B5144C94F8685094F8673094F86C60FF
:105D600043EA052394F8695043EA054394F86A50DE
:105D700043EA056394F86B50C01A45EA062594F887
:105D80006D6094F86E4045EA064545EA04644FEAC2
:105D9000502361EB040143EAC153C0F30800536090
:105DA000106070BD44950020F0B559B3164B46689D
:105DB000164C1B68F50D94F8672045EA432594F8C6
:105DC000683094F86C7042EA032294F869300068F5
:105DD00042EA034294F86A3040EA462042EA03620B
:105DE00094F86B30801843EA072394F86D7094F8A8
:105DF0006E4043EA074343EA046328BF01332B4460
:105E000008604B60F0BD00BF648200204495002014
:105E100007B5094B1B781BB9002003B05DF804FBE4
:105E2000684603F0A3FC0028F6D104496846FFF752
:105E3000BBFF0846F1E700BFB9800020289400208E
:105E40002DE9F04F0446ADF5237D0FA802F03EFA90
:105E50000FA800F00FFF002C55D063792579277823
:105E600045EA0325A37945EA0345E37945EA036555
:105E7000637847EA0327A37847EA0347E37847EACA
:105E800003670026FFF7F8FA01F09CFB4FF4E130BE
:105E9000FFF7D2FB2B463A46B249B34807F0D2F996
:105EA0004FF4057331461CAA01200196009602F0BA
:105EB00021F801F047FF304601F076FE102231460E
:105EC0000BA807F0D9F8B2464FF0FF384FF47A70BC
:105ED000FEF756F9D0B9627A237A013643EA0223F3
:105EE000A27AF6B243EA0243E27A43EA02639E42AE
:105EF00003D1B8F1FF3F00F00F8101F023FF002034
:105F000001F052FEE2E725462746BAE70128DDD137
:105F10001C9BC3F30F23B3F5057FD7D135B19DF893
:105F20007B301F9A43EA0223AB42CFD11D9A9DF8E2
:105F3000733043EA02238B4A9342C7D137B19DF8AD
:105F400077301E9A43EA0223BB42BFD1FEF7D0FE50
:105F5000B8F1FF3F24D14FF0FF310023219A0BAD60
:105F6000C2F34730C2F304229140DAB2904200F209
:105F7000D88040F0D8800A460133042B45F8042B22
:105F8000F3D14FF000089DF87B301F99774843EA22
:105F9000012107F057F99DF87B501F9B45EA032527
:105FA00001229DF883909DF8843049EA032309F08B
:105FB0001F0902FA09F9C3F347130BAA52F8232069
:105FC00012EA090F82D10DF1870B4FF40071584688
:105FD00003920293FDF75CFB209B9DF87F10039AD0
:105FE00041EA03218142029B40F0B88042EA090263
:105FF0000BA941F82320219A0AF1010A1FFA8AFA13
:1060000051465B48C2F30F2207F01CF94FF40073AE
:106010009DF8830007939DF8843007A950EA032078
:1060200002BFA0238DF88930012300F584504FEA88
:10603000402008BF8DF88A30CDF820B011F690FDD1
:10604000B8F1000F1FD14FF0010B41F28830FEF77D
:106050004DFE0DF1180909A94648CDF818B0CDF844
:1060600024B0CDF8289011F67BFD042309A94248FD
:106070000993069511F674FD404809A9CDF81880DA
:1060800011F66EFDD8464FF0040B0BAB53F8042B02
:10609000029201327FF41AAF0BF1FF3B1BF0FF0BB2
:1060A000F4D140F2A1334FF002090DF1180809A90B
:1060B000A8F800303248CDF82490CDF8288011F6A9
:1060C0004FFD21994FF40410C1F30F214902FDF750
:1060D000DFFA05909DF87B201F990DF1140A42EA22
:1060E0000122904222D1274807F0ACF84FF4F46225
:1060F00009A9C8F800202248CDF82490CDF82880BE
:1061000011F62EFD042309A91C480993CDF828A0F7
:1061100011F626FDFFF712FD5C200DF5237DBDE88D
:10612000F08F002228E74FF0FF3225E74FF47A6224
:1061300009A9A8F800201248CDF82490CDF82880AD
:1061400011F60EFD9DF87B301F9ADAF800100E480C
:1061500043EA022207F076F8DA46B5E60B4807F084
:1061600071F8B3E647010401B0E02000C8E0200068
:10617000D5E020000300210008102000FCFE2000D4
:1061800002002100E1E02000E5E02000FFE0200027
:106190002DE9F041ADF5816D044601F013FA4FF49D
:1061A000E130FFF749FA14238DF809300223627AAF
:1061B0008DF80A30237A217B43EA0223A27AE07A1F
:1061C00043EA0243490243EA0060FDF761FAC0F383
:1061D00007228DF81420C0F307428DF81520020E17
:1061E00061788DF816202278034642EA0122A178D0
:1061F0008DF8130042EA0142C2F307208DF8100027
:10620000100C8DF81100472004258DF80B0001209B
:106210004FF0000800260027E1788DF80F208DF858
:1062200012108DF80C008DF80D508DF80E0042EA1A
:1062300001623C483C493D4D07F004F88DF81B8055
:106240008DF81C80237B9DF81B108DF81D300023DA
:106250008DF81E309DF81C30627A41EA0321237AC2
:106260000DF11F0043EA0223A27A43EA0243E27AD5
:1062700043EA026303EB41214FF4007206F0EFFEA4
:106280004FF400710DF11F00FDF702FAC0F3072370
:106290008DF817008DF81830C0F30743000E8DF805
:1062A0001A000DF109008DF8193000F049FE68461A
:1062B000CDE9006701F0AEFA9DF81C309DF81B1087
:1062C000227B41EA03210131284606F0BBFF14205E
:1062D000FFF7DEF89DF81C309DF81B0040EA032014
:1062E000237B0130B0FBF3F203FB1200C0F3072362
:1062F00062798DF81C3023798DF81B0043EA022364
:10630000A27943EA0243E27953EA02639AD0002871
:1063100098D108F10108434594D80DF5816DBDE889
:10632000F08100BF0AE120004701040127E12000BD
:1063300070B51B4C1B4D6278237885F8560043EAF4
:106340000223A27885F8571043EA0243E27853EA21
:1063500002630FD0637C207C40EA0320A37C40EAE8
:106360000340E37C50EA036004D0032205F15501A9
:1063700006F075FE6378207840EA0320A37840EAAF
:106380000340E37850EA036009D0B0F5803F03D2C0
:10639000BDE87040FDF734BCBDE87040004770BDFB
:1063A000D495002044950020034B93F8571093F8A0
:1063B0005600FFF7BDBF00BF4495002001230548EC
:1063C00080F85630044B24301B6880F8333001F0DD
:1063D0007DBF00BF44950020EC80002008B5014639
:1063E0000120FFF7A5FFBDE8084001F0C7BC08B5D4
:1063F000FFF7A4FB002008BDF0B5054689B01022C8
:1064000000213F4806F038FE11220021284606F000
:1064100033FE11F66DFB80F0010616F0FF0627D063
:1064200011F67EFB10F0FF040CD0364B50341B6885
:10643000E4B21B0443F05203324A1360002011F609
:1064400063FB25E011F688FA10F0FF0007D02D4B12
:1064500050301B68C4B21B0443F05403ECE78DF8C2
:10646000040001A811F664FA9DF80430012BF8D05D
:1064700001A811F661FA10F0FF040DD0214A13684B
:106480001B0443F05C0350341360E4B2002ED5D1FA
:1064900020462C7009B0F0BDFDF7ACFE184FC0F3DC
:1064A0000723E8702B71C0F30743000EA8716B71CE
:1064B000384603F053FA10F0FF0405D0114A136870
:1064C0001B0443F06003DEE7BDF80A3001226B7263
:1064D000BDF81630AB72BDF81E30EB72BDF81C3043
:1064E0002B73BB796B733B79AB73BB7BEB733B7BE0
:1064F0006C702B740423EA71AB702B72C6E700BF7B
:10650000BB950020048200202DE9F74F90F800A0F1
:106510008146BAF1070F44D8437C012B41D84FF094
:106520001003DFF80C81009300F10103019398F848
:10653000212098F820304FEA8A0B43EA022398F88A
:10654000222008EB8A0743EA024398F8232043EA13
:1065500002634FF0010202FA0AF22DD11343354EC5
:10656000C3F30722357888F8203088F8212095F089
:106570000105C3F307424FEA136388F8222088F825
:1065800023301ED001F0A1FF10F0FF0417D02A4ADB
:1065900013681B0443F0C80304F150001360C4B235
:1065A00006E03524244A13681B0443F0A403136057
:1065B000204603B0BDE8F08F23EA0203CFE70123B2
:1065C000337018F82A00D84498F8013040EA0320C4
:1065D00098F8023040EA034098F8033050EA03602C
:1065E0000AD011F605FA10F0FF0405D0124A13681C
:1065F0001B0443F0CF03CFE799F811306A46012B13
:1066000038460CBF0D490E4911F60EFAC4B244B11A
:10661000094A50341368E4B21B0443F0DA031360F0
:10662000C6E7002DC4D001F053FF3470C0E700BFAF
:1066300044950020BC9200200482002080030101C8
:106640000C10010107B5034600780F2809D9352041
:106650000E4A13681B0443F0EC03136003B05DF8AB
:1066600004FB4FF40072013369460092019311F666
:1066700083F910F0FF00F1D0044A50301368C0B223
:106680001B0443F0F3031360E8E700BF048200201B
:1066900007B503780F2B09D93520104A13681B045E
:1066A00043F0FD03136003B05DF804FB4FF4807208
:1066B0000130019003F110006946C0B2009211F65A
:1066C0005BF910F0FF00EED0044A50301368C0B2FE
:1066D0001B0443F482731360E5E700BF04820020CB
:1066E000427808B5037843EA02238278C07843EA07
:1066F000024343EA006011F6DFF9002008BD10B53F
:10670000044611F6D5F9C0F30723A370C0F307437D
:10671000E370030E60702371002010BDF8B50346CE
:1067200042790179C77941EA02218279007841EA08
:1067300002415A78DE7840EA02209A78084C40EA12
:10674000024040EA06601A7A41EA07612568FFF7CD
:10675000FBF92068A84214BF05200020F8BD00BF47
:106760000082002010B531220349044606F077FC70
:106770000020207010BD00BF6895002000000000C0
:1067800037B525A1D1E900011F4D95F82E3095F8B8
:106790002D4044EA032495F82F3044EA034495F849
:1067A000303044EA0364642394FBF3F422B25A4386
:1067B000164B64421A60D317FBF7B0F8144B1860FD
:1067C00004F004F8002395F82A20ADF8063095F877
:1067D0002930684643EA022395F82B20ADF804409F
:1067E00043EA024395F82C2043EA0263009304F045
:1067F00045FC30B1074A503013681B0443F03A039C
:106800001360C0B203B030BD44950020CC95002089
:10681000D09500200482002000CA9A3B00000000AE
:106820002DE9F341002602F03BFF02F02FFF02F0BA
:1068300057FF3D4B3D4C1E60FEF7B4FDD0E900789C
:10684000684602F093FF214605466846FFF7ACFA1A
:106850004FF41C21A7FB01070A2201FB087100234A
:10686000FBF70CF8224612F8673992F8687092F834
:106870006CC043EA072392F8697043EA074392F831
:106880006A7043EA076392F86B70C01A47EA0C27F4
:1068900092F86DC092F86E2047EA0C4747EA026210
:1068A000234F61EB02017B783A7897F805C042EA02
:1068B0000322BB7897F807E042EA03423B79227251
:1068C000C2F3072843EA0C23120C97F806C0A27201
:1068D000FA7843EA0C4343EA0E6EE2722373C3F381
:1068E0000722C3F30743A3734FEA1E63E37320F445
:1068F000FF7323F0010362731A0A6270C3F3074245
:106900001B0EE370C1F3072321716371E8B2C1F379
:106910000743090E84F809802670A270A371E17103
:1069200002B0BDE8F08100BF64820020AB9500207A
:106930000894002070B5364C86B094F84530FF2B93
:1069400014D116220021684606F096FB01A8FFF735
:10695000DBFD48B140F247132E4A116843EA014378
:106960001360C0B206B070BD84F845002A4D94F89B
:1069700045602B7873B901F0A8FD48B1254B1A6822
:1069800040F2511343EA0243224A50301360E8E7D1
:1069900001232B7006F0F003102B0DD1304601F0CF
:1069A000D2FC014604EB860011F646F820B1194BE3
:1069B0001A6840F25F13E5E794F8212094F820303C
:1069C00043EA022394F8222043EA024394F8232066
:1069D00043EA0263F340DB0701D50020C1E714F866
:1069E000263004EB86046278E07843EA0223A2783A
:1069F0000A4943EA024343EA006002F0A3FD00288B
:106A0000EBD0044B1B681B0443F4B273BCE700BF1C
:106A10004495002004820020BC92002034E1200034
:106A200073B50E4669467EB1103002F0EBFF0546A5
:106A300068B140F277133A4A5035116843EA01438E
:106A40001360E8B202B070BD02F0AEFFEFE7354C64
:106A5000E3695A0762D40423A3602361D4F8502168
:106A600060F34402C4F85021D4F8502160F3891235
:106A7000C4F85021D4F8502160F3CD22C4F850213D
:106A8000D4F84C2163F30E32C4F84C21D4F84C21D5
:106A900063F3D132C4F84C21019BD4F84C115A7ADB
:106AA000C2F3021262F39441C4F84C11D4F84C11B1
:106AB00062F35751C4F84C11D4F84C2142F0806273
:106AC000C4F84C21D4F84C2142F00062C4F84C21A7
:106AD000D4F84C2142F00042C4F84C211A681989BC
